{
  "address": "0xC448127466fCb9A646540fB62e55494d612Fca01",
  "abi": [
    {
      "inputs": [
        {
          "internalType": "address",
          "name": "_asset",
          "type": "address"
        },
        {
          "internalType": "address",
          "name": "_factory",
          "type": "address"
        },
        {
          "internalType": "address",
          "name": "_registry",
          "type": "address"
        },
        {
          "internalType": "address",
          "name": "_weth",
          "type": "address"
        },
        {
          "internalType": "address",
          "name": "_usdc",
          "type": "address"
        },
        {
          "internalType": "address",
          "name": "_swapContract",
          "type": "address"
        },
        {
          "internalType": "uint8",
          "name": "_tokenDecimals",
          "type": "uint8"
        },
        {
          "internalType": "uint256",
          "name": "_minimumSupply",
          "type": "uint256"
        },
        {
          "internalType": "bool",
          "name": "_isPut",
          "type": "bool"
        }
      ],
      "stateMutability": "nonpayable",
      "type": "constructor"
    },
    {
      "anonymous": false,
      "inputs": [
        {
          "indexed": true,
          "internalType": "address",
          "name": "owner",
          "type": "address"
        },
        {
          "indexed": true,
          "internalType": "address",
          "name": "spender",
          "type": "address"
        },
        {
          "indexed": false,
          "internalType": "uint256",
          "name": "value",
          "type": "uint256"
        }
      ],
      "name": "Approval",
      "type": "event"
    },
    {
      "anonymous": false,
      "inputs": [
        {
          "indexed": false,
          "internalType": "uint256",
          "name": "oldCap",
          "type": "uint256"
        },
        {
          "indexed": false,
          "internalType": "uint256",
          "name": "newCap",
          "type": "uint256"
        },
        {
          "indexed": false,
          "internalType": "address",
          "name": "manager",
          "type": "address"
        }
      ],
      "name": "CapSet",
      "type": "event"
    },
    {
      "anonymous": false,
      "inputs": [
        {
          "indexed": true,
          "internalType": "address",
          "name": "options",
          "type": "address"
        },
        {
          "indexed": false,
          "internalType": "uint256",
          "name": "withdrawAmount",
          "type": "uint256"
        },
        {
          "indexed": false,
          "internalType": "address",
          "name": "manager",
          "type": "address"
        }
      ],
      "name": "CloseShort",
      "type": "event"
    },
    {
      "anonymous": false,
      "inputs": [
        {
          "indexed": true,
          "internalType": "address",
          "name": "account",
          "type": "address"
        },
        {
          "indexed": false,
          "internalType": "uint256",
          "name": "amount",
          "type": "uint256"
        },
        {
          "indexed": false,
          "internalType": "uint256",
          "name": "share",
          "type": "uint256"
        }
      ],
      "name": "Deposit",
      "type": "event"
    },
    {
      "anonymous": false,
      "inputs": [
        {
          "indexed": false,
          "internalType": "address",
          "name": "oldManager",
          "type": "address"
        },
        {
          "indexed": false,
          "internalType": "address",
          "name": "newManager",
          "type": "address"
        }
      ],
      "name": "ManagerChanged",
      "type": "event"
    },
    {
      "anonymous": false,
      "inputs": [
        {
          "indexed": false,
          "internalType": "address",
          "name": "account",
          "type": "address"
        },
        {
          "indexed": false,
          "internalType": "address",
          "name": "replacement",
          "type": "address"
        },
        {
          "indexed": false,
          "internalType": "uint256",
          "name": "shares",
          "type": "uint256"
        },
        {
          "indexed": false,
          "internalType": "uint256",
          "name": "amount",
          "type": "uint256"
        }
      ],
      "name": "Migrate",
      "type": "event"
    },
    {
      "anonymous": false,
      "inputs": [
        {
          "indexed": true,
          "internalType": "address",
          "name": "options",
          "type": "address"
        },
        {
          "indexed": false,
          "internalType": "uint256",
          "name": "depositAmount",
          "type": "uint256"
        },
        {
          "indexed": false,
          "internalType": "address",
          "name": "manager",
          "type": "address"
        }
      ],
      "name": "OpenShort",
      "type": "event"
    },
    {
      "anonymous": false,
      "inputs": [
        {
          "indexed": true,
          "internalType": "address",
          "name": "previousOwner",
          "type": "address"
        },
        {
          "indexed": true,
          "internalType": "address",
          "name": "newOwner",
          "type": "address"
        }
      ],
      "name": "OwnershipTransferred",
      "type": "event"
    },
    {
      "anonymous": false,
      "inputs": [
        {
          "indexed": true,
          "internalType": "address",
          "name": "from",
          "type": "address"
        },
        {
          "indexed": true,
          "internalType": "address",
          "name": "to",
          "type": "address"
        },
        {
          "indexed": false,
          "internalType": "uint256",
          "name": "value",
          "type": "uint256"
        }
      ],
      "name": "Transfer",
      "type": "event"
    },
    {
      "anonymous": false,
      "inputs": [
        {
          "indexed": false,
          "internalType": "address",
          "name": "replacement",
          "type": "address"
        }
      ],
      "name": "VaultSunset",
      "type": "event"
    },
    {
      "anonymous": false,
      "inputs": [
        {
          "indexed": true,
          "internalType": "address",
          "name": "account",
          "type": "address"
        },
        {
          "indexed": false,
          "internalType": "uint256",
          "name": "amount",
          "type": "uint256"
        },
        {
          "indexed": false,
          "internalType": "uint256",
          "name": "share",
          "type": "uint256"
        },
        {
          "indexed": false,
          "internalType": "uint256",
          "name": "fee",
          "type": "uint256"
        }
      ],
      "name": "Withdraw",
      "type": "event"
    },
    {
      "anonymous": false,
      "inputs": [
        {
          "indexed": false,
          "internalType": "address",
          "name": "account",
          "type": "address"
        },
        {
          "indexed": false,
          "internalType": "uint256",
          "name": "oldShares",
          "type": "uint256"
        },
        {
          "indexed": false,
          "internalType": "address",
          "name": "to",
          "type": "address"
        },
        {
          "indexed": false,
          "internalType": "uint256",
          "name": "newShares",
          "type": "uint256"
        }
      ],
      "name": "WithdrawToV1Vault",
      "type": "event"
    },
    {
      "anonymous": false,
      "inputs": [
        {
          "indexed": false,
          "internalType": "uint256",
          "name": "oldFee",
          "type": "uint256"
        },
        {
          "indexed": false,
          "internalType": "uint256",
          "name": "newFee",
          "type": "uint256"
        }
      ],
      "name": "WithdrawalFeeSet",
      "type": "event"
    },
    {
      "inputs": [],
      "name": "MINIMUM_SUPPLY",
      "outputs": [
        {
          "internalType": "uint256",
          "name": "",
          "type": "uint256"
        }
      ],
      "stateMutability": "view",
      "type": "function"
    },
    {
      "inputs": [],
      "name": "SWAP_CONTRACT",
      "outputs": [
        {
          "internalType": "contract ISwap",
          "name": "",
          "type": "address"
        }
      ],
      "stateMutability": "view",
      "type": "function"
    },
    {
      "inputs": [],
      "name": "USDC",
      "outputs": [
        {
          "internalType": "address",
          "name": "",
          "type": "address"
        }
      ],
      "stateMutability": "view",
      "type": "function"
    },
    {
      "inputs": [],
      "name": "WETH",
      "outputs": [
        {
          "internalType": "address",
          "name": "",
          "type": "address"
        }
      ],
      "stateMutability": "view",
      "type": "function"
    },
    {
      "inputs": [
        {
          "internalType": "address",
          "name": "account",
          "type": "address"
        }
      ],
      "name": "accountVaultBalance",
      "outputs": [
        {
          "internalType": "uint256",
          "name": "",
          "type": "uint256"
        }
      ],
      "stateMutability": "view",
      "type": "function"
    },
    {
      "inputs": [],
      "name": "adapter",
      "outputs": [
        {
          "internalType": "contract IProtocolAdapter",
          "name": "",
          "type": "address"
        }
      ],
      "stateMutability": "view",
      "type": "function"
    },
    {
      "inputs": [
        {
          "internalType": "address",
          "name": "owner",
          "type": "address"
        },
        {
          "internalType": "address",
          "name": "spender",
          "type": "address"
        }
      ],
      "name": "allowance",
      "outputs": [
        {
          "internalType": "uint256",
          "name": "",
          "type": "uint256"
        }
      ],
      "stateMutability": "view",
      "type": "function"
    },
    {
      "inputs": [
        {
          "internalType": "address",
          "name": "spender",
          "type": "address"
        },
        {
          "internalType": "uint256",
          "name": "amount",
          "type": "uint256"
        }
      ],
      "name": "approve",
      "outputs": [
        {
          "internalType": "bool",
          "name": "",
          "type": "bool"
        }
      ],
      "stateMutability": "nonpayable",
      "type": "function"
    },
    {
      "inputs": [],
      "name": "asset",
      "outputs": [
        {
          "internalType": "address",
          "name": "",
          "type": "address"
        }
      ],
      "stateMutability": "view",
      "type": "function"
    },
    {
      "inputs": [
        {
          "internalType": "uint256",
          "name": "assetAmount",
          "type": "uint256"
        }
      ],
      "name": "assetAmountToShares",
      "outputs": [
        {
          "internalType": "uint256",
          "name": "",
          "type": "uint256"
        }
      ],
      "stateMutability": "view",
      "type": "function"
    },
    {
      "inputs": [],
      "name": "assetBalance",
      "outputs": [
        {
          "internalType": "uint256",
          "name": "",
          "type": "uint256"
        }
      ],
      "stateMutability": "view",
      "type": "function"
    },
    {
      "inputs": [
        {
          "internalType": "address",
          "name": "account",
          "type": "address"
        }
      ],
      "name": "balanceOf",
      "outputs": [
        {
          "internalType": "uint256",
          "name": "",
          "type": "uint256"
        }
      ],
      "stateMutability": "view",
      "type": "function"
    },
    {
      "inputs": [],
      "name": "cap",
      "outputs": [
        {
          "internalType": "uint256",
          "name": "",
          "type": "uint256"
        }
      ],
      "stateMutability": "view",
      "type": "function"
    },
    {
      "inputs": [],
      "name": "closeShort",
      "outputs": [],
      "stateMutability": "nonpayable",
      "type": "function"
    },
    {
      "inputs": [
        {
          "components": [
            {
              "internalType": "address",
              "name": "underlying",
              "type": "address"
            },
            {
              "internalType": "address",
              "name": "strikeAsset",
              "type": "address"
            },
            {
              "internalType": "address",
              "name": "collateralAsset",
              "type": "address"
            },
            {
              "internalType": "uint256",
              "name": "expiry",
              "type": "uint256"
            },
            {
              "internalType": "uint256",
              "name": "strikePrice",
              "type": "uint256"
            },
            {
              "internalType": "enum ProtocolAdapterTypes.OptionType",
              "name": "optionType",
              "type": "uint8"
            },
            {
              "internalType": "address",
              "name": "paymentToken",
              "type": "address"
            }
          ],
          "internalType": "struct ProtocolAdapterTypes.OptionTerms",
          "name": "optionTerms",
          "type": "tuple"
        }
      ],
      "name": "commitAndClose",
      "outputs": [],
      "stateMutability": "nonpayable",
      "type": "function"
    },
    {
      "inputs": [],
      "name": "currentOption",
      "outputs": [
        {
          "internalType": "address",
          "name": "",
          "type": "address"
        }
      ],
      "stateMutability": "view",
      "type": "function"
    },
    {
      "inputs": [],
      "name": "currentOptionExpiry",
      "outputs": [
        {
          "internalType": "uint256",
          "name": "",
          "type": "uint256"
        }
      ],
      "stateMutability": "view",
      "type": "function"
    },
    {
      "inputs": [],
      "name": "decimals",
      "outputs": [
        {
          "internalType": "uint8",
          "name": "",
          "type": "uint8"
        }
      ],
      "stateMutability": "view",
      "type": "function"
    },
    {
      "inputs": [
        {
          "internalType": "address",
          "name": "spender",
          "type": "address"
        },
        {
          "internalType": "uint256",
          "name": "subtractedValue",
          "type": "uint256"
        }
      ],
      "name": "decreaseAllowance",
      "outputs": [
        {
          "internalType": "bool",
          "name": "",
          "type": "bool"
        }
      ],
      "stateMutability": "nonpayable",
      "type": "function"
    },
    {
      "inputs": [],
      "name": "delay",
      "outputs": [
        {
          "internalType": "uint256",
          "name": "",
          "type": "uint256"
        }
      ],
      "stateMutability": "view",
      "type": "function"
    },
    {
      "inputs": [
        {
          "internalType": "uint256",
          "name": "amount",
          "type": "uint256"
        }
      ],
      "name": "deposit",
      "outputs": [],
      "stateMutability": "nonpayable",
      "type": "function"
    },
    {
      "inputs": [],
      "name": "depositETH",
      "outputs": [],
      "stateMutability": "payable",
      "type": "function"
    },
    {
      "inputs": [],
      "name": "emergencyWithdrawFromShort",
      "outputs": [],
      "stateMutability": "nonpayable",
      "type": "function"
    },
    {
      "inputs": [],
      "name": "feeRecipient",
      "outputs": [
        {
          "internalType": "address",
          "name": "",
          "type": "address"
        }
      ],
      "stateMutability": "view",
      "type": "function"
    },
    {
      "inputs": [
        {
          "internalType": "address",
          "name": "spender",
          "type": "address"
        },
        {
          "internalType": "uint256",
          "name": "addedValue",
          "type": "uint256"
        }
      ],
      "name": "increaseAllowance",
      "outputs": [
        {
          "internalType": "bool",
          "name": "",
          "type": "bool"
        }
      ],
      "stateMutability": "nonpayable",
      "type": "function"
    },
    {
      "inputs": [
        {
          "internalType": "address",
          "name": "_owner",
          "type": "address"
        },
        {
          "internalType": "address",
          "name": "_feeRecipient",
          "type": "address"
        },
        {
          "internalType": "uint256",
          "name": "_initCap",
          "type": "uint256"
        },
        {
          "internalType": "string",
          "name": "_tokenName",
          "type": "string"
        },
        {
          "internalType": "string",
          "name": "_tokenSymbol",
          "type": "string"
        }
      ],
      "name": "initialize",
      "outputs": [],
      "stateMutability": "nonpayable",
      "type": "function"
    },
    {
      "inputs": [],
      "name": "instantWithdrawalFee",
      "outputs": [
        {
          "internalType": "uint256",
          "name": "",
          "type": "uint256"
        }
      ],
      "stateMutability": "view",
      "type": "function"
    },
    {
      "inputs": [],
      "name": "isPut",
      "outputs": [
        {
          "internalType": "bool",
          "name": "",
          "type": "bool"
        }
      ],
      "stateMutability": "view",
      "type": "function"
    },
    {
      "inputs": [],
      "name": "lockedAmount",
      "outputs": [
        {
          "internalType": "uint256",
          "name": "",
          "type": "uint256"
        }
      ],
      "stateMutability": "view",
      "type": "function"
    },
    {
      "inputs": [],
      "name": "lockedRatio",
      "outputs": [
        {
          "internalType": "uint256",
          "name": "",
          "type": "uint256"
        }
      ],
      "stateMutability": "view",
      "type": "function"
    },
    {
      "inputs": [],
      "name": "manager",
      "outputs": [
        {
          "internalType": "address",
          "name": "",
          "type": "address"
        }
      ],
      "stateMutability": "view",
      "type": "function"
    },
    {
      "inputs": [
        {
          "internalType": "address",
          "name": "account",
          "type": "address"
        }
      ],
      "name": "maxWithdrawAmount",
      "outputs": [
        {
          "internalType": "uint256",
          "name": "",
          "type": "uint256"
        }
      ],
      "stateMutability": "view",
      "type": "function"
    },
    {
      "inputs": [],
      "name": "maxWithdrawableShares",
      "outputs": [
        {
          "internalType": "uint256",
          "name": "",
          "type": "uint256"
        }
      ],
      "stateMutability": "view",
      "type": "function"
    },
    {
      "inputs": [],
      "name": "migrate",
      "outputs": [],
      "stateMutability": "nonpayable",
      "type": "function"
    },
    {
      "inputs": [],
      "name": "name",
      "outputs": [
        {
          "internalType": "string",
          "name": "",
          "type": "string"
        }
      ],
      "stateMutability": "view",
      "type": "function"
    },
    {
      "inputs": [],
      "name": "nextOption",
      "outputs": [
        {
          "internalType": "address",
          "name": "",
          "type": "address"
        }
      ],
      "stateMutability": "view",
      "type": "function"
    },
    {
      "inputs": [],
      "name": "nextOptionReadyAt",
      "outputs": [
        {
          "internalType": "uint256",
          "name": "",
          "type": "uint256"
        }
      ],
      "stateMutability": "view",
      "type": "function"
    },
    {
      "inputs": [],
      "name": "owner",
      "outputs": [
        {
          "internalType": "address",
          "name": "",
          "type": "address"
        }
      ],
      "stateMutability": "view",
      "type": "function"
    },
    {
      "inputs": [],
      "name": "registry",
      "outputs": [
        {
          "internalType": "contract IVaultRegistry",
          "name": "",
          "type": "address"
        }
      ],
      "stateMutability": "view",
      "type": "function"
    },
    {
      "inputs": [],
      "name": "renounceOwnership",
      "outputs": [],
      "stateMutability": "nonpayable",
      "type": "function"
    },
    {
      "inputs": [],
      "name": "replacementVault",
      "outputs": [
        {
          "internalType": "contract IRibbonV2Vault",
          "name": "",
          "type": "address"
        }
      ],
      "stateMutability": "view",
      "type": "function"
    },
    {
      "inputs": [],
      "name": "rollToNextOption",
      "outputs": [],
      "stateMutability": "nonpayable",
      "type": "function"
    },
    {
      "inputs": [
        {
          "components": [
            {
              "internalType": "uint256",
              "name": "nonce",
              "type": "uint256"
            },
            {
              "internalType": "uint256",
              "name": "expiry",
              "type": "uint256"
            },
            {
              "components": [
                {
                  "internalType": "bytes4",
                  "name": "kind",
                  "type": "bytes4"
                },
                {
                  "internalType": "address",
                  "name": "wallet",
                  "type": "address"
                },
                {
                  "internalType": "address",
                  "name": "token",
                  "type": "address"
                },
                {
                  "internalType": "uint256",
                  "name": "amount",
                  "type": "uint256"
                },
                {
                  "internalType": "uint256",
                  "name": "id",
                  "type": "uint256"
                }
              ],
              "internalType": "struct Types.Party",
              "name": "signer",
              "type": "tuple"
            },
            {
              "components": [
                {
                  "internalType": "bytes4",
                  "name": "kind",
                  "type": "bytes4"
                },
                {
                  "internalType": "address",
                  "name": "wallet",
                  "type": "address"
                },
                {
                  "internalType": "address",
                  "name": "token",
                  "type": "address"
                },
                {
                  "internalType": "uint256",
                  "name": "amount",
                  "type": "uint256"
                },
                {
                  "internalType": "uint256",
                  "name": "id",
                  "type": "uint256"
                }
              ],
              "internalType": "struct Types.Party",
              "name": "sender",
              "type": "tuple"
            },
            {
              "components": [
                {
                  "internalType": "bytes4",
                  "name": "kind",
                  "type": "bytes4"
                },
                {
                  "internalType": "address",
                  "name": "wallet",
                  "type": "address"
                },
                {
                  "internalType": "address",
                  "name": "token",
                  "type": "address"
                },
                {
                  "internalType": "uint256",
                  "name": "amount",
                  "type": "uint256"
                },
                {
                  "internalType": "uint256",
                  "name": "id",
                  "type": "uint256"
                }
              ],
              "internalType": "struct Types.Party",
              "name": "affiliate",
              "type": "tuple"
            },
            {
              "components": [
                {
                  "internalType": "address",
                  "name": "signatory",
                  "type": "address"
                },
                {
                  "internalType": "address",
                  "name": "validator",
                  "type": "address"
                },
                {
                  "internalType": "bytes1",
                  "name": "version",
                  "type": "bytes1"
                },
                {
                  "internalType": "uint8",
                  "name": "v",
                  "type": "uint8"
                },
                {
                  "internalType": "bytes32",
                  "name": "r",
                  "type": "bytes32"
                },
                {
                  "internalType": "bytes32",
                  "name": "s",
                  "type": "bytes32"
                }
              ],
              "internalType": "struct Types.Signature",
              "name": "signature",
              "type": "tuple"
            }
          ],
          "internalType": "struct Types.Order",
          "name": "order",
          "type": "tuple"
        }
      ],
      "name": "sellOptions",
      "outputs": [],
      "stateMutability": "nonpayable",
      "type": "function"
    },
    {
      "inputs": [
        {
          "internalType": "uint256",
          "name": "newCap",
          "type": "uint256"
        }
      ],
      "name": "setCap",
      "outputs": [],
      "stateMutability": "nonpayable",
      "type": "function"
    },
    {
      "inputs": [
        {
          "internalType": "address",
          "name": "newFeeRecipient",
          "type": "address"
        }
      ],
      "name": "setFeeRecipient",
      "outputs": [],
      "stateMutability": "nonpayable",
      "type": "function"
    },
    {
      "inputs": [
        {
          "internalType": "address",
          "name": "newManager",
          "type": "address"
        }
      ],
      "name": "setManager",
      "outputs": [],
      "stateMutability": "nonpayable",
      "type": "function"
    },
    {
      "inputs": [
        {
          "internalType": "uint256",
          "name": "newWithdrawalFee",
          "type": "uint256"
        }
      ],
      "name": "setWithdrawalFee",
      "outputs": [],
      "stateMutability": "nonpayable",
      "type": "function"
    },
    {
      "inputs": [
        {
          "internalType": "address",
          "name": "upgradeTo",
          "type": "address"
        }
      ],
      "name": "sunset",
      "outputs": [],
      "stateMutability": "nonpayable",
      "type": "function"
    },
    {
      "inputs": [],
      "name": "symbol",
      "outputs": [
        {
          "internalType": "string",
          "name": "",
          "type": "string"
        }
      ],
      "stateMutability": "view",
      "type": "function"
    },
    {
      "inputs": [],
      "name": "totalBalance",
      "outputs": [
        {
          "internalType": "uint256",
          "name": "",
          "type": "uint256"
        }
      ],
      "stateMutability": "view",
      "type": "function"
    },
    {
      "inputs": [],
      "name": "totalSupply",
      "outputs": [
        {
          "internalType": "uint256",
          "name": "",
          "type": "uint256"
        }
      ],
      "stateMutability": "view",
      "type": "function"
    },
    {
      "inputs": [
        {
          "internalType": "address",
          "name": "recipient",
          "type": "address"
        },
        {
          "internalType": "uint256",
          "name": "amount",
          "type": "uint256"
        }
      ],
      "name": "transfer",
      "outputs": [
        {
          "internalType": "bool",
          "name": "",
          "type": "bool"
        }
      ],
      "stateMutability": "nonpayable",
      "type": "function"
    },
    {
      "inputs": [
        {
          "internalType": "address",
          "name": "sender",
          "type": "address"
        },
        {
          "internalType": "address",
          "name": "recipient",
          "type": "address"
        },
        {
          "internalType": "uint256",
          "name": "amount",
          "type": "uint256"
        }
      ],
      "name": "transferFrom",
      "outputs": [
        {
          "internalType": "bool",
          "name": "",
          "type": "bool"
        }
      ],
      "stateMutability": "nonpayable",
      "type": "function"
    },
    {
      "inputs": [
        {
          "internalType": "address",
          "name": "newOwner",
          "type": "address"
        }
      ],
      "name": "transferOwnership",
      "outputs": [],
      "stateMutability": "nonpayable",
      "type": "function"
    },
    {
      "inputs": [],
      "name": "underlying",
      "outputs": [
        {
          "internalType": "address",
          "name": "",
          "type": "address"
        }
      ],
      "stateMutability": "view",
      "type": "function"
    },
    {
      "inputs": [
        {
          "internalType": "uint256",
          "name": "share",
          "type": "uint256"
        }
      ],
      "name": "withdraw",
      "outputs": [],
      "stateMutability": "nonpayable",
      "type": "function"
    },
    {
      "inputs": [
        {
          "internalType": "uint256",
          "name": "share",
          "type": "uint256"
        }
      ],
      "name": "withdrawAmountWithShares",
      "outputs": [
        {
          "internalType": "uint256",
          "name": "amountAfterFee",
          "type": "uint256"
        },
        {
          "internalType": "uint256",
          "name": "feeAmount",
          "type": "uint256"
        }
      ],
      "stateMutability": "view",
      "type": "function"
    },
    {
      "inputs": [
        {
          "internalType": "uint256",
          "name": "share",
          "type": "uint256"
        }
      ],
      "name": "withdrawETH",
      "outputs": [],
      "stateMutability": "nonpayable",
      "type": "function"
    },
    {
      "inputs": [
        {
          "internalType": "uint256",
          "name": "share",
          "type": "uint256"
        },
        {
          "internalType": "address",
          "name": "vault",
          "type": "address"
        }
      ],
      "name": "withdrawToV1Vault",
      "outputs": [],
      "stateMutability": "nonpayable",
      "type": "function"
    }
  ],
  "transactionHash": "0x9c67e3f08895164b5a2a44554148d0dfbe54ed0f14a00a369db68b3136740362",
  "args": [
    "0xb31f66aa3c1e785363f0875a1b74e27b85fd66c7",
    "0xBf0ab9069657875703038feB315D32baD8f111c3",
    "0x15f6B47C458AB521F2Ba89996900956Bda7e8c34",
    "0xb31f66aa3c1e785363f0875a1b74e27b85fd66c7",
    "0xA7D7079b0FEaD91F3e65f86E8915Cb59c1a4C664",
    "0x0000000000000000000000000000000000000001",
    18,
    "10000000000",
    false
  ],
  "numDeployments": 1,
  "solcInputHash": "509259907dca738bc5a20f06a9681697",
  "bytecode": "0x6101c06040523480156200001257600080fd5b50604051620059df380380620059df833981016040819052620000359162000327565b6001600160a01b038916620000675760405162461bcd60e51b81526004016200005e9062000485565b60405180910390fd5b6001600160a01b038816620000905760405162461bcd60e51b81526004016200005e9062000564565b6001600160a01b038716620000b95760405162461bcd60e51b81526004016200005e90620004f7565b6001600160a01b038616620000e25760405162461bcd60e51b81526004016200005e906200043c565b6001600160a01b0385166200010b5760405162461bcd60e51b81526004016200005e906200051b565b6001600160a01b038416620001345760405162461bcd60e51b81526004016200005e90620004cf565b60008360ff16116200015a5760405162461bcd60e51b81526004016200005e906200045c565b600082116200017d5760405162461bcd60e51b81526004016200005e90620004a6565b604080518082018252600a8152694f50594e5f47414d4d4160b01b60208201529051635e26110960e11b815289916000916001600160a01b0384169163bc4c221291620001ce9190600401620003e6565b60206040518083038186803b158015620001e757600080fd5b505afa158015620001fc573d6000803e3d6000fd5b505050506040513d601f19601f8201168201806040525081019062000222919062000303565b90506001600160a01b0381166200024d5760405162461bcd60e51b81526004016200005e906200053b565b826200025a578a6200025c565b865b6001600160601b0319606091821b811660c0529b811b8c1660e05290811b8b1660805297881b8a1660a0525094861b88166101005292851b871661012052931b909416610180527fff0000000000000000000000000000000000000000000000000000000000000060f892831b16610160526101a09390935291151590911b610140525062000587565b80516001600160a01b0381168114620002fe57600080fd5b919050565b60006020828403121562000315578081fd5b6200032082620002e6565b9392505050565b60008060008060008060008060006101208a8c03121562000346578485fd5b620003518a620002e6565b98506200036160208b01620002e6565b97506200037160408b01620002e6565b96506200038160608b01620002e6565b95506200039160808b01620002e6565b9450620003a160a08b01620002e6565b935060c08a015160ff81168114620003b7578384fd5b60e08b01516101008c015191945092508015158114620003d5578182fd5b809150509295985092959850929598565b6000602080835283518082850152825b818110156200041457858101830151858201604001528201620003f6565b81811115620004265783604083870101525b50601f01601f1916929092016040019392505050565b602080825260069082015265042beeecae8d60d31b604082015260600190565b6020808252600f908201526e215f746f6b656e446563696d616c7360881b604082015260600190565b6020808252600790820152660857d85cdcd95d60ca1b604082015260600190565b6020808252600f908201526e215f6d696e696d756d537570706c7960881b604082015260600190565b6020808252600e908201526d0857dcddd85c10dbdb9d1c9858dd60921b604082015260600190565b6020808252600a9082015269215f726567697374727960b01b604082015260600190565b602080825260069082015265215f7573646360d01b604082015260600190565b6020808252600f908201526e1059185c1d195c881b9bdd081cd95d608a1b604082015260600190565b602080825260099082015268215f666163746f727960b81b604082015260600190565b60805160601c60a05160601c60c05160601c60e05160601c6101005160601c6101205160601c6101405160f81c6101605160f81c6101805160601c6101a051615326620006b960003980610e925280611807528061184752806123b05280612fa05280613019525080610e205280611c5e5280611db7525080610ba1525080611bd1528061222452806131c85280613333525080610fae5280611a28528061356852508061168c5280611fdf528061207552806122735280612304525080610ec252806133e6525080610b705280610bcb5280610db352806110d752806116b552806117895280611d305280612009528061229d52806125665280612a6752806134a7525080610f8a52806124a35250806109bf5280611c1d528061276b528061327f52806137b052506153266000f3fe60806040526004361061038c5760003560e01c80639ab8367e116101dc578063c66f245511610102578063f14210a6116100a0578063f6bca1201161006f578063f6bca1201461095e578063f8432a1b14610973578063f870316f14610988578063faec2233146109a85761038c565b8063f14210a614610901578063f2fde38b14610921578063f3c274a614610941578063f6326fb3146109565761038c565b8063dc7900f7116100dc578063dc7900f71461088c578063dd62ed3e146108ac578063de2fbaba146108cc578063e74b981b146108e15761038c565b8063c66f245514610842578063cf3afa5114610857578063d0ebdbe71461086c5761038c565b8063aa7ebfe11161017a578063b6b55f2511610149578063b6b55f25146107bf578063b81f2853146107df578063b9f8092b1461080d578063ba3f6bd8146108225761038c565b8063aa7ebfe114610755578063ac1e502514610775578063ad5c464814610795578063ad7a672f146107aa5761038c565b8063a2db9d83116101b6578063a2db9d83146106eb578063a457c2d714610700578063a8e0bcec14610720578063a9059cbb146107355761038c565b80639ab8367e146106965780639ec7aaad146106b6578063a285c9e8146106d65761038c565b8063481c6a75116102c157806370a082311161025f5780638b10cc7c1161022e5780638b10cc7c146106425780638da5cb5b146106575780638fd3ab801461066c57806395d89b41146106815761038c565b806370a08231146105e3578063715018a6146106035780637b1039991461061857806389a302711461062d5761038c565b80636a56e0461161029b5780636a56e0461461058f5780636ab28bc8146105a45780636b34128c146105b95780636f307dc3146105ce5761038c565b8063481c6a7514610545578063538130bd1461055a5780636a42b8f81461057a5761038c565b8063355274ea1161032e5780633e52583d116103085780633e52583d146104db5780633f23bb73146104f0578063469048401461051057806347786d37146105255761038c565b8063355274ea1461049157806338d52e0f146104a657806339509351146104bb5761038c565b806318160ddd1161036a57806318160ddd1461040b57806323b872dd1461042d5780632e1a7d4d1461044d578063313ce5671461046f5761038c565b806303eadcfc1461039157806306fdde03146103bc578063095ea7b3146103de575b600080fd5b34801561039d57600080fd5b506103a66109bd565b6040516103b39190614345565b60405180910390f35b3480156103c857600080fd5b506103d16109e1565b6040516103b3919061440e565b3480156103ea57600080fd5b506103fe6103f9366004614133565b610a78565b6040516103b39190614403565b34801561041757600080fd5b50610420610a96565b6040516103b391906151a9565b34801561043957600080fd5b506103fe610448366004614057565b610a9c565b34801561045957600080fd5b5061046d61046836600461424e565b610b24565b005b34801561047b57600080fd5b50610484610b9f565b6040516103b3919061520c565b34801561049d57600080fd5b50610420610bc3565b3480156104b257600080fd5b506103a6610bc9565b3480156104c757600080fd5b506103fe6104d6366004614133565b610bed565b3480156104e757600080fd5b506103a6610c3b565b3480156104fc57600080fd5b5061042061050b366004613fe7565b610c4a565b34801561051c57600080fd5b506103a6610c72565b34801561053157600080fd5b5061046d61054036600461424e565b610c81565b34801561055157600080fd5b506103a6610cf3565b34801561056657600080fd5b5061046d61057536600461423c565b610d02565b34801561058657600080fd5b50610420610e8a565b34801561059b57600080fd5b50610420610e90565b3480156105b057600080fd5b50610420610eb4565b3480156105c557600080fd5b50610420610eba565b3480156105da57600080fd5b506103a6610ec0565b3480156105ef57600080fd5b506104206105fe366004613fe7565b610ee4565b34801561060f57600080fd5b5061046d610eff565b34801561062457600080fd5b506103a6610f88565b34801561063957600080fd5b506103a6610fac565b34801561064e57600080fd5b506103a6610fd0565b34801561066357600080fd5b506103a6610fdf565b34801561067857600080fd5b5061046d610fee565b34801561068d57600080fd5b506103d161116a565b3480156106a257600080fd5b5061046d6106b1366004614097565b6111cb565b3480156106c257600080fd5b5061046d6106d1366004613fe7565b6113b2565b3480156106e257600080fd5b5061042061146d565b3480156106f757600080fd5b506103a6611473565b34801561070c57600080fd5b506103fe61071b366004614133565b611482565b34801561072c57600080fd5b506104206114ea565b34801561074157600080fd5b506103fe610750366004614133565b61158d565b34801561076157600080fd5b5061042061077036600461424e565b6115a1565b34801561078157600080fd5b5061046d61079036600461424e565b6115d6565b3480156107a157600080fd5b506103a661168a565b3480156107b657600080fd5b506104206116ae565b3480156107cb57600080fd5b5061046d6107da36600461424e565b611754565b3480156107eb57600080fd5b506107ff6107fa36600461424e565b6117c1565b6040516103b39291906151c9565b34801561081957600080fd5b5061046d6118a8565b34801561082e57600080fd5b5061042061083d366004613fe7565b611cd3565b34801561084e57600080fd5b50610420611d16565b34801561086357600080fd5b506103a6611db5565b34801561087857600080fd5b5061046d610887366004613fe7565b611dd9565b34801561089857600080fd5b5061046d6108a7366004614225565b611e91565b3480156108b857600080fd5b506104206108c736600461401f565b611ef4565b3480156108d857600080fd5b50610420611f1f565b3480156108ed57600080fd5b5061046d6108fc366004613fe7565b611f2b565b34801561090d57600080fd5b5061046d61091c36600461424e565b611fb2565b34801561092d57600080fd5b5061046d61093c366004613fe7565b612161565b34801561094d57600080fd5b506103fe612222565b61046d612246565b34801561096a57600080fd5b50610420612385565b34801561097f57600080fd5b5061046d6123eb565b34801561099457600080fd5b5061046d6109a336600461427e565b61241b565b3480156109b457600080fd5b5061046d6126c8565b7f000000000000000000000000000000000000000000000000000000000000000081565b609a8054604080516020601f6002600019610100600188161502019095169490940493840181900481028201810190925282815260609390929091830182828015610a6d5780601f10610a4257610100808354040283529160200191610a6d565b820191906000526020600020905b815481529060010190602001808311610a5057829003601f168201915b505050505090505b90565b6000610a8c610a856127e5565b84846127e9565b5060015b92915050565b60995490565b6000610aa984848461289d565b610b1984610ab56127e5565b610b14856040518060600160405280602881526020016152a4602891396001600160a01b038a16600090815260986020526040812090610af36127e5565b6001600160a01b0316815260208101919091526040016000205491906129b2565b6127e9565b5060015b9392505050565b60026001541415610b505760405162461bcd60e51b8152600401610b4790614e43565b60405180910390fd5b60026001556000610b6182826129de565b9050610b976001600160a01b037f0000000000000000000000000000000000000000000000000000000000000000163383612a98565b505060018055565b7f000000000000000000000000000000000000000000000000000000000000000090565b60cf5481565b7f000000000000000000000000000000000000000000000000000000000000000081565b6000610a8c610bfa6127e5565b84610b148560986000610c0b6127e5565b6001600160a01b03908116825260208083019390935260409182016000908120918c168152925290205490612af3565b60d4546001600160a01b031681565b600080610c66610c5984610ee4565b610c61611d16565b612b18565b5090925050505b919050565b60d1546001600160a01b031681565b60ca546001600160a01b03163314610cab5760405162461bcd60e51b8152600401610b47906149d4565b60cf8054908290556040517f0e45875b8819e52adac9df2787285bc765235018d84ab492668edfcf944628c490610ce7908390859033906151d7565b60405180910390a15050565b60ca546001600160a01b031681565b60ca546001600160a01b03163314610d2c5760405162461bcd60e51b8152600401610b47906149d4565b30610d3f61012083016101008401613fe7565b6001600160a01b031614610d655760405162461bcd60e51b8152600401610b4790614514565b60cd546001600160a01b0316610d8361014083016101208401613fe7565b6001600160a01b031614610da95760405162461bcd60e51b8152600401610b4790614731565b6001600160a01b037f000000000000000000000000000000000000000000000000000000000000000016610de360a0830160808401613fe7565b6001600160a01b031614610e095760405162461bcd60e51b8152600401610b4790614d1e565b6040516367641c2f60e01b81526001600160a01b037f000000000000000000000000000000000000000000000000000000000000000016906367641c2f90610e559084906004016150c7565b600060405180830381600087803b158015610e6f57600080fd5b505af1158015610e83573d6000803e3d6000fd5b5050505050565b610e1081565b7f000000000000000000000000000000000000000000000000000000000000000081565b60ce5481565b60d05481565b7f000000000000000000000000000000000000000000000000000000000000000081565b6001600160a01b031660009081526097602052604090205490565b610f076127e5565b6001600160a01b0316610f18610fdf565b6001600160a01b031614610f3e5760405162461bcd60e51b8152600401610b47906149fa565b6065546040516000916001600160a01b0316907f8be0079c531659141344cd1fd0a4f28419497f9722a3daafe3b4186f6b6457e0908390a3606580546001600160a01b0319169055565b7f000000000000000000000000000000000000000000000000000000000000000081565b7f000000000000000000000000000000000000000000000000000000000000000081565b60cd546001600160a01b031681565b6065546001600160a01b031690565b600260015414156110115760405162461bcd60e51b8152600401610b4790614e43565b600260015560d4546001600160a01b03168061103f5760405162461bcd60e51b8152600401610b4790614a66565b6000611049612385565b9050600061105633610ee4565b905060006110648383612b72565b9050600080611072836117c1565b90925090506110818282612af3565b91507fd616b8856fa5febbdb06f07dd8d624380d02864619f3b796002f43bc36a4d1bc338785856040516110b89493929190614359565b60405180910390a16110ca3384612b89565b6110fe6001600160a01b037f0000000000000000000000000000000000000000000000000000000000000000168784612c6b565b6040516336efd16f60e01b81526001600160a01b038716906336efd16f9061112c90859033906004016151b2565b600060405180830381600087803b15801561114657600080fd5b505af115801561115a573d6000803e3d6000fd5b5050600180555050505050505050565b609b8054604080516020601f6002600019610100600188161502019095169490940493840181900481028201810190925282815260609390929091830182828015610a6d5780601f10610a4257610100808354040283529160200191610a6d565b600054610100900460ff16806111e457506111e4612d2e565b806111f2575060005460ff16155b61120e5760405162461bcd60e51b8152600401610b4790614904565b600054610100900460ff16158015611239576000805460ff1961ff0019909116610100171660011790555b6001600160a01b03881661125f5760405162461bcd60e51b8152600401610b4790614952565b6001600160a01b0387166112855760405162461bcd60e51b8152600401610b4790614b8e565b600086116112a55760405162461bcd60e51b8152600401610b4790614f9e565b836112c25760405162461bcd60e51b8152600401610b4790614707565b816112df5760405162461bcd60e51b8152600401610b4790614e7a565b6112e7612d3f565b61135a85858080601f01602080910402602001604051908101604052809392919081815260200183838082843760009201919091525050604080516020601f89018190048102820181019092528781529250879150869081908401838280828437600092019190915250612dca92505050565b611362612e60565b61136b88612161565b60cf8690556611c37937e0800060d05560d180546001600160a01b0319166001600160a01b03891617905580156113a8576000805461ff00191690555b5050505050505050565b6113ba6127e5565b6001600160a01b03166113cb610fdf565b6001600160a01b0316146113f15760405162461bcd60e51b8152600401610b47906149fa565b6001600160a01b0381166114175760405162461bcd60e51b8152600401610b4790614441565b60d480546001600160a01b0319166001600160a01b0383161790556040517f1f7dd14c4cfe82fd374c1bb5dfc3dd254b087a032c9dcfd13aeefa9f6689d86990611462908390614345565b60405180910390a150565b60cc5481565b60cb546001600160a01b031681565b6000610a8c61148f6127e5565b84610b14856040518060600160405280602581526020016152cc60259139609860006114b96127e5565b6001600160a01b03908116825260208083019390935260409182016000908120918d168152925290205491906129b2565b60cd546000906001600160a01b031680611508576000915050610a75565b60cd54604080516356f3715560e11b815290516001600160a01b0390921691829163ade6e2aa916004808301926020929190829003018186803b15801561154e57600080fd5b505afa158015611562573d6000803e3d6000fd5b505050506040513d601f19601f820116820180604052508101906115869190614266565b9250505090565b6000610a8c61159a6127e5565b848461289d565b6000806115b86115af611d16565b60ce5490612af3565b9050610b1d816115d06115c9610a96565b8690612ede565b90612f18565b60ca546001600160a01b031633146116005760405162461bcd60e51b8152600401610b47906149d4565b600081116116205760405162461bcd60e51b8152600401610b4790614ab3565b670429d069189e000081106116475760405162461bcd60e51b8152600401610b4790614d55565b60d0546040517f28a572c8c759d40c2d26dcdaaefd9650e9e37ff11ee147ce0f645cd7664048cb9061167c90839085906151c9565b60405180910390a15060d055565b7f000000000000000000000000000000000000000000000000000000000000000081565b600061174f7f00000000000000000000000000000000000000000000000000000000000000006001600160a01b03166370a08231306040518263ffffffff1660e01b81526004016116ff9190614345565b60206040518083038186803b15801561171757600080fd5b505afa15801561172b573d6000803e3d6000fd5b505050506040513d601f19601f820116820180604052508101906115af9190614266565b905090565b600260015414156117775760405162461bcd60e51b8152600401610b4790614e43565b60026001556117b16001600160a01b037f000000000000000000000000000000000000000000000000000000000000000016333084612f4a565b6117ba81612f71565b5060018055565b60008060006117ce611d16565b905060008060006117df8785612b18565b925092509250838311156118055760405162461bcd60e51b8152600401610b4790614efc565b7f00000000000000000000000000000000000000000000000000000000000000008110156118455760405162461bcd60e51b8152600401610b47906144dd565b7f00000000000000000000000000000000000000000000000000000000000000008210156118855760405162461bcd60e51b8152600401610b4790614cb0565b6118918360d0546130ad565b945061189d83866130da565b955050505050915091565b60ca546001600160a01b031633146118d25760405162461bcd60e51b8152600401610b47906149d4565b600260015414156118f55760405162461bcd60e51b8152600401610b4790614e43565b600260015560cc5442101561191c5760405162461bcd60e51b8152600401610b4790614a2f565b60cb546001600160a01b0316806119455760405162461bcd60e51b8152600401610b4790614a8a565b60cd80546001600160a01b0383166001600160a01b03199182161790915560cb805490911690556000611976611d16565b9050600061198c82670de0b6b3a76400006130ad565b60ce81905590508261199c613eb0565b6040518060e00160405280836001600160a01b0316637158da7c6040518163ffffffff1660e01b815260040160206040518083038186803b1580156119e057600080fd5b505afa1580156119f4573d6000803e3d6000fd5b505050506040513d601f19601f82011682018060405250810190611a189190614003565b6001600160a01b031681526020017f00000000000000000000000000000000000000000000000000000000000000006001600160a01b03168152602001836001600160a01b031663aabaecd66040518163ffffffff1660e01b815260040160206040518083038186803b158015611a8e57600080fd5b505afa158015611aa2573d6000803e3d6000fd5b505050506040513d601f19601f82011682018060405250810190611ac69190614003565b6001600160a01b03168152602001836001600160a01b031663ade6e2aa6040518163ffffffff1660e01b815260040160206040518083038186803b158015611b0d57600080fd5b505afa158015611b21573d6000803e3d6000fd5b505050506040513d601f19601f82011682018060405250810190611b459190614266565b8152602001611bca6402540be400856001600160a01b031663c52987cf6040518163ffffffff1660e01b815260040160206040518083038186803b158015611b8c57600080fd5b505afa158015611ba0573d6000803e3d6000fd5b505050506040513d601f19601f82011682018060405250810190611bc49190614266565b90612ede565b81526020017f0000000000000000000000000000000000000000000000000000000000000000611bfb576002611bfe565b60015b6002811115611c0957fe5b815260006020909101819052909150611c4c7f00000000000000000000000000000000000000000000000000000000000000006001600160a01b03168386613102565b905085611c836001600160a01b0382167f000000000000000000000000000000000000000000000000000000000000000084612c6b565b866001600160a01b03167f045c558fdce4714c5816d53820d27420f4cd860892df203fe636384d8d19aa018633604051611cbe9291906151b2565b60405180910390a25050600180555050505050565b600080611cde612385565b90506000611ceb84610ee4565b90506000611cf98383612b72565b90506000611d0982610c61611d16565b5090979650505050505050565b6040516370a0823160e01b81526000906001600160a01b037f000000000000000000000000000000000000000000000000000000000000000016906370a0823190611d65903090600401614345565b60206040518083038186803b158015611d7d57600080fd5b505afa158015611d91573d6000803e3d6000fd5b505050506040513d601f19601f8201168201806040525081019061174f9190614266565b7f000000000000000000000000000000000000000000000000000000000000000081565b611de16127e5565b6001600160a01b0316611df2610fdf565b6001600160a01b031614611e185760405162461bcd60e51b8152600401610b47906149fa565b6001600160a01b038116611e3e5760405162461bcd60e51b8152600401610b4790614788565b60ca80546001600160a01b038381166001600160a01b03198316179092556040519116907f605c2dbf762e5f7d60a546d42e7205dcb1b011ebc62a61736a57c9089d3a435090610ce790839085906143ac565b60ca546001600160a01b03163314611ebb5760405162461bcd60e51b8152600401610b47906149d4565b60026001541415611ede5760405162461bcd60e51b8152600401610b4790614e43565b6002600155611eec816131c6565b6117ba6136ef565b6001600160a01b03918216600090815260986020908152604080832093909416825291909152205490565b670de0b6b3a764000081565b611f336127e5565b6001600160a01b0316611f44610fdf565b6001600160a01b031614611f6a5760405162461bcd60e51b8152600401610b47906149fa565b6001600160a01b038116611f905760405162461bcd60e51b8152600401610b47906148bb565b60d180546001600160a01b0319166001600160a01b0392909216919091179055565b60026001541415611fd55760405162461bcd60e51b8152600401610b4790614e43565b60026001819055507f00000000000000000000000000000000000000000000000000000000000000006001600160a01b03167f00000000000000000000000000000000000000000000000000000000000000006001600160a01b03161461204e5760405162461bcd60e51b8152600401610b47906148e5565b600061205b8260006129de565b604051632e1a7d4d60e01b81529091506001600160a01b037f00000000000000000000000000000000000000000000000000000000000000001690632e1a7d4d906120aa9084906004016151a9565b600060405180830381600087803b1580156120c457600080fd5b505af11580156120d8573d6000803e3d6000fd5b505050506000336001600160a01b0316826040516120f590610a75565b60006040518083038185875af1925050503d8060008114612132576040519150601f19603f3d011682016040523d82523d6000602084013e612137565b606091505b50509050806121585760405162461bcd60e51b8152600401610b4790614c3f565b50506001805550565b6121696127e5565b6001600160a01b031661217a610fdf565b6001600160a01b0316146121a05760405162461bcd60e51b8152600401610b47906149fa565b6001600160a01b0381166121c65760405162461bcd60e51b8152600401610b47906145b5565b6065546040516001600160a01b038084169216907f8be0079c531659141344cd1fd0a4f28419497f9722a3daafe3b4186f6b6457e090600090a3606580546001600160a01b0319166001600160a01b0392909216919091179055565b7f000000000000000000000000000000000000000000000000000000000000000081565b600260015414156122695760405162461bcd60e51b8152600401610b4790614e43565b60026001819055507f00000000000000000000000000000000000000000000000000000000000000006001600160a01b03167f00000000000000000000000000000000000000000000000000000000000000006001600160a01b0316146122e25760405162461bcd60e51b8152600401610b4790614890565b600034116123025760405162461bcd60e51b8152600401610b4790614adf565b7f00000000000000000000000000000000000000000000000000000000000000006001600160a01b031663d0e30db0346040518263ffffffff1660e01b81526004016000604051808303818588803b15801561235d57600080fd5b505af1158015612371573d6000803e3d6000fd5b505050505061237f34612f71565b60018055565b600080612390611d16565b905060006123a98260ce54612af390919063ffffffff16565b90506115867f00000000000000000000000000000000000000000000000000000000000000006123e5836115d06123de610a96565b8790612ede565b906130da565b6002600154141561240e5760405162461bcd60e51b8152600401610b4790614e43565b600260015561237f6136ef565b6002600154141561243e5760405162461bcd60e51b8152600401610b4790614e43565b60026001556001600160a01b0381166124695760405162461bcd60e51b8152600401610b47906149b4565b600082116124895760405162461bcd60e51b8152600401610b4790614768565b604051635cae8ec160e11b81526000906001600160a01b037f0000000000000000000000000000000000000000000000000000000000000000169063b95d1d82906124da90309086906004016143ac565b602060405180830381600087803b1580156124f457600080fd5b505af1158015612508573d6000803e3d6000fd5b505050506040513d601f19601f8201168201806040525081019061252c919061415e565b90508061254b5760405162461bcd60e51b8152600401610b4790614bfa565b600061255784836129de565b905061258d6001600160a01b037f0000000000000000000000000000000000000000000000000000000000000000168483612c6b565b60405163b6b55f2560e01b81526001600160a01b0384169063b6b55f25906125b99084906004016151a9565b600060405180830381600087803b1580156125d357600080fd5b505af11580156125e7573d6000803e3d6000fd5b50506040516370a0823160e01b8152600092506001600160a01b03861691506370a082319061261a903090600401614345565b60206040518083038186803b15801561263257600080fd5b505afa158015612646573d6000803e3d6000fd5b505050506040513d601f19601f8201168201806040525081019061266a9190614266565b90506126806001600160a01b0385163383612a98565b7f5f90971df3fde05a0e16e7c8443c9355874849fd9420a20689f967e82cce1847338686846040516126b59493929190614382565b60405180910390a1505060018055505050565b60ca546001600160a01b031633146126f25760405162461bcd60e51b8152600401610b47906149d4565b600260015414156127155760405162461bcd60e51b8152600401610b4790614e43565b600260015560cd546001600160a01b0316806127435760405162461bcd60e51b8152600401610b4790614f3f565b60cd80546001600160a01b031990811690915560cb80549091169055600060ce8190556127987f00000000000000000000000000000000000000000000000000000000000000006001600160a01b0316613827565b9050816001600160a01b03167f7e830f7c1771deb1bdb35c4a7e6051bbac32b376f7f4e4976b8618b0b11997f782336040516127d59291906151b2565b60405180910390a2505060018055565b3390565b6001600160a01b03831661280f5760405162461bcd60e51b8152600401610b4790614c6c565b6001600160a01b0382166128355760405162461bcd60e51b8152600401610b47906145fb565b6001600160a01b0380841660008181526098602090815260408083209487168084529490915290819020849055517f8c5be1e5ebec7d5bd14f71427d1e84f3dd0314c0f7b2291e5b200ac8c7c3b925906128909085906151a9565b60405180910390a3505050565b6001600160a01b0383166128c35760405162461bcd60e51b8152600401610b4790614b49565b6001600160a01b0382166128e95760405162461bcd60e51b8152600401610b4790614465565b6128f4838383612aee565b6129318160405180606001604052806026815260200161527e602691396001600160a01b03861660009081526097602052604090205491906129b2565b6001600160a01b0380851660009081526097602052604080822093909355908416815220546129609082612af3565b6001600160a01b0380841660008181526097602052604090819020939093559151908516907fddf252ad1be2c89b69c2b068fc378daa952ba7f163c4a11628f55a4df523b3ef906128909085906151a9565b600081848411156129d65760405162461bcd60e51b8152600401610b47919061440e565b505050900390565b60008060006129ec856117c1565b915091508315612a0757612a008282612af3565b9150600090505b336001600160a01b03167f02f25270a4d87bea75db541cdfe559334a275b4a233520ed6c0a2429667cca94838784604051612a44939291906151f6565b60405180910390a2612a563386612b89565b60d154612a90906001600160a01b037f00000000000000000000000000000000000000000000000000000000000000008116911683612a98565b509392505050565b612aee8363a9059cbb60e01b8484604051602401612ab79291906143ea565b60408051601f198184030181529190526020810180516001600160e01b03166001600160e01b0319909316929092179091526138d9565b505050565b600082820183811015610b1d5760405162461bcd60e51b8152600401610b479061466b565b600080600080612b338560ce54612af390919063ffffffff16565b90506000612b3f610a96565b9050612b4f816115d08985612ede565b9450612b5b82866130da565b9350612b6781886130da565b925050509250925092565b600081831115612b825781610b1d565b5090919050565b6001600160a01b038216612baf5760405162461bcd60e51b8152600401610b4790614b08565b612bbb82600083612aee565b612bf88160405180606001604052806022815260200161525c602291396001600160a01b03851660009081526097602052604090205491906129b2565b6001600160a01b038316600090815260976020526040902055609954612c1e90826130da565b6099556040516000906001600160a01b038416907fddf252ad1be2c89b69c2b068fc378daa952ba7f163c4a11628f55a4df523b3ef90612c5f9085906151a9565b60405180910390a35050565b801580612cf35750604051636eb1769f60e11b81526001600160a01b0384169063dd62ed3e90612ca190309086906004016143ac565b60206040518083038186803b158015612cb957600080fd5b505afa158015612ccd573d6000803e3d6000fd5b505050506040513d601f19601f82011682018060405250810190612cf19190614266565b155b612d0f5760405162461bcd60e51b8152600401610b4790614ea6565b612aee8363095ea7b360e01b8484604051602401612ab79291906143ea565b6000612d3930613968565b15905090565b600054610100900460ff1680612d585750612d58612d2e565b80612d66575060005460ff16155b612d825760405162461bcd60e51b8152600401610b4790614904565b600054610100900460ff16158015612dad576000805460ff1961ff0019909116610100171660011790555b612db561396e565b8015612dc7576000805461ff00191690555b50565b600054610100900460ff1680612de35750612de3612d2e565b80612df1575060005460ff16155b612e0d5760405162461bcd60e51b8152600401610b4790614904565b600054610100900460ff16158015612e38576000805460ff1961ff0019909116610100171660011790555b612e406139f4565b612e4a8383613a75565b8015612aee576000805461ff0019169055505050565b600054610100900460ff1680612e795750612e79612d2e565b80612e87575060005460ff16155b612ea35760405162461bcd60e51b8152600401610b4790614904565b600054610100900460ff16158015612ece576000805460ff1961ff0019909116610100171660011790555b612ed66139f4565b612db5613b2e565b600082612eed57506000610a90565b82820282848281612efa57fe5b0414610b1d5760405162461bcd60e51b8152600401610b4790614973565b6000808211612f395760405162461bcd60e51b8152600401610b479061482a565b818381612f4257fe5b049392505050565b612f6b846323b872dd60e01b858585604051602401612ab7939291906143c6565b50505050565b6000612f7b6116ae565b905060cf548110612f9e5760405162461bcd60e51b8152600401610b4790614e1d565b7f0000000000000000000000000000000000000000000000000000000000000000811015612fde5760405162461bcd60e51b8152600401610b4790614cb0565b6000612fea82846130da565b90506000612ff6610a96565b9050600081156130135761300e836115d08785612ede565b613015565b845b90507f00000000000000000000000000000000000000000000000000000000000000006130428383612af3565b10156130605760405162461bcd60e51b8152600401610b47906144dd565b336001600160a01b03167f90890809c654f11d6e72a28fa60149770a0d11ec6c92319d6ceb2bb0a4ea1a15868360405161309b9291906151c9565b60405180910390a2610e833382613c08565b6000670de0b6b3a76400006130d36130c58585613cbc565b6706f05b59d3b20000613cf3565b81612f4257fe5b6000828211156130fc5760405162461bcd60e51b8152600401610b47906147ad565b50900390565b6000806060856001600160a01b0316858560405160240161312492919061505d565b60408051601f198184030181529181526020820180516001600160e01b0316630d87f58b60e31b179052516131599190614329565b600060405180830381855af49150503d8060008114613194576040519150601f19603f3d011682016040523d82523d6000602084013e613199565b606091505b50915091506131a88282613d16565b808060200190518101906131bc9190614266565b9695505050505050565b7f00000000000000000000000000000000000000000000000000000000000000001561322b5760016131fe60c0830160a0840161417e565b600281111561320957fe5b146132265760405162461bcd60e51b8152600401610b479061454b565b613265565b600261323d60c0830160a0840161417e565b600281111561324857fe5b146132655760405162461bcd60e51b8152600401610b4790614596565b604051633716662960e11b81526000906001600160a01b037f00000000000000000000000000000000000000000000000000000000000000001690636e2ccc52906132b4908590600401614fc4565b60206040518083038186803b1580156132cc57600080fd5b505afa1580156132e0573d6000803e3d6000fd5b505050506040513d601f19601f820116820180604052508101906133049190614003565b90506001600160a01b03811661332c5760405162461bcd60e51b8152600401610b4790614dfc565b60008190507f00000000000000000000000000000000000000000000000000000000000000001515816001600160a01b031663f3c274a66040518163ffffffff1660e01b815260040160206040518083038186803b15801561338d57600080fd5b505afa1580156133a1573d6000803e3d6000fd5b505050506040513d601f19601f820116820180604052508101906133c5919061415e565b1515146133e45760405162461bcd60e51b8152600401610b47906146a2565b7f00000000000000000000000000000000000000000000000000000000000000006001600160a01b0316816001600160a01b0316637158da7c6040518163ffffffff1660e01b815260040160206040518083038186803b15801561344757600080fd5b505afa15801561345b573d6000803e3d6000fd5b505050506040513d601f19601f8201168201806040525081019061347f9190614003565b6001600160a01b0316146134a55760405162461bcd60e51b8152600401610b4790614861565b7f00000000000000000000000000000000000000000000000000000000000000006001600160a01b0316816001600160a01b031663aabaecd66040518163ffffffff1660e01b815260040160206040518083038186803b15801561350857600080fd5b505afa15801561351c573d6000803e3d6000fd5b505050506040513d601f19601f820116820180604052508101906135409190614003565b6001600160a01b0316146135665760405162461bcd60e51b8152600401610b4790614dcd565b7f00000000000000000000000000000000000000000000000000000000000000006001600160a01b0316816001600160a01b03166317d69bc86040518163ffffffff1660e01b815260040160206040518083038186803b1580156135c957600080fd5b505afa1580156135dd573d6000803e3d6000fd5b505050506040513d601f19601f820116820180604052508101906136019190614003565b6001600160a01b0316146136275760405162461bcd60e51b8152600401610b4790614569565b600061363542610e10612af3565b905080826001600160a01b031663ade6e2aa6040518163ffffffff1660e01b815260040160206040518083038186803b15801561367157600080fd5b505afa158015613685573d6000803e3d6000fd5b505050506040513d601f19601f820116820180604052508101906136a99190614266565b10156136c75760405162461bcd60e51b8152600401610b4790614bb6565b60cb80546001600160a01b0319166001600160a01b0394909416939093179092555060cc5550565b60cd80546001600160a01b03198116909155600060ce556001600160a01b03168015612dc7576000819050806001600160a01b031663ade6e2aa6040518163ffffffff1660e01b815260040160206040518083038186803b15801561375357600080fd5b505afa158015613767573d6000803e3d6000fd5b505050506040513d601f19601f8201168201806040525081019061378b9190614266565b42116137a95760405162461bcd60e51b8152600401610b47906144a8565b60006137dd7f00000000000000000000000000000000000000000000000000000000000000006001600160a01b0316613827565b9050826001600160a01b03167f7e830f7c1771deb1bdb35c4a7e6051bbac32b376f7f4e4976b8618b0b11997f7823360405161381a9291906151b2565b60405180910390a2505050565b60408051600481526024810182526020810180516001600160e01b031663f8432a1b60e01b179052905160009182916060916001600160a01b0386169161386e9190614329565b600060405180830381855af49150503d80600081146138a9576040519150601f19603f3d011682016040523d82523d6000602084013e6138ae565b606091505b50915091506138bd8282613d16565b808060200190518101906138d19190614266565b949350505050565b606061392e826040518060400160405280602081526020017f5361666545524332303a206c6f772d6c6576656c2063616c6c206661696c6564815250856001600160a01b0316613d479092919063ffffffff16565b805190915015612aee578080602001905181019061394c919061415e565b612aee5760405162461bcd60e51b8152600401610b4790614d83565b3b151590565b600054610100900460ff16806139875750613987612d2e565b80613995575060005460ff16155b6139b15760405162461bcd60e51b8152600401610b4790614904565b600054610100900460ff161580156139dc576000805460ff1961ff0019909116610100171660011790555b600180558015612dc7576000805461ff001916905550565b600054610100900460ff1680613a0d5750613a0d612d2e565b80613a1b575060005460ff16155b613a375760405162461bcd60e51b8152600401610b4790614904565b600054610100900460ff16158015612db5576000805460ff1961ff0019909116610100171660011790558015612dc7576000805461ff001916905550565b600054610100900460ff1680613a8e5750613a8e612d2e565b80613a9c575060005460ff16155b613ab85760405162461bcd60e51b8152600401610b4790614904565b600054610100900460ff16158015613ae3576000805460ff1961ff0019909116610100171660011790555b8251613af690609a906020860190613eed565b508151613b0a90609b906020850190613eed565b50609c805460ff191660121790558015612aee576000805461ff0019169055505050565b600054610100900460ff1680613b475750613b47612d2e565b80613b55575060005460ff16155b613b715760405162461bcd60e51b8152600401610b4790614904565b600054610100900460ff16158015613b9c576000805460ff1961ff0019909116610100171660011790555b6000613ba66127e5565b606580546001600160a01b0319166001600160a01b038316908117909155604051919250906000907f8be0079c531659141344cd1fd0a4f28419497f9722a3daafe3b4186f6b6457e0908290a3508015612dc7576000805461ff001916905550565b6001600160a01b038216613c2e5760405162461bcd60e51b8152600401610b4790614f67565b613c3a60008383612aee565b609954613c479082612af3565b6099556001600160a01b038216600090815260976020526040902054613c6d9082612af3565b6001600160a01b0383166000818152609760205260408082209390935591519091907fddf252ad1be2c89b69c2b068fc378daa952ba7f163c4a11628f55a4df523b3ef90612c5f9085906151a9565b6000811580613cd757505080820282828281613cd457fe5b04145b610a905760405162461bcd60e51b8152600401610b479061463d565b80820182811015610a905760405162461bcd60e51b8152600401610b47906146d9565b8115613d2157613d43565b613d2a81613d56565b60405162461bcd60e51b8152600401610b47919061440e565b5050565b60606138d18484600085613db6565b6060604482511015613d9c575060408051808201909152601981527f50726f746f636f6c416461707465723a207265766572746564000000000000006020820152610c6d565b60048201915081806020019051810190610a909190614198565b606082471015613dd85760405162461bcd60e51b8152600401610b47906147e4565b613de185613968565b613dfd5760405162461bcd60e51b8152600401610b4790614ce7565b60006060866001600160a01b03168587604051613e1a9190614329565b60006040518083038185875af1925050503d8060008114613e57576040519150601f19603f3d011682016040523d82523d6000602084013e613e5c565b606091505b5091509150613e6c828286613e77565b979650505050505050565b60608315613e86575081610b1d565b825115613e965782518084602001fd5b8160405162461bcd60e51b8152600401610b47919061440e565b6040805160e08101825260008082526020820181905291810182905260608101829052608081018290529060a08201908152600060209091015290565b828054600181600116156101000203166002900490600052602060002090601f016020900481019282601f10613f2e57805160ff1916838001178555613f5b565b82800160010185558215613f5b579182015b82811115613f5b578251825591602001919060010190613f40565b50613f67929150613f6b565b5090565b5b80821115613f675760008155600101613f6c565b803560038110610c6d57600080fd5b60008083601f840112613fa0578182fd5b50813567ffffffffffffffff811115613fb7578182fd5b602083019150836020828501011115613fcf57600080fd5b9250929050565b803560ff81168114610c6d57600080fd5b600060208284031215613ff8578081fd5b8135610b1d81615246565b600060208284031215614014578081fd5b8151610b1d81615246565b60008060408385031215614031578081fd5b823561403c81615246565b9150602083013561404c81615246565b809150509250929050565b60008060006060848603121561406b578081fd5b833561407681615246565b9250602084013561408681615246565b929592945050506040919091013590565b600080600080600080600060a0888a0312156140b1578283fd5b87356140bc81615246565b965060208801356140cc81615246565b955060408801359450606088013567ffffffffffffffff808211156140ef578485fd5b6140fb8b838c01613f8f565b909650945060808a0135915080821115614113578384fd5b506141208a828b01613f8f565b989b979a50959850939692959293505050565b60008060408385031215614145578182fd5b823561415081615246565b946020939093013593505050565b60006020828403121561416f578081fd5b81518015158114610b1d578182fd5b60006020828403121561418f578081fd5b610b1d82613f80565b6000602082840312156141a9578081fd5b815167ffffffffffffffff808211156141c0578283fd5b818401915084601f8301126141d3578283fd5b8151818111156141df57fe5b604051601f8201601f1916810160200183811182821017156141fd57fe5b604052818152838201602001871015614214578485fd5b6131bc82602083016020870161521a565b600060e08284031215614236578081fd5b50919050565b60006102e08284031215614236578081fd5b60006020828403121561425f578081fd5b5035919050565b600060208284031215614277578081fd5b5051919050565b60008060408385031215614290578182fd5b82359150602083013561404c81615246565b6001600160f81b0319169052565b600381106142ba57fe5b9052565b80356001600160e01b031981168082146142d757600080fd5b83525060208101356142e881615246565b6001600160a01b03908116602084015260408201359061430782615246565b16604083015260608181013590830152608090810135910152565b60ff169052565b6000825161433b81846020870161521a565b9190910192915050565b6001600160a01b0391909116815260200190565b6001600160a01b0394851681529290931660208301526040820152606081019190915260800190565b6001600160a01b039485168152602081019390935292166040820152606081019190915260800190565b6001600160a01b0392831681529116602082015260400190565b6001600160a01b039384168152919092166020820152604081019190915260600190565b6001600160a01b03929092168252602082015260400190565b901515815260200190565b600060208252825180602084015261442d81604085016020870161521a565b601f01601f19169190910160400192915050565b6020808252600a90820152692175706772616465546f60b01b604082015260600190565b60208082526023908201527f45524332303a207472616e7366657220746f20746865207a65726f206164647260408201526265737360e81b606082015260800190565b6020808252818101527f43616e6e6f7420636c6f73652073686f7274206265666f726520657870697279604082015260600190565b60208082526019908201527f496e73756666696369656e7420736861726520737570706c7900000000000000604082015260600190565b60208082526018908201527f53656e6465722063616e206f6e6c79206265207661756c740000000000000000604082015260600190565b602080825260049082015263085c1d5d60e21b604082015260600190565b602080825260139082015272737472696b65417373657420213d205553444360681b604082015260600190565b6020808252600590820152640858d85b1b60da1b604082015260600190565b60208082526026908201527f4f776e61626c653a206e6577206f776e657220697320746865207a65726f206160408201526564647265737360d01b606082015260800190565b60208082526022908201527f45524332303a20617070726f766520746f20746865207a65726f206164647265604082015261737360f01b606082015260800190565b60208082526014908201527364732d6d6174682d6d756c2d6f766572666c6f7760601b604082015260600190565b6020808252601b908201527f536166654d6174683a206164646974696f6e206f766572666c6f770000000000604082015260600190565b6020808252601a908201527f4f7074696f6e207479706520646f6573206e6f74206d61746368000000000000604082015260600190565b60208082526014908201527364732d6d6174682d6164642d6f766572666c6f7760601b604082015260600190565b60208082526010908201526f0bee8ded6cadc9cc2daca40427a4060f60831b604082015260600190565b6020808252601b908201527f43616e206f6e6c792073656c6c2063757272656e744f7074696f6e0000000000604082015260600190565b60208082526006908201526521736861726560d01b604082015260600190565b6020808252600b908201526a10b732bba6b0b730b3b2b960a91b604082015260600190565b6020808252601e908201527f536166654d6174683a207375627472616374696f6e206f766572666c6f770000604082015260600190565b60208082526026908201527f416464726573733a20696e73756666696369656e742062616c616e636520666f6040820152651c8818d85b1b60d21b606082015260800190565b6020808252601a908201527f536166654d6174683a206469766973696f6e206279207a65726f000000000000604082015260600190565b60208082526015908201527415dc9bdb99c81d5b99195c9b1e5a5b99d05cdcd95d605a1b604082015260600190565b6020808252601190820152700c2e6e6cae840d2e640dcdee840ae8aa89607b1b604082015260600190565b60208082526010908201526f085b995dd19959549958da5c1a595b9d60821b604082015260600190565b602080825260059082015264042ae8aa8960db1b604082015260600190565b6020808252602e908201527f496e697469616c697a61626c653a20636f6e747261637420697320616c72656160408201526d191e481a5b9a5d1a585b1a5e995960921b606082015260800190565b60208082526007908201526610afb7bbb732b960c91b604082015260600190565b60208082526021908201527f536166654d6174683a206d756c7469706c69636174696f6e206f766572666c6f6040820152607760f81b606082015260800190565b602080825260069082015265085d985d5b1d60d21b604082015260600190565b6020808252600c908201526b27b7363c9036b0b730b3b2b960a11b604082015260600190565b6020808252818101527f4f776e61626c653a2063616c6c6572206973206e6f7420746865206f776e6572604082015260600190565b60208082526018908201527f43616e6e6f7420726f6c6c206265666f72652064656c61790000000000000000604082015260600190565b6020808252600a9082015269139bdd081cdd5b9cd95d60b21b604082015260600190565b6020808252600f908201526e2737903337bab7321037b83a34b7b760891b604082015260600190565b60208082526012908201527107769746864726177616c46656520213d20360741b604082015260600190565b6020808252600f908201526e139bc81d985b1d59481c185cdcd959608a1b604082015260600190565b60208082526021908201527f45524332303a206275726e2066726f6d20746865207a65726f206164647265736040820152607360f81b606082015260800190565b60208082526025908201527f45524332303a207472616e736665722066726f6d20746865207a65726f206164604082015264647265737360d81b606082015260800190565b6020808252600e908201526d0857d99959549958da5c1a595b9d60921b604082015260600190565b60208082526024908201527f4f7074696f6e206578706972792063616e6e6f74206265206265666f72652064604082015263656c617960e01b606082015260800190565b60208082526025908201527f4665656c65737320776974686472617720746f207661756c74206e6f7420616c6040820152641b1bddd95960da1b606082015260800190565b602080825260139082015272115512081d1c985b9cd9995c8819985a5b1959606a1b604082015260600190565b60208082526024908201527f45524332303a20617070726f76652066726f6d20746865207a65726f206164646040820152637265737360e01b606082015260800190565b6020808252601a908201527f496e73756666696369656e742061737365742062616c616e6365000000000000604082015260600190565b6020808252601d908201527f416464726573733a2063616c6c20746f206e6f6e2d636f6e7472616374000000604082015260600190565b6020808252601d908201527f43616e206f6e6c7920627579207769746820617373657420746f6b656e000000604082015260600190565b6020808252601490820152737769746864726177616c466565203e3d2033302560601b604082015260600190565b6020808252602a908201527f5361666545524332303a204552433230206f7065726174696f6e20646964206e6040820152691bdd081cdd58d8d9595960b21b606082015260800190565b60208082526015908201527415dc9bdb99c818dbdb1b185d195c985b105cdcd95d605a1b604082015260600190565b60208082526007908201526610b7b83a34b7b760c91b604082015260600190565b6020808252600c908201526b10d85c08195e18d95959195960a21b604082015260600190565b6020808252601f908201527f5265656e7472616e637947756172643a207265656e7472616e742063616c6c00604082015260600190565b6020808252601290820152710bee8ded6cadca6f2dac4ded840427a4060f60731b604082015260600190565b60208082526036908201527f5361666545524332303a20617070726f76652066726f6d206e6f6e2d7a65726f60408201527520746f206e6f6e2d7a65726f20616c6c6f77616e636560501b606082015260800190565b60208082526023908201527f43616e6e6f74207769746864726177206d6f7265207468616e20617661696c61604082015262626c6560e81b606082015260800190565b6020808252600e908201526d10b1bab93932b73a27b83a34b7b760911b604082015260600190565b6020808252601f908201527f45524332303a206d696e7420746f20746865207a65726f206164647265737300604082015260600190565b6020808252600c908201526b05f696e6974436170203e20360a41b604082015260600190565b60e081018235614fd381615246565b6001600160a01b039081168352602084013590614fef82615246565b908116602084015260408401359061500682615246565b8082166040850152606085013560608501526080850135608085015261502e60a08601613f80565b915061503d60a08501836142b0565b60c0850135915061504d82615246565b80821660c0850152505092915050565b60006101008201905060018060a01b03808551168352806020860151166020840152806040860151166040840152606085015160608401526080850151608084015260a08501516150b160a08501826142b0565b5060c094850151169382019390935260e0015290565b81358152602080830135908201526102e081016150ea60408084019085016142be565b6150fa60e0830160e085016142be565b61018061510b8184018286016142be565b506102208084013561511c81615246565b6001600160a01b039081169184019190915261024090848201359061514082615246565b1690830152610260838101356001600160f81b03198116811461516257600080fd5b61516e828501826142a2565b505061028061517e818501613fd6565b61518a82850182614322565b50506102a083810135908301526102c092830135929091019190915290565b90815260200190565b9182526001600160a01b0316602082015260400190565b918252602082015260400190565b92835260208301919091526001600160a01b0316604082015260600190565b9283526020830191909152604082015260600190565b60ff91909116815260200190565b60005b8381101561523557818101518382015260200161521d565b83811115612f6b5750506000910152565b6001600160a01b0381168114612dc757600080fdfe45524332303a206275726e20616d6f756e7420657863656564732062616c616e636545524332303a207472616e7366657220616d6f756e7420657863656564732062616c616e636545524332303a207472616e7366657220616d6f756e74206578636565647320616c6c6f77616e636545524332303a2064656372656173656420616c6c6f77616e63652062656c6f77207a65726fa2646970667358221220ad87b751106d092a6906c656d5234d161f0bb9c6f61d5f89b7a5cd25b29adab164736f6c63430007020033",
  "devdoc": {
    "kind": "dev",
    "methods": {
      "accountVaultBalance(address)": {
        "params": {
          "account": "is the address of the user"
        },
        "returns": {
          "_0": "vault balance of the user"
        }
      },
      "allowance(address,address)": {
        "details": "See {IERC20-allowance}."
      },
      "approve(address,uint256)": {
        "details": "See {IERC20-approve}. Requirements: - `spender` cannot be the zero address."
      },
      "assetAmountToShares(uint256)": {
        "params": {
          "assetAmount": "is the asset amount to be withdrawn"
        },
        "returns": {
          "_0": "share amount"
        }
      },
      "balanceOf(address)": {
        "details": "See {IERC20-balanceOf}."
      },
      "constructor": {
        "params": {
          "_asset": "is the asset used for collateral and premiums",
          "_minimumSupply": "is the minimum supply for the asset balance and the share supply. It's important to bake the _factory variable into the contract with the constructor If we do it in the `initialize` function, users get to set the factory variable and subsequently the adapter, which allows them to make a delegatecall, then selfdestruct the contract.",
          "_swapContract": "is the Airswap Swap contract",
          "_tokenDecimals": "is the decimals for the vault shares. Must match the decimals for _asset.",
          "_usdc": "is the USDC contract",
          "_weth": "is the Wrapped Ether contract"
        }
      },
      "decreaseAllowance(address,uint256)": {
        "details": "Atomically decreases the allowance granted to `spender` by the caller. This is an alternative to {approve} that can be used as a mitigation for problems described in {IERC20-approve}. Emits an {Approval} event indicating the updated allowance. Requirements: - `spender` cannot be the zero address. - `spender` must have allowance for the caller of at least `subtractedValue`."
      },
      "deposit(uint256)": {
        "params": {
          "amount": "is the amount of `asset` to deposit"
        }
      },
      "increaseAllowance(address,uint256)": {
        "details": "Atomically increases the allowance granted to `spender` by the caller. This is an alternative to {approve} that can be used as a mitigation for problems described in {IERC20-approve}. Emits an {Approval} event indicating the updated allowance. Requirements: - `spender` cannot be the zero address."
      },
      "initialize(address,address,uint256,string,string)": {
        "params": {
          "_feeRecipient": "is the recipient address for withdrawal fees.",
          "_initCap": "is the initial vault's cap on deposits, the manager can increase this as necessary.",
          "_owner": "is the owner of the contract who can set the manager",
          "_tokenName": "is the name of the vault share token",
          "_tokenSymbol": "is the symbol of the vault share token"
        }
      },
      "maxWithdrawAmount(address)": {
        "params": {
          "account": "is the address of the vault share holder"
        },
        "returns": {
          "_0": "amount of `asset` withdrawable from vault, with fees accounted"
        }
      },
      "name()": {
        "details": "Returns the name of the token."
      },
      "owner()": {
        "details": "Returns the address of the current owner."
      },
      "renounceOwnership()": {
        "details": "Leaves the contract without owner. It will not be possible to call `onlyOwner` functions anymore. Can only be called by the current owner. NOTE: Renouncing ownership will leave the contract without an owner, thereby removing any functionality that is only available to the owner."
      },
      "sellOptions((uint256,uint256,(bytes4,address,address,uint256,uint256),(bytes4,address,address,uint256,uint256),(bytes4,address,address,uint256,uint256),(address,address,bytes1,uint8,bytes32,bytes32)))": {
        "params": {
          "order": "is an Airswap order"
        }
      },
      "setCap(uint256)": {
        "params": {
          "newCap": "is the new cap for deposits"
        }
      },
      "setFeeRecipient(address)": {
        "params": {
          "newFeeRecipient": "is the address of the new fee recipient"
        }
      },
      "setManager(address)": {
        "params": {
          "newManager": "is the new manager of the vault"
        }
      },
      "setWithdrawalFee(uint256)": {
        "params": {
          "newWithdrawalFee": "is the fee paid in tokens when withdrawing"
        }
      },
      "symbol()": {
        "details": "Returns the symbol of the token, usually a shorter version of the name."
      },
      "totalBalance()": {
        "returns": {
          "_0": "total balance of the vault, including the amounts locked in third party protocols"
        }
      },
      "totalSupply()": {
        "details": "See {IERC20-totalSupply}."
      },
      "transfer(address,uint256)": {
        "details": "See {IERC20-transfer}. Requirements: - `recipient` cannot be the zero address. - the caller must have a balance of at least `amount`."
      },
      "transferFrom(address,address,uint256)": {
        "details": "See {IERC20-transferFrom}. Emits an {Approval} event indicating the updated allowance. This is not required by the EIP. See the note at the beginning of {ERC20}. Requirements: - `sender` and `recipient` cannot be the zero address. - `sender` must have a balance of at least `amount`. - the caller must have allowance for ``sender``'s tokens of at least `amount`."
      },
      "transferOwnership(address)": {
        "details": "Transfers ownership of the contract to a new account (`newOwner`). Can only be called by the current owner."
      },
      "withdraw(uint256)": {
        "params": {
          "share": "is the number of vault shares to be burned"
        }
      },
      "withdrawAmountWithShares(uint256)": {
        "params": {
          "share": "is the number of shares burned to withdraw asset from the vault"
        },
        "returns": {
          "amountAfterFee": "is the amount of asset tokens withdrawable from the vault",
          "feeAmount": "is the fee amount (in asset tokens) sent to the feeRecipient"
        }
      },
      "withdrawETH(uint256)": {
        "params": {
          "share": "is the number of vault shares to be burned"
        }
      },
      "withdrawToV1Vault(uint256,address)": {
        "params": {
          "share": "is the number of vault shares to be burned",
          "vault": "is the address of destination V1 vault"
        }
      }
    },
    "version": 1
  },
  "userdoc": {
    "kind": "user",
    "methods": {
      "accountVaultBalance(address)": {
        "notice": "Returns an account's balance on the vault"
      },
      "assetAmountToShares(uint256)": {
        "notice": "Returns the number of shares for a given `assetAmount`.         Used by the frontend to calculate withdraw amounts."
      },
      "assetBalance()": {
        "notice": "Returns the asset balance on the vault. This balance is freely withdrawable by users."
      },
      "commitAndClose((address,address,address,uint256,uint256,uint8,address))": {
        "notice": "Sets the next option the vault will be shorting, and closes the existing short.         This allows all the users to withdraw if the next option is malicious."
      },
      "constructor": {
        "notice": "Initializes the contract with immutable variables"
      },
      "currentOptionExpiry()": {
        "notice": "Returns the expiry of the current option the vault is shorting"
      },
      "decimals()": {
        "notice": "Returns the token decimals"
      },
      "deposit(uint256)": {
        "notice": "Deposits the `asset` into the contract and mint vault shares."
      },
      "depositETH()": {
        "notice": "Deposits ETH into the contract and mint vault shares. Reverts if the underlying is not WETH."
      },
      "emergencyWithdrawFromShort()": {
        "notice": "Withdraw from the options protocol by closing short in an event of a emergency"
      },
      "initialize(address,address,uint256,string,string)": {
        "notice": "Initializes the OptionVault contract with storage variables."
      },
      "maxWithdrawAmount(address)": {
        "notice": "Returns the max amount withdrawable by an account using the account's vault share balance"
      },
      "maxWithdrawableShares()": {
        "notice": "Returns the max withdrawable shares for all users in the vault"
      },
      "sellOptions((uint256,uint256,(bytes4,address,address,uint256,uint256),(bytes4,address,address,uint256,uint256),(bytes4,address,address,uint256,uint256),(address,address,bytes1,uint8,bytes32,bytes32)))": {
        "notice": "Performs a swap of `currentOption` token to `asset` token with a counterparty"
      },
      "setCap(uint256)": {
        "notice": "Sets a new cap for deposits"
      },
      "setFeeRecipient(address)": {
        "notice": "Sets the new fee recipient"
      },
      "setManager(address)": {
        "notice": "Sets the new manager of the vault."
      },
      "setWithdrawalFee(uint256)": {
        "notice": "Sets the new withdrawal fee"
      },
      "sunset(address)": {
        "notice": "Closes the vault and makes it withdraw only."
      },
      "totalBalance()": {
        "notice": "Returns the vault's total balance, including the amounts locked into a short position"
      },
      "withdraw(uint256)": {
        "notice": "Withdraws WETH from vault using vault shares"
      },
      "withdrawAmountWithShares(uint256)": {
        "notice": "Returns the amount withdrawable (in `asset` tokens) using the `share` amount"
      },
      "withdrawETH(uint256)": {
        "notice": "Withdraws ETH from vault using vault shares"
      },
      "withdrawToV1Vault(uint256,address)": {
        "notice": "Withdraw from V1 vault to V1 vaultWaive fee if registered in vault registry"
      }
    },
    "version": 1
  },
  "storageLayout": {
    "storage": [
      {
        "astId": 538,
        "contract": "contracts/instruments/RibbonThetaVault.sol:RibbonThetaVault",
        "label": "_initialized",
        "offset": 0,
        "slot": "0",
        "type": "t_bool"
      },
      {
        "astId": 541,
        "contract": "contracts/instruments/RibbonThetaVault.sol:RibbonThetaVault",
        "label": "_initializing",
        "offset": 1,
        "slot": "0",
        "type": "t_bool"
      },
      {
        "astId": 1508,
        "contract": "contracts/instruments/RibbonThetaVault.sol:RibbonThetaVault",
        "label": "_status",
        "offset": 0,
        "slot": "1",
        "type": "t_uint256"
      },
      {
        "astId": 1551,
        "contract": "contracts/instruments/RibbonThetaVault.sol:RibbonThetaVault",
        "label": "__gap",
        "offset": 0,
        "slot": "2",
        "type": "t_array(t_uint256)49_storage"
      },
      {
        "astId": 1493,
        "contract": "contracts/instruments/RibbonThetaVault.sol:RibbonThetaVault",
        "label": "__gap",
        "offset": 0,
        "slot": "51",
        "type": "t_array(t_uint256)50_storage"
      },
      {
        "astId": 56,
        "contract": "contracts/instruments/RibbonThetaVault.sol:RibbonThetaVault",
        "label": "_owner",
        "offset": 0,
        "slot": "101",
        "type": "t_address"
      },
      {
        "astId": 175,
        "contract": "contracts/instruments/RibbonThetaVault.sol:RibbonThetaVault",
        "label": "__gap",
        "offset": 0,
        "slot": "102",
        "type": "t_array(t_uint256)49_storage"
      },
      {
        "astId": 617,
        "contract": "contracts/instruments/RibbonThetaVault.sol:RibbonThetaVault",
        "label": "_balances",
        "offset": 0,
        "slot": "151",
        "type": "t_mapping(t_address,t_uint256)"
      },
      {
        "astId": 623,
        "contract": "contracts/instruments/RibbonThetaVault.sol:RibbonThetaVault",
        "label": "_allowances",
        "offset": 0,
        "slot": "152",
        "type": "t_mapping(t_address,t_mapping(t_address,t_uint256))"
      },
      {
        "astId": 625,
        "contract": "contracts/instruments/RibbonThetaVault.sol:RibbonThetaVault",
        "label": "_totalSupply",
        "offset": 0,
        "slot": "153",
        "type": "t_uint256"
      },
      {
        "astId": 627,
        "contract": "contracts/instruments/RibbonThetaVault.sol:RibbonThetaVault",
        "label": "_name",
        "offset": 0,
        "slot": "154",
        "type": "t_string_storage"
      },
      {
        "astId": 629,
        "contract": "contracts/instruments/RibbonThetaVault.sol:RibbonThetaVault",
        "label": "_symbol",
        "offset": 0,
        "slot": "155",
        "type": "t_string_storage"
      },
      {
        "astId": 631,
        "contract": "contracts/instruments/RibbonThetaVault.sol:RibbonThetaVault",
        "label": "_decimals",
        "offset": 0,
        "slot": "156",
        "type": "t_uint8"
      },
      {
        "astId": 1126,
        "contract": "contracts/instruments/RibbonThetaVault.sol:RibbonThetaVault",
        "label": "__gap",
        "offset": 0,
        "slot": "157",
        "type": "t_array(t_uint256)44_storage"
      },
      {
        "astId": 18382,
        "contract": "contracts/instruments/RibbonThetaVault.sol:RibbonThetaVault",
        "label": "_oldAsset",
        "offset": 0,
        "slot": "201",
        "type": "t_address"
      },
      {
        "astId": 18384,
        "contract": "contracts/instruments/RibbonThetaVault.sol:RibbonThetaVault",
        "label": "manager",
        "offset": 0,
        "slot": "202",
        "type": "t_address"
      },
      {
        "astId": 18386,
        "contract": "contracts/instruments/RibbonThetaVault.sol:RibbonThetaVault",
        "label": "nextOption",
        "offset": 0,
        "slot": "203",
        "type": "t_address"
      },
      {
        "astId": 18388,
        "contract": "contracts/instruments/RibbonThetaVault.sol:RibbonThetaVault",
        "label": "nextOptionReadyAt",
        "offset": 0,
        "slot": "204",
        "type": "t_uint256"
      },
      {
        "astId": 18390,
        "contract": "contracts/instruments/RibbonThetaVault.sol:RibbonThetaVault",
        "label": "currentOption",
        "offset": 0,
        "slot": "205",
        "type": "t_address"
      },
      {
        "astId": 18392,
        "contract": "contracts/instruments/RibbonThetaVault.sol:RibbonThetaVault",
        "label": "lockedAmount",
        "offset": 0,
        "slot": "206",
        "type": "t_uint256"
      },
      {
        "astId": 18394,
        "contract": "contracts/instruments/RibbonThetaVault.sol:RibbonThetaVault",
        "label": "cap",
        "offset": 0,
        "slot": "207",
        "type": "t_uint256"
      },
      {
        "astId": 18396,
        "contract": "contracts/instruments/RibbonThetaVault.sol:RibbonThetaVault",
        "label": "instantWithdrawalFee",
        "offset": 0,
        "slot": "208",
        "type": "t_uint256"
      },
      {
        "astId": 18398,
        "contract": "contracts/instruments/RibbonThetaVault.sol:RibbonThetaVault",
        "label": "feeRecipient",
        "offset": 0,
        "slot": "209",
        "type": "t_address"
      },
      {
        "astId": 18401,
        "contract": "contracts/instruments/RibbonThetaVault.sol:RibbonThetaVault",
        "label": "queuedWithdrawShares",
        "offset": 0,
        "slot": "210",
        "type": "t_uint256"
      },
      {
        "astId": 18405,
        "contract": "contracts/instruments/RibbonThetaVault.sol:RibbonThetaVault",
        "label": "scheduledWithdrawals",
        "offset": 0,
        "slot": "211",
        "type": "t_mapping(t_address,t_uint256)"
      },
      {
        "astId": 18408,
        "contract": "contracts/instruments/RibbonThetaVault.sol:RibbonThetaVault",
        "label": "replacementVault",
        "offset": 0,
        "slot": "212",
        "type": "t_contract(IRibbonV2Vault)15585"
      }
    ],
    "types": {
      "t_address": {
        "encoding": "inplace",
        "label": "address",
        "numberOfBytes": "20"
      },
      "t_array(t_uint256)44_storage": {
        "base": "t_uint256",
        "encoding": "inplace",
        "label": "uint256[44]",
        "numberOfBytes": "1408"
      },
      "t_array(t_uint256)49_storage": {
        "base": "t_uint256",
        "encoding": "inplace",
        "label": "uint256[49]",
        "numberOfBytes": "1568"
      },
      "t_array(t_uint256)50_storage": {
        "base": "t_uint256",
        "encoding": "inplace",
        "label": "uint256[50]",
        "numberOfBytes": "1600"
      },
      "t_bool": {
        "encoding": "inplace",
        "label": "bool",
        "numberOfBytes": "1"
      },
      "t_contract(IRibbonV2Vault)15585": {
        "encoding": "inplace",
        "label": "contract IRibbonV2Vault",
        "numberOfBytes": "20"
      },
      "t_mapping(t_address,t_mapping(t_address,t_uint256))": {
        "encoding": "mapping",
        "key": "t_address",
        "label": "mapping(address => mapping(address => uint256))",
        "numberOfBytes": "32",
        "value": "t_mapping(t_address,t_uint256)"
      },
      "t_mapping(t_address,t_uint256)": {
        "encoding": "mapping",
        "key": "t_address",
        "label": "mapping(address => uint256)",
        "numberOfBytes": "32",
        "value": "t_uint256"
      },
      "t_string_storage": {
        "encoding": "bytes",
        "label": "string",
        "numberOfBytes": "32"
      },
      "t_uint256": {
        "encoding": "inplace",
        "label": "uint256",
        "numberOfBytes": "32"
      },
      "t_uint8": {
        "encoding": "inplace",
        "label": "uint8",
        "numberOfBytes": "1"
      }
    }
  }
}