{
  "address": "0x4397A46265466Ab241cDf8f5447931b339bD0Dee",
  "abi": [
    {
      "inputs": [
        {
          "internalType": "address",
          "name": "_asset",
          "type": "address"
        },
        {
          "internalType": "address",
          "name": "_factory",
          "type": "address"
        },
        {
          "internalType": "address",
          "name": "_registry",
          "type": "address"
        },
        {
          "internalType": "address",
          "name": "_weth",
          "type": "address"
        },
        {
          "internalType": "address",
          "name": "_usdc",
          "type": "address"
        },
        {
          "internalType": "address",
          "name": "_swapContract",
          "type": "address"
        },
        {
          "internalType": "uint8",
          "name": "_tokenDecimals",
          "type": "uint8"
        },
        {
          "internalType": "uint256",
          "name": "_minimumSupply",
          "type": "uint256"
        },
        {
          "internalType": "bool",
          "name": "_isPut",
          "type": "bool"
        }
      ],
      "stateMutability": "nonpayable",
      "type": "constructor"
    },
    {
      "anonymous": false,
      "inputs": [
        {
          "indexed": true,
          "internalType": "address",
          "name": "owner",
          "type": "address"
        },
        {
          "indexed": true,
          "internalType": "address",
          "name": "spender",
          "type": "address"
        },
        {
          "indexed": false,
          "internalType": "uint256",
          "name": "value",
          "type": "uint256"
        }
      ],
      "name": "Approval",
      "type": "event"
    },
    {
      "anonymous": false,
      "inputs": [
        {
          "indexed": false,
          "internalType": "uint256",
          "name": "oldCap",
          "type": "uint256"
        },
        {
          "indexed": false,
          "internalType": "uint256",
          "name": "newCap",
          "type": "uint256"
        },
        {
          "indexed": false,
          "internalType": "address",
          "name": "manager",
          "type": "address"
        }
      ],
      "name": "CapSet",
      "type": "event"
    },
    {
      "anonymous": false,
      "inputs": [
        {
          "indexed": true,
          "internalType": "address",
          "name": "options",
          "type": "address"
        },
        {
          "indexed": false,
          "internalType": "uint256",
          "name": "withdrawAmount",
          "type": "uint256"
        },
        {
          "indexed": false,
          "internalType": "address",
          "name": "manager",
          "type": "address"
        }
      ],
      "name": "CloseShort",
      "type": "event"
    },
    {
      "anonymous": false,
      "inputs": [
        {
          "indexed": true,
          "internalType": "address",
          "name": "account",
          "type": "address"
        },
        {
          "indexed": false,
          "internalType": "uint256",
          "name": "amount",
          "type": "uint256"
        },
        {
          "indexed": false,
          "internalType": "uint256",
          "name": "share",
          "type": "uint256"
        }
      ],
      "name": "Deposit",
      "type": "event"
    },
    {
      "anonymous": false,
      "inputs": [
        {
          "indexed": false,
          "internalType": "address",
          "name": "oldManager",
          "type": "address"
        },
        {
          "indexed": false,
          "internalType": "address",
          "name": "newManager",
          "type": "address"
        }
      ],
      "name": "ManagerChanged",
      "type": "event"
    },
    {
      "anonymous": false,
      "inputs": [
        {
          "indexed": false,
          "internalType": "address",
          "name": "account",
          "type": "address"
        },
        {
          "indexed": false,
          "internalType": "address",
          "name": "replacement",
          "type": "address"
        },
        {
          "indexed": false,
          "internalType": "uint256",
          "name": "shares",
          "type": "uint256"
        },
        {
          "indexed": false,
          "internalType": "uint256",
          "name": "amount",
          "type": "uint256"
        }
      ],
      "name": "Migrate",
      "type": "event"
    },
    {
      "anonymous": false,
      "inputs": [
        {
          "indexed": true,
          "internalType": "address",
          "name": "options",
          "type": "address"
        },
        {
          "indexed": false,
          "internalType": "uint256",
          "name": "depositAmount",
          "type": "uint256"
        },
        {
          "indexed": false,
          "internalType": "address",
          "name": "manager",
          "type": "address"
        }
      ],
      "name": "OpenShort",
      "type": "event"
    },
    {
      "anonymous": false,
      "inputs": [
        {
          "indexed": true,
          "internalType": "address",
          "name": "previousOwner",
          "type": "address"
        },
        {
          "indexed": true,
          "internalType": "address",
          "name": "newOwner",
          "type": "address"
        }
      ],
      "name": "OwnershipTransferred",
      "type": "event"
    },
    {
      "anonymous": false,
      "inputs": [
        {
          "indexed": true,
          "internalType": "address",
          "name": "from",
          "type": "address"
        },
        {
          "indexed": true,
          "internalType": "address",
          "name": "to",
          "type": "address"
        },
        {
          "indexed": false,
          "internalType": "uint256",
          "name": "value",
          "type": "uint256"
        }
      ],
      "name": "Transfer",
      "type": "event"
    },
    {
      "anonymous": false,
      "inputs": [
        {
          "indexed": false,
          "internalType": "address",
          "name": "replacement",
          "type": "address"
        }
      ],
      "name": "VaultSunset",
      "type": "event"
    },
    {
      "anonymous": false,
      "inputs": [
        {
          "indexed": true,
          "internalType": "address",
          "name": "account",
          "type": "address"
        },
        {
          "indexed": false,
          "internalType": "uint256",
          "name": "amount",
          "type": "uint256"
        },
        {
          "indexed": false,
          "internalType": "uint256",
          "name": "share",
          "type": "uint256"
        },
        {
          "indexed": false,
          "internalType": "uint256",
          "name": "fee",
          "type": "uint256"
        }
      ],
      "name": "Withdraw",
      "type": "event"
    },
    {
      "anonymous": false,
      "inputs": [
        {
          "indexed": false,
          "internalType": "address",
          "name": "account",
          "type": "address"
        },
        {
          "indexed": false,
          "internalType": "uint256",
          "name": "oldShares",
          "type": "uint256"
        },
        {
          "indexed": false,
          "internalType": "address",
          "name": "to",
          "type": "address"
        },
        {
          "indexed": false,
          "internalType": "uint256",
          "name": "newShares",
          "type": "uint256"
        }
      ],
      "name": "WithdrawToV1Vault",
      "type": "event"
    },
    {
      "anonymous": false,
      "inputs": [
        {
          "indexed": false,
          "internalType": "uint256",
          "name": "oldFee",
          "type": "uint256"
        },
        {
          "indexed": false,
          "internalType": "uint256",
          "name": "newFee",
          "type": "uint256"
        }
      ],
      "name": "WithdrawalFeeSet",
      "type": "event"
    },
    {
      "inputs": [],
      "name": "MINIMUM_SUPPLY",
      "outputs": [
        {
          "internalType": "uint256",
          "name": "",
          "type": "uint256"
        }
      ],
      "stateMutability": "view",
      "type": "function"
    },
    {
      "inputs": [],
      "name": "SWAP_CONTRACT",
      "outputs": [
        {
          "internalType": "contract ISwap",
          "name": "",
          "type": "address"
        }
      ],
      "stateMutability": "view",
      "type": "function"
    },
    {
      "inputs": [],
      "name": "USDC",
      "outputs": [
        {
          "internalType": "address",
          "name": "",
          "type": "address"
        }
      ],
      "stateMutability": "view",
      "type": "function"
    },
    {
      "inputs": [],
      "name": "WETH",
      "outputs": [
        {
          "internalType": "address",
          "name": "",
          "type": "address"
        }
      ],
      "stateMutability": "view",
      "type": "function"
    },
    {
      "inputs": [
        {
          "internalType": "address",
          "name": "account",
          "type": "address"
        }
      ],
      "name": "accountVaultBalance",
      "outputs": [
        {
          "internalType": "uint256",
          "name": "",
          "type": "uint256"
        }
      ],
      "stateMutability": "view",
      "type": "function"
    },
    {
      "inputs": [],
      "name": "adapter",
      "outputs": [
        {
          "internalType": "contract IProtocolAdapter",
          "name": "",
          "type": "address"
        }
      ],
      "stateMutability": "view",
      "type": "function"
    },
    {
      "inputs": [
        {
          "internalType": "address",
          "name": "owner",
          "type": "address"
        },
        {
          "internalType": "address",
          "name": "spender",
          "type": "address"
        }
      ],
      "name": "allowance",
      "outputs": [
        {
          "internalType": "uint256",
          "name": "",
          "type": "uint256"
        }
      ],
      "stateMutability": "view",
      "type": "function"
    },
    {
      "inputs": [
        {
          "internalType": "address",
          "name": "spender",
          "type": "address"
        },
        {
          "internalType": "uint256",
          "name": "amount",
          "type": "uint256"
        }
      ],
      "name": "approve",
      "outputs": [
        {
          "internalType": "bool",
          "name": "",
          "type": "bool"
        }
      ],
      "stateMutability": "nonpayable",
      "type": "function"
    },
    {
      "inputs": [],
      "name": "asset",
      "outputs": [
        {
          "internalType": "address",
          "name": "",
          "type": "address"
        }
      ],
      "stateMutability": "view",
      "type": "function"
    },
    {
      "inputs": [
        {
          "internalType": "uint256",
          "name": "assetAmount",
          "type": "uint256"
        }
      ],
      "name": "assetAmountToShares",
      "outputs": [
        {
          "internalType": "uint256",
          "name": "",
          "type": "uint256"
        }
      ],
      "stateMutability": "view",
      "type": "function"
    },
    {
      "inputs": [],
      "name": "assetBalance",
      "outputs": [
        {
          "internalType": "uint256",
          "name": "",
          "type": "uint256"
        }
      ],
      "stateMutability": "view",
      "type": "function"
    },
    {
      "inputs": [
        {
          "internalType": "address",
          "name": "account",
          "type": "address"
        }
      ],
      "name": "balanceOf",
      "outputs": [
        {
          "internalType": "uint256",
          "name": "",
          "type": "uint256"
        }
      ],
      "stateMutability": "view",
      "type": "function"
    },
    {
      "inputs": [],
      "name": "cap",
      "outputs": [
        {
          "internalType": "uint256",
          "name": "",
          "type": "uint256"
        }
      ],
      "stateMutability": "view",
      "type": "function"
    },
    {
      "inputs": [],
      "name": "closeShort",
      "outputs": [],
      "stateMutability": "nonpayable",
      "type": "function"
    },
    {
      "inputs": [
        {
          "components": [
            {
              "internalType": "address",
              "name": "underlying",
              "type": "address"
            },
            {
              "internalType": "address",
              "name": "strikeAsset",
              "type": "address"
            },
            {
              "internalType": "address",
              "name": "collateralAsset",
              "type": "address"
            },
            {
              "internalType": "uint256",
              "name": "expiry",
              "type": "uint256"
            },
            {
              "internalType": "uint256",
              "name": "strikePrice",
              "type": "uint256"
            },
            {
              "internalType": "enum ProtocolAdapterTypes.OptionType",
              "name": "optionType",
              "type": "uint8"
            },
            {
              "internalType": "address",
              "name": "paymentToken",
              "type": "address"
            }
          ],
          "internalType": "struct ProtocolAdapterTypes.OptionTerms",
          "name": "optionTerms",
          "type": "tuple"
        }
      ],
      "name": "commitAndClose",
      "outputs": [],
      "stateMutability": "nonpayable",
      "type": "function"
    },
    {
      "inputs": [],
      "name": "currentOption",
      "outputs": [
        {
          "internalType": "address",
          "name": "",
          "type": "address"
        }
      ],
      "stateMutability": "view",
      "type": "function"
    },
    {
      "inputs": [],
      "name": "currentOptionExpiry",
      "outputs": [
        {
          "internalType": "uint256",
          "name": "",
          "type": "uint256"
        }
      ],
      "stateMutability": "view",
      "type": "function"
    },
    {
      "inputs": [],
      "name": "decimals",
      "outputs": [
        {
          "internalType": "uint8",
          "name": "",
          "type": "uint8"
        }
      ],
      "stateMutability": "view",
      "type": "function"
    },
    {
      "inputs": [
        {
          "internalType": "address",
          "name": "spender",
          "type": "address"
        },
        {
          "internalType": "uint256",
          "name": "subtractedValue",
          "type": "uint256"
        }
      ],
      "name": "decreaseAllowance",
      "outputs": [
        {
          "internalType": "bool",
          "name": "",
          "type": "bool"
        }
      ],
      "stateMutability": "nonpayable",
      "type": "function"
    },
    {
      "inputs": [],
      "name": "delay",
      "outputs": [
        {
          "internalType": "uint256",
          "name": "",
          "type": "uint256"
        }
      ],
      "stateMutability": "view",
      "type": "function"
    },
    {
      "inputs": [
        {
          "internalType": "uint256",
          "name": "amount",
          "type": "uint256"
        }
      ],
      "name": "deposit",
      "outputs": [],
      "stateMutability": "nonpayable",
      "type": "function"
    },
    {
      "inputs": [],
      "name": "depositETH",
      "outputs": [],
      "stateMutability": "payable",
      "type": "function"
    },
    {
      "inputs": [],
      "name": "emergencyWithdrawFromShort",
      "outputs": [],
      "stateMutability": "nonpayable",
      "type": "function"
    },
    {
      "inputs": [],
      "name": "feeRecipient",
      "outputs": [
        {
          "internalType": "address",
          "name": "",
          "type": "address"
        }
      ],
      "stateMutability": "view",
      "type": "function"
    },
    {
      "inputs": [
        {
          "internalType": "address",
          "name": "spender",
          "type": "address"
        },
        {
          "internalType": "uint256",
          "name": "addedValue",
          "type": "uint256"
        }
      ],
      "name": "increaseAllowance",
      "outputs": [
        {
          "internalType": "bool",
          "name": "",
          "type": "bool"
        }
      ],
      "stateMutability": "nonpayable",
      "type": "function"
    },
    {
      "inputs": [
        {
          "internalType": "address",
          "name": "_owner",
          "type": "address"
        },
        {
          "internalType": "address",
          "name": "_feeRecipient",
          "type": "address"
        },
        {
          "internalType": "uint256",
          "name": "_initCap",
          "type": "uint256"
        },
        {
          "internalType": "string",
          "name": "_tokenName",
          "type": "string"
        },
        {
          "internalType": "string",
          "name": "_tokenSymbol",
          "type": "string"
        }
      ],
      "name": "initialize",
      "outputs": [],
      "stateMutability": "nonpayable",
      "type": "function"
    },
    {
      "inputs": [],
      "name": "instantWithdrawalFee",
      "outputs": [
        {
          "internalType": "uint256",
          "name": "",
          "type": "uint256"
        }
      ],
      "stateMutability": "view",
      "type": "function"
    },
    {
      "inputs": [],
      "name": "isPut",
      "outputs": [
        {
          "internalType": "bool",
          "name": "",
          "type": "bool"
        }
      ],
      "stateMutability": "view",
      "type": "function"
    },
    {
      "inputs": [],
      "name": "lockedAmount",
      "outputs": [
        {
          "internalType": "uint256",
          "name": "",
          "type": "uint256"
        }
      ],
      "stateMutability": "view",
      "type": "function"
    },
    {
      "inputs": [],
      "name": "lockedRatio",
      "outputs": [
        {
          "internalType": "uint256",
          "name": "",
          "type": "uint256"
        }
      ],
      "stateMutability": "view",
      "type": "function"
    },
    {
      "inputs": [],
      "name": "manager",
      "outputs": [
        {
          "internalType": "address",
          "name": "",
          "type": "address"
        }
      ],
      "stateMutability": "view",
      "type": "function"
    },
    {
      "inputs": [
        {
          "internalType": "address",
          "name": "account",
          "type": "address"
        }
      ],
      "name": "maxWithdrawAmount",
      "outputs": [
        {
          "internalType": "uint256",
          "name": "",
          "type": "uint256"
        }
      ],
      "stateMutability": "view",
      "type": "function"
    },
    {
      "inputs": [],
      "name": "maxWithdrawableShares",
      "outputs": [
        {
          "internalType": "uint256",
          "name": "",
          "type": "uint256"
        }
      ],
      "stateMutability": "view",
      "type": "function"
    },
    {
      "inputs": [],
      "name": "migrate",
      "outputs": [],
      "stateMutability": "nonpayable",
      "type": "function"
    },
    {
      "inputs": [],
      "name": "name",
      "outputs": [
        {
          "internalType": "string",
          "name": "",
          "type": "string"
        }
      ],
      "stateMutability": "view",
      "type": "function"
    },
    {
      "inputs": [],
      "name": "nextOption",
      "outputs": [
        {
          "internalType": "address",
          "name": "",
          "type": "address"
        }
      ],
      "stateMutability": "view",
      "type": "function"
    },
    {
      "inputs": [],
      "name": "nextOptionReadyAt",
      "outputs": [
        {
          "internalType": "uint256",
          "name": "",
          "type": "uint256"
        }
      ],
      "stateMutability": "view",
      "type": "function"
    },
    {
      "inputs": [],
      "name": "owner",
      "outputs": [
        {
          "internalType": "address",
          "name": "",
          "type": "address"
        }
      ],
      "stateMutability": "view",
      "type": "function"
    },
    {
      "inputs": [],
      "name": "registry",
      "outputs": [
        {
          "internalType": "contract IVaultRegistry",
          "name": "",
          "type": "address"
        }
      ],
      "stateMutability": "view",
      "type": "function"
    },
    {
      "inputs": [],
      "name": "renounceOwnership",
      "outputs": [],
      "stateMutability": "nonpayable",
      "type": "function"
    },
    {
      "inputs": [],
      "name": "replacementVault",
      "outputs": [
        {
          "internalType": "contract IRibbonV2Vault",
          "name": "",
          "type": "address"
        }
      ],
      "stateMutability": "view",
      "type": "function"
    },
    {
      "inputs": [],
      "name": "rollToNextOption",
      "outputs": [],
      "stateMutability": "nonpayable",
      "type": "function"
    },
    {
      "inputs": [
        {
          "components": [
            {
              "internalType": "uint256",
              "name": "nonce",
              "type": "uint256"
            },
            {
              "internalType": "uint256",
              "name": "expiry",
              "type": "uint256"
            },
            {
              "components": [
                {
                  "internalType": "bytes4",
                  "name": "kind",
                  "type": "bytes4"
                },
                {
                  "internalType": "address",
                  "name": "wallet",
                  "type": "address"
                },
                {
                  "internalType": "address",
                  "name": "token",
                  "type": "address"
                },
                {
                  "internalType": "uint256",
                  "name": "amount",
                  "type": "uint256"
                },
                {
                  "internalType": "uint256",
                  "name": "id",
                  "type": "uint256"
                }
              ],
              "internalType": "struct Types.Party",
              "name": "signer",
              "type": "tuple"
            },
            {
              "components": [
                {
                  "internalType": "bytes4",
                  "name": "kind",
                  "type": "bytes4"
                },
                {
                  "internalType": "address",
                  "name": "wallet",
                  "type": "address"
                },
                {
                  "internalType": "address",
                  "name": "token",
                  "type": "address"
                },
                {
                  "internalType": "uint256",
                  "name": "amount",
                  "type": "uint256"
                },
                {
                  "internalType": "uint256",
                  "name": "id",
                  "type": "uint256"
                }
              ],
              "internalType": "struct Types.Party",
              "name": "sender",
              "type": "tuple"
            },
            {
              "components": [
                {
                  "internalType": "bytes4",
                  "name": "kind",
                  "type": "bytes4"
                },
                {
                  "internalType": "address",
                  "name": "wallet",
                  "type": "address"
                },
                {
                  "internalType": "address",
                  "name": "token",
                  "type": "address"
                },
                {
                  "internalType": "uint256",
                  "name": "amount",
                  "type": "uint256"
                },
                {
                  "internalType": "uint256",
                  "name": "id",
                  "type": "uint256"
                }
              ],
              "internalType": "struct Types.Party",
              "name": "affiliate",
              "type": "tuple"
            },
            {
              "components": [
                {
                  "internalType": "address",
                  "name": "signatory",
                  "type": "address"
                },
                {
                  "internalType": "address",
                  "name": "validator",
                  "type": "address"
                },
                {
                  "internalType": "bytes1",
                  "name": "version",
                  "type": "bytes1"
                },
                {
                  "internalType": "uint8",
                  "name": "v",
                  "type": "uint8"
                },
                {
                  "internalType": "bytes32",
                  "name": "r",
                  "type": "bytes32"
                },
                {
                  "internalType": "bytes32",
                  "name": "s",
                  "type": "bytes32"
                }
              ],
              "internalType": "struct Types.Signature",
              "name": "signature",
              "type": "tuple"
            }
          ],
          "internalType": "struct Types.Order",
          "name": "order",
          "type": "tuple"
        }
      ],
      "name": "sellOptions",
      "outputs": [],
      "stateMutability": "nonpayable",
      "type": "function"
    },
    {
      "inputs": [
        {
          "internalType": "uint256",
          "name": "newCap",
          "type": "uint256"
        }
      ],
      "name": "setCap",
      "outputs": [],
      "stateMutability": "nonpayable",
      "type": "function"
    },
    {
      "inputs": [
        {
          "internalType": "address",
          "name": "newFeeRecipient",
          "type": "address"
        }
      ],
      "name": "setFeeRecipient",
      "outputs": [],
      "stateMutability": "nonpayable",
      "type": "function"
    },
    {
      "inputs": [
        {
          "internalType": "address",
          "name": "newManager",
          "type": "address"
        }
      ],
      "name": "setManager",
      "outputs": [],
      "stateMutability": "nonpayable",
      "type": "function"
    },
    {
      "inputs": [
        {
          "internalType": "uint256",
          "name": "newWithdrawalFee",
          "type": "uint256"
        }
      ],
      "name": "setWithdrawalFee",
      "outputs": [],
      "stateMutability": "nonpayable",
      "type": "function"
    },
    {
      "inputs": [
        {
          "internalType": "address",
          "name": "upgradeTo",
          "type": "address"
        }
      ],
      "name": "sunset",
      "outputs": [],
      "stateMutability": "nonpayable",
      "type": "function"
    },
    {
      "inputs": [],
      "name": "symbol",
      "outputs": [
        {
          "internalType": "string",
          "name": "",
          "type": "string"
        }
      ],
      "stateMutability": "view",
      "type": "function"
    },
    {
      "inputs": [],
      "name": "totalBalance",
      "outputs": [
        {
          "internalType": "uint256",
          "name": "",
          "type": "uint256"
        }
      ],
      "stateMutability": "view",
      "type": "function"
    },
    {
      "inputs": [],
      "name": "totalSupply",
      "outputs": [
        {
          "internalType": "uint256",
          "name": "",
          "type": "uint256"
        }
      ],
      "stateMutability": "view",
      "type": "function"
    },
    {
      "inputs": [
        {
          "internalType": "address",
          "name": "recipient",
          "type": "address"
        },
        {
          "internalType": "uint256",
          "name": "amount",
          "type": "uint256"
        }
      ],
      "name": "transfer",
      "outputs": [
        {
          "internalType": "bool",
          "name": "",
          "type": "bool"
        }
      ],
      "stateMutability": "nonpayable",
      "type": "function"
    },
    {
      "inputs": [
        {
          "internalType": "address",
          "name": "sender",
          "type": "address"
        },
        {
          "internalType": "address",
          "name": "recipient",
          "type": "address"
        },
        {
          "internalType": "uint256",
          "name": "amount",
          "type": "uint256"
        }
      ],
      "name": "transferFrom",
      "outputs": [
        {
          "internalType": "bool",
          "name": "",
          "type": "bool"
        }
      ],
      "stateMutability": "nonpayable",
      "type": "function"
    },
    {
      "inputs": [
        {
          "internalType": "address",
          "name": "newOwner",
          "type": "address"
        }
      ],
      "name": "transferOwnership",
      "outputs": [],
      "stateMutability": "nonpayable",
      "type": "function"
    },
    {
      "inputs": [],
      "name": "underlying",
      "outputs": [
        {
          "internalType": "address",
          "name": "",
          "type": "address"
        }
      ],
      "stateMutability": "view",
      "type": "function"
    },
    {
      "inputs": [
        {
          "internalType": "uint256",
          "name": "share",
          "type": "uint256"
        }
      ],
      "name": "withdraw",
      "outputs": [],
      "stateMutability": "nonpayable",
      "type": "function"
    },
    {
      "inputs": [
        {
          "internalType": "uint256",
          "name": "share",
          "type": "uint256"
        }
      ],
      "name": "withdrawAmountWithShares",
      "outputs": [
        {
          "internalType": "uint256",
          "name": "amountAfterFee",
          "type": "uint256"
        },
        {
          "internalType": "uint256",
          "name": "feeAmount",
          "type": "uint256"
        }
      ],
      "stateMutability": "view",
      "type": "function"
    },
    {
      "inputs": [
        {
          "internalType": "uint256",
          "name": "share",
          "type": "uint256"
        }
      ],
      "name": "withdrawETH",
      "outputs": [],
      "stateMutability": "nonpayable",
      "type": "function"
    },
    {
      "inputs": [
        {
          "internalType": "address",
          "name": "recipient",
          "type": "address"
        },
        {
          "internalType": "uint256",
          "name": "amount",
          "type": "uint256"
        }
      ],
      "name": "withdrawOption",
      "outputs": [],
      "stateMutability": "nonpayable",
      "type": "function"
    },
    {
      "inputs": [
        {
          "internalType": "uint256",
          "name": "share",
          "type": "uint256"
        },
        {
          "internalType": "address",
          "name": "vault",
          "type": "address"
        }
      ],
      "name": "withdrawToV1Vault",
      "outputs": [],
      "stateMutability": "nonpayable",
      "type": "function"
    }
  ],
  "transactionHash": "0x8c59d6cf5f0fbd9096a7ce172c6c0d18c03e3047a136edd793e2e2ec2f868549",
  "args": [
    "0xd0A1E359811322d97991E03f863a0C30C2cF029C",
    "0x5bf2443d5801CfBACfa4637d8e3F07643611Ecf5",
    "0x8AB81E5d87b31F179f25dEE10A20b138C7E4f290",
    "0xd0A1E359811322d97991E03f863a0C30C2cF029C",
    "0x7e6edA50d1c833bE936492BF42C1BF376239E9e2",
    "0x79fb4604f2D7bD558Cda0DFADb7d61D98b28CA9f",
    18,
    "10000000000",
    false
  ],
  "numDeployments": 1,
  "solcInputHash": "cb6305477209f66e7292929b949163ad",
  "bytecode": "0x6101c06040523480156200001257600080fd5b5060405162005ab838038062005ab8833981016040819052620000359162000327565b6001600160a01b038916620000675760405162461bcd60e51b81526004016200005e9062000485565b60405180910390fd5b6001600160a01b038816620000905760405162461bcd60e51b81526004016200005e9062000564565b6001600160a01b038716620000b95760405162461bcd60e51b81526004016200005e90620004f7565b6001600160a01b038616620000e25760405162461bcd60e51b81526004016200005e906200043c565b6001600160a01b0385166200010b5760405162461bcd60e51b81526004016200005e906200051b565b6001600160a01b038416620001345760405162461bcd60e51b81526004016200005e90620004cf565b60008360ff16116200015a5760405162461bcd60e51b81526004016200005e906200045c565b600082116200017d5760405162461bcd60e51b81526004016200005e90620004a6565b604080518082018252600a8152694f50594e5f47414d4d4160b01b60208201529051635e26110960e11b815289916000916001600160a01b0384169163bc4c221291620001ce9190600401620003e6565b60206040518083038186803b158015620001e757600080fd5b505afa158015620001fc573d6000803e3d6000fd5b505050506040513d601f19601f8201168201806040525081019062000222919062000303565b90506001600160a01b0381166200024d5760405162461bcd60e51b81526004016200005e906200053b565b826200025a578a6200025c565b865b6001600160601b0319606091821b811660c0529b811b8c1660e05290811b8b1660805297881b8a1660a0525094861b88166101005292851b871661012052931b909416610180527fff0000000000000000000000000000000000000000000000000000000000000060f892831b16610160526101a09390935291151590911b610140525062000587565b80516001600160a01b0381168114620002fe57600080fd5b919050565b60006020828403121562000315578081fd5b6200032082620002e6565b9392505050565b60008060008060008060008060006101208a8c03121562000346578485fd5b620003518a620002e6565b98506200036160208b01620002e6565b97506200037160408b01620002e6565b96506200038160608b01620002e6565b95506200039160808b01620002e6565b9450620003a160a08b01620002e6565b935060c08a015160ff81168114620003b7578384fd5b60e08b01516101008c015191945092508015158114620003d5578182fd5b809150509295985092959850929598565b6000602080835283518082850152825b818110156200041457858101830151858201604001528201620003f6565b81811115620004265783604083870101525b50601f01601f1916929092016040019392505050565b602080825260069082015265042beeecae8d60d31b604082015260600190565b6020808252600f908201526e215f746f6b656e446563696d616c7360881b604082015260600190565b6020808252600790820152660857d85cdcd95d60ca1b604082015260600190565b6020808252600f908201526e215f6d696e696d756d537570706c7960881b604082015260600190565b6020808252600e908201526d0857dcddd85c10dbdb9d1c9858dd60921b604082015260600190565b6020808252600a9082015269215f726567697374727960b01b604082015260600190565b602080825260069082015265215f7573646360d01b604082015260600190565b6020808252600f908201526e1059185c1d195c881b9bdd081cd95d608a1b604082015260600190565b602080825260099082015268215f666163746f727960b81b604082015260600190565b60805160601c60a05160601c60c05160601c60e05160601c6101005160601c6101205160601c6101405160f81c6101605160f81c6101805160601c6101a0516153ff620006b960003980610ebd52806118e55280611925528061248e528061307952806130f2525080610e4b5280611d3c5280611e95525080610bcc525080611caf528061230252806132a1528061340c52508061108c5280611b06528061364152508061176a52806120bd5280612153528061235152806123e2525080610eed52806134bf525080610b9b5280610bf65280610dde52806111b5528061179352806118675280611e0e52806120e7528061237b52806126445280612b455280613580525080610fb552806125815250806109ea5280611cfb52806128495280613358528061388952506153ff6000f3fe6080604052600436106103975760003560e01c80639ab8367e116101dc578063c66f245511610102578063f14210a6116100a0578063f6bca1201161006f578063f6bca12014610989578063f8432a1b1461099e578063f870316f146109b3578063faec2233146109d357610397565b8063f14210a61461092c578063f2fde38b1461094c578063f3c274a61461096c578063f6326fb31461098157610397565b8063dc7900f7116100dc578063dc7900f7146108b7578063dd62ed3e146108d7578063de2fbaba146108f7578063e74b981b1461090c57610397565b8063c66f24551461086d578063cf3afa5114610882578063d0ebdbe71461089757610397565b8063aa7ebfe11161017a578063b6b55f2511610149578063b6b55f25146107ea578063b81f28531461080a578063b9f8092b14610838578063ba3f6bd81461084d57610397565b8063aa7ebfe114610780578063ac1e5025146107a0578063ad5c4648146107c0578063ad7a672f146107d557610397565b8063a2db9d83116101b6578063a2db9d8314610716578063a457c2d71461072b578063a8e0bcec1461074b578063a9059cbb1461076057610397565b80639ab8367e146106c15780639ec7aaad146106e1578063a285c9e81461070157610397565b8063538130bd116102c1578063715018a61161025f5780638b10cc7c1161022e5780638b10cc7c1461066d5780638da5cb5b146106825780638fd3ab801461069757806395d89b41146106ac57610397565b8063715018a61461060e5780637b103999146106235780637fab46bb1461063857806389a302711461065857610397565b80636ab28bc81161029b5780636ab28bc8146105af5780636b34128c146105c45780636f307dc3146105d957806370a08231146105ee57610397565b8063538130bd146105655780636a42b8f8146105855780636a56e0461461059a57610397565b8063355274ea116103395780633f23bb73116103085780633f23bb73146104fb578063469048401461051b57806347786d3714610530578063481c6a751461055057610397565b8063355274ea1461049c57806338d52e0f146104b157806339509351146104c65780633e52583d146104e657610397565b806318160ddd1161037557806318160ddd1461041657806323b872dd146104385780632e1a7d4d14610458578063313ce5671461047a57610397565b806303eadcfc1461039c57806306fdde03146103c7578063095ea7b3146103e9575b600080fd5b3480156103a857600080fd5b506103b16109e8565b6040516103be919061441e565b60405180910390f35b3480156103d357600080fd5b506103dc610a0c565b6040516103be91906144e7565b3480156103f557600080fd5b5061040961040436600461420c565b610aa3565b6040516103be91906144dc565b34801561042257600080fd5b5061042b610ac1565b6040516103be9190615282565b34801561044457600080fd5b50610409610453366004614130565b610ac7565b34801561046457600080fd5b50610478610473366004614327565b610b4f565b005b34801561048657600080fd5b5061048f610bca565b6040516103be91906152e5565b3480156104a857600080fd5b5061042b610bee565b3480156104bd57600080fd5b506103b1610bf4565b3480156104d257600080fd5b506104096104e136600461420c565b610c18565b3480156104f257600080fd5b506103b1610c66565b34801561050757600080fd5b5061042b6105163660046140c0565b610c75565b34801561052757600080fd5b506103b1610c9d565b34801561053c57600080fd5b5061047861054b366004614327565b610cac565b34801561055c57600080fd5b506103b1610d1e565b34801561057157600080fd5b50610478610580366004614315565b610d2d565b34801561059157600080fd5b5061042b610eb5565b3480156105a657600080fd5b5061042b610ebb565b3480156105bb57600080fd5b5061042b610edf565b3480156105d057600080fd5b5061042b610ee5565b3480156105e557600080fd5b506103b1610eeb565b3480156105fa57600080fd5b5061042b6106093660046140c0565b610f0f565b34801561061a57600080fd5b50610478610f2a565b34801561062f57600080fd5b506103b1610fb3565b34801561064457600080fd5b5061047861065336600461420c565b610fd7565b34801561066457600080fd5b506103b161108a565b34801561067957600080fd5b506103b16110ae565b34801561068e57600080fd5b506103b16110bd565b3480156106a357600080fd5b506104786110cc565b3480156106b857600080fd5b506103dc611248565b3480156106cd57600080fd5b506104786106dc366004614170565b6112a9565b3480156106ed57600080fd5b506104786106fc3660046140c0565b611490565b34801561070d57600080fd5b5061042b61154b565b34801561072257600080fd5b506103b1611551565b34801561073757600080fd5b5061040961074636600461420c565b611560565b34801561075757600080fd5b5061042b6115c8565b34801561076c57600080fd5b5061040961077b36600461420c565b61166b565b34801561078c57600080fd5b5061042b61079b366004614327565b61167f565b3480156107ac57600080fd5b506104786107bb366004614327565b6116b4565b3480156107cc57600080fd5b506103b1611768565b3480156107e157600080fd5b5061042b61178c565b3480156107f657600080fd5b50610478610805366004614327565b611832565b34801561081657600080fd5b5061082a610825366004614327565b61189f565b6040516103be9291906152a2565b34801561084457600080fd5b50610478611986565b34801561085957600080fd5b5061042b6108683660046140c0565b611db1565b34801561087957600080fd5b5061042b611df4565b34801561088e57600080fd5b506103b1611e93565b3480156108a357600080fd5b506104786108b23660046140c0565b611eb7565b3480156108c357600080fd5b506104786108d23660046142fe565b611f6f565b3480156108e357600080fd5b5061042b6108f23660046140f8565b611fd2565b34801561090357600080fd5b5061042b611ffd565b34801561091857600080fd5b506104786109273660046140c0565b612009565b34801561093857600080fd5b50610478610947366004614327565b612090565b34801561095857600080fd5b506104786109673660046140c0565b61223f565b34801561097857600080fd5b50610409612300565b610478612324565b34801561099557600080fd5b5061042b612463565b3480156109aa57600080fd5b506104786124c9565b3480156109bf57600080fd5b506104786109ce366004614357565b6124f9565b3480156109df57600080fd5b506104786127a6565b7f000000000000000000000000000000000000000000000000000000000000000081565b609a8054604080516020601f6002600019610100600188161502019095169490940493840181900481028201810190925282815260609390929091830182828015610a985780601f10610a6d57610100808354040283529160200191610a98565b820191906000526020600020905b815481529060010190602001808311610a7b57829003601f168201915b505050505090505b90565b6000610ab7610ab06128c3565b84846128c7565b5060015b92915050565b60995490565b6000610ad484848461297b565b610b4484610ae06128c3565b610b3f8560405180606001604052806028815260200161537d602891396001600160a01b038a16600090815260986020526040812090610b1e6128c3565b6001600160a01b031681526020810191909152604001600020549190612a90565b6128c7565b5060015b9392505050565b60026001541415610b7b5760405162461bcd60e51b8152600401610b7290614f1c565b60405180910390fd5b60026001556000610b8c8282612abc565b9050610bc26001600160a01b037f0000000000000000000000000000000000000000000000000000000000000000163383612b76565b505060018055565b7f000000000000000000000000000000000000000000000000000000000000000090565b60cf5481565b7f000000000000000000000000000000000000000000000000000000000000000081565b6000610ab7610c256128c3565b84610b3f8560986000610c366128c3565b6001600160a01b03908116825260208083019390935260409182016000908120918c168152925290205490612bcc565b60d4546001600160a01b031681565b600080610c91610c8484610f0f565b610c8c611df4565b612bf1565b5090925050505b919050565b60d1546001600160a01b031681565b60ca546001600160a01b03163314610cd65760405162461bcd60e51b8152600401610b7290614aad565b60cf8054908290556040517f0e45875b8819e52adac9df2787285bc765235018d84ab492668edfcf944628c490610d12908390859033906152b0565b60405180910390a15050565b60ca546001600160a01b031681565b60ca546001600160a01b03163314610d575760405162461bcd60e51b8152600401610b7290614aad565b30610d6a610120830161010084016140c0565b6001600160a01b031614610d905760405162461bcd60e51b8152600401610b72906145ed565b60cd546001600160a01b0316610dae610140830161012084016140c0565b6001600160a01b031614610dd45760405162461bcd60e51b8152600401610b729061480a565b6001600160a01b037f000000000000000000000000000000000000000000000000000000000000000016610e0e60a08301608084016140c0565b6001600160a01b031614610e345760405162461bcd60e51b8152600401610b7290614df7565b6040516367641c2f60e01b81526001600160a01b037f000000000000000000000000000000000000000000000000000000000000000016906367641c2f90610e809084906004016151a0565b600060405180830381600087803b158015610e9a57600080fd5b505af1158015610eae573d6000803e3d6000fd5b5050505050565b610e1081565b7f000000000000000000000000000000000000000000000000000000000000000081565b60ce5481565b60d05481565b7f000000000000000000000000000000000000000000000000000000000000000081565b6001600160a01b031660009081526097602052604090205490565b610f326128c3565b6001600160a01b0316610f436110bd565b6001600160a01b031614610f695760405162461bcd60e51b8152600401610b7290614ad3565b6065546040516000916001600160a01b0316907f8be0079c531659141344cd1fd0a4f28419497f9722a3daafe3b4186f6b6457e0908390a3606580546001600160a01b0319169055565b7f000000000000000000000000000000000000000000000000000000000000000081565b60ca546001600160a01b031633146110015760405162461bcd60e51b8152600401610b7290614aad565b60cd5460405163a9059cbb60e01b81526001600160a01b039091169063a9059cbb9061103390859085906004016144c3565b602060405180830381600087803b15801561104d57600080fd5b505af1158015611061573d6000803e3d6000fd5b505050506040513d601f19601f820116820180604052508101906110859190614237565b505050565b7f000000000000000000000000000000000000000000000000000000000000000081565b60cd546001600160a01b031681565b6065546001600160a01b031690565b600260015414156110ef5760405162461bcd60e51b8152600401610b7290614f1c565b600260015560d4546001600160a01b03168061111d5760405162461bcd60e51b8152600401610b7290614b3f565b6000611127612463565b9050600061113433610f0f565b905060006111428383612c4b565b90506000806111508361189f565b909250905061115f8282612bcc565b91507fd616b8856fa5febbdb06f07dd8d624380d02864619f3b796002f43bc36a4d1bc338785856040516111969493929190614432565b60405180910390a16111a83384612c62565b6111dc6001600160a01b037f0000000000000000000000000000000000000000000000000000000000000000168784612d44565b6040516336efd16f60e01b81526001600160a01b038716906336efd16f9061120a908590339060040161528b565b600060405180830381600087803b15801561122457600080fd5b505af1158015611238573d6000803e3d6000fd5b5050600180555050505050505050565b609b8054604080516020601f6002600019610100600188161502019095169490940493840181900481028201810190925282815260609390929091830182828015610a985780601f10610a6d57610100808354040283529160200191610a98565b600054610100900460ff16806112c257506112c2612e07565b806112d0575060005460ff16155b6112ec5760405162461bcd60e51b8152600401610b72906149dd565b600054610100900460ff16158015611317576000805460ff1961ff0019909116610100171660011790555b6001600160a01b03881661133d5760405162461bcd60e51b8152600401610b7290614a2b565b6001600160a01b0387166113635760405162461bcd60e51b8152600401610b7290614c67565b600086116113835760405162461bcd60e51b8152600401610b7290615077565b836113a05760405162461bcd60e51b8152600401610b72906147e0565b816113bd5760405162461bcd60e51b8152600401610b7290614f53565b6113c5612e18565b61143885858080601f01602080910402602001604051908101604052809392919081815260200183838082843760009201919091525050604080516020601f89018190048102820181019092528781529250879150869081908401838280828437600092019190915250612ea392505050565b611440612f39565b6114498861223f565b60cf8690556611c37937e0800060d05560d180546001600160a01b0319166001600160a01b0389161790558015611486576000805461ff00191690555b5050505050505050565b6114986128c3565b6001600160a01b03166114a96110bd565b6001600160a01b0316146114cf5760405162461bcd60e51b8152600401610b7290614ad3565b6001600160a01b0381166114f55760405162461bcd60e51b8152600401610b729061451a565b60d480546001600160a01b0319166001600160a01b0383161790556040517f1f7dd14c4cfe82fd374c1bb5dfc3dd254b087a032c9dcfd13aeefa9f6689d8699061154090839061441e565b60405180910390a150565b60cc5481565b60cb546001600160a01b031681565b6000610ab761156d6128c3565b84610b3f856040518060600160405280602581526020016153a560259139609860006115976128c3565b6001600160a01b03908116825260208083019390935260409182016000908120918d16815292529020549190612a90565b60cd546000906001600160a01b0316806115e6576000915050610aa0565b60cd54604080516356f3715560e11b815290516001600160a01b0390921691829163ade6e2aa916004808301926020929190829003018186803b15801561162c57600080fd5b505afa158015611640573d6000803e3d6000fd5b505050506040513d601f19601f82011682018060405250810190611664919061433f565b9250505090565b6000610ab76116786128c3565b848461297b565b60008061169661168d611df4565b60ce5490612bcc565b9050610b48816116ae6116a7610ac1565b8690612fb7565b90612ff1565b60ca546001600160a01b031633146116de5760405162461bcd60e51b8152600401610b7290614aad565b600081116116fe5760405162461bcd60e51b8152600401610b7290614b8c565b670429d069189e000081106117255760405162461bcd60e51b8152600401610b7290614e2e565b60d0546040517f28a572c8c759d40c2d26dcdaaefd9650e9e37ff11ee147ce0f645cd7664048cb9061175a90839085906152a2565b60405180910390a15060d055565b7f000000000000000000000000000000000000000000000000000000000000000081565b600061182d7f00000000000000000000000000000000000000000000000000000000000000006001600160a01b03166370a08231306040518263ffffffff1660e01b81526004016117dd919061441e565b60206040518083038186803b1580156117f557600080fd5b505afa158015611809573d6000803e3d6000fd5b505050506040513d601f19601f8201168201806040525081019061168d919061433f565b905090565b600260015414156118555760405162461bcd60e51b8152600401610b7290614f1c565b600260015561188f6001600160a01b037f000000000000000000000000000000000000000000000000000000000000000016333084613023565b6118988161304a565b5060018055565b60008060006118ac611df4565b905060008060006118bd8785612bf1565b925092509250838311156118e35760405162461bcd60e51b8152600401610b7290614fd5565b7f00000000000000000000000000000000000000000000000000000000000000008110156119235760405162461bcd60e51b8152600401610b72906145b6565b7f00000000000000000000000000000000000000000000000000000000000000008210156119635760405162461bcd60e51b8152600401610b7290614d89565b61196f8360d054613186565b945061197b83866131b3565b955050505050915091565b60ca546001600160a01b031633146119b05760405162461bcd60e51b8152600401610b7290614aad565b600260015414156119d35760405162461bcd60e51b8152600401610b7290614f1c565b600260015560cc544210156119fa5760405162461bcd60e51b8152600401610b7290614b08565b60cb546001600160a01b031680611a235760405162461bcd60e51b8152600401610b7290614b63565b60cd80546001600160a01b0383166001600160a01b03199182161790915560cb805490911690556000611a54611df4565b90506000611a6a82670de0b6b3a7640000613186565b60ce819055905082611a7a613f89565b6040518060e00160405280836001600160a01b0316637158da7c6040518163ffffffff1660e01b815260040160206040518083038186803b158015611abe57600080fd5b505afa158015611ad2573d6000803e3d6000fd5b505050506040513d601f19601f82011682018060405250810190611af691906140dc565b6001600160a01b031681526020017f00000000000000000000000000000000000000000000000000000000000000006001600160a01b03168152602001836001600160a01b031663aabaecd66040518163ffffffff1660e01b815260040160206040518083038186803b158015611b6c57600080fd5b505afa158015611b80573d6000803e3d6000fd5b505050506040513d601f19601f82011682018060405250810190611ba491906140dc565b6001600160a01b03168152602001836001600160a01b031663ade6e2aa6040518163ffffffff1660e01b815260040160206040518083038186803b158015611beb57600080fd5b505afa158015611bff573d6000803e3d6000fd5b505050506040513d601f19601f82011682018060405250810190611c23919061433f565b8152602001611ca86402540be400856001600160a01b031663c52987cf6040518163ffffffff1660e01b815260040160206040518083038186803b158015611c6a57600080fd5b505afa158015611c7e573d6000803e3d6000fd5b505050506040513d601f19601f82011682018060405250810190611ca2919061433f565b90612fb7565b81526020017f0000000000000000000000000000000000000000000000000000000000000000611cd9576002611cdc565b60015b6002811115611ce757fe5b815260006020909101819052909150611d2a7f00000000000000000000000000000000000000000000000000000000000000006001600160a01b031683866131db565b905085611d616001600160a01b0382167f000000000000000000000000000000000000000000000000000000000000000084612d44565b866001600160a01b03167f045c558fdce4714c5816d53820d27420f4cd860892df203fe636384d8d19aa018633604051611d9c92919061528b565b60405180910390a25050600180555050505050565b600080611dbc612463565b90506000611dc984610f0f565b90506000611dd78383612c4b565b90506000611de782610c8c611df4565b5090979650505050505050565b6040516370a0823160e01b81526000906001600160a01b037f000000000000000000000000000000000000000000000000000000000000000016906370a0823190611e4390309060040161441e565b60206040518083038186803b158015611e5b57600080fd5b505afa158015611e6f573d6000803e3d6000fd5b505050506040513d601f19601f8201168201806040525081019061182d919061433f565b7f000000000000000000000000000000000000000000000000000000000000000081565b611ebf6128c3565b6001600160a01b0316611ed06110bd565b6001600160a01b031614611ef65760405162461bcd60e51b8152600401610b7290614ad3565b6001600160a01b038116611f1c5760405162461bcd60e51b8152600401610b7290614861565b60ca80546001600160a01b038381166001600160a01b03198316179092556040519116907f605c2dbf762e5f7d60a546d42e7205dcb1b011ebc62a61736a57c9089d3a435090610d129083908590614485565b60ca546001600160a01b03163314611f995760405162461bcd60e51b8152600401610b7290614aad565b60026001541415611fbc5760405162461bcd60e51b8152600401610b7290614f1c565b6002600155611fca8161329f565b6118986137c8565b6001600160a01b03918216600090815260986020908152604080832093909416825291909152205490565b670de0b6b3a764000081565b6120116128c3565b6001600160a01b03166120226110bd565b6001600160a01b0316146120485760405162461bcd60e51b8152600401610b7290614ad3565b6001600160a01b03811661206e5760405162461bcd60e51b8152600401610b7290614994565b60d180546001600160a01b0319166001600160a01b0392909216919091179055565b600260015414156120b35760405162461bcd60e51b8152600401610b7290614f1c565b60026001819055507f00000000000000000000000000000000000000000000000000000000000000006001600160a01b03167f00000000000000000000000000000000000000000000000000000000000000006001600160a01b03161461212c5760405162461bcd60e51b8152600401610b72906149be565b6000612139826000612abc565b604051632e1a7d4d60e01b81529091506001600160a01b037f00000000000000000000000000000000000000000000000000000000000000001690632e1a7d4d90612188908490600401615282565b600060405180830381600087803b1580156121a257600080fd5b505af11580156121b6573d6000803e3d6000fd5b505050506000336001600160a01b0316826040516121d390610aa0565b60006040518083038185875af1925050503d8060008114612210576040519150601f19603f3d011682016040523d82523d6000602084013e612215565b606091505b50509050806122365760405162461bcd60e51b8152600401610b7290614d18565b50506001805550565b6122476128c3565b6001600160a01b03166122586110bd565b6001600160a01b03161461227e5760405162461bcd60e51b8152600401610b7290614ad3565b6001600160a01b0381166122a45760405162461bcd60e51b8152600401610b729061468e565b6065546040516001600160a01b038084169216907f8be0079c531659141344cd1fd0a4f28419497f9722a3daafe3b4186f6b6457e090600090a3606580546001600160a01b0319166001600160a01b0392909216919091179055565b7f000000000000000000000000000000000000000000000000000000000000000081565b600260015414156123475760405162461bcd60e51b8152600401610b7290614f1c565b60026001819055507f00000000000000000000000000000000000000000000000000000000000000006001600160a01b03167f00000000000000000000000000000000000000000000000000000000000000006001600160a01b0316146123c05760405162461bcd60e51b8152600401610b7290614969565b600034116123e05760405162461bcd60e51b8152600401610b7290614bb8565b7f00000000000000000000000000000000000000000000000000000000000000006001600160a01b031663d0e30db0346040518263ffffffff1660e01b81526004016000604051808303818588803b15801561243b57600080fd5b505af115801561244f573d6000803e3d6000fd5b505050505061245d3461304a565b60018055565b60008061246e611df4565b905060006124878260ce54612bcc90919063ffffffff16565b90506116647f00000000000000000000000000000000000000000000000000000000000000006124c3836116ae6124bc610ac1565b8790612fb7565b906131b3565b600260015414156124ec5760405162461bcd60e51b8152600401610b7290614f1c565b600260015561245d6137c8565b6002600154141561251c5760405162461bcd60e51b8152600401610b7290614f1c565b60026001556001600160a01b0381166125475760405162461bcd60e51b8152600401610b7290614a8d565b600082116125675760405162461bcd60e51b8152600401610b7290614841565b604051635cae8ec160e11b81526000906001600160a01b037f0000000000000000000000000000000000000000000000000000000000000000169063b95d1d82906125b89030908690600401614485565b602060405180830381600087803b1580156125d257600080fd5b505af11580156125e6573d6000803e3d6000fd5b505050506040513d601f19601f8201168201806040525081019061260a9190614237565b9050806126295760405162461bcd60e51b8152600401610b7290614cd3565b60006126358483612abc565b905061266b6001600160a01b037f0000000000000000000000000000000000000000000000000000000000000000168483612d44565b60405163b6b55f2560e01b81526001600160a01b0384169063b6b55f2590612697908490600401615282565b600060405180830381600087803b1580156126b157600080fd5b505af11580156126c5573d6000803e3d6000fd5b50506040516370a0823160e01b8152600092506001600160a01b03861691506370a08231906126f890309060040161441e565b60206040518083038186803b15801561271057600080fd5b505afa158015612724573d6000803e3d6000fd5b505050506040513d601f19601f82011682018060405250810190612748919061433f565b905061275e6001600160a01b0385163383612b76565b7f5f90971df3fde05a0e16e7c8443c9355874849fd9420a20689f967e82cce184733868684604051612793949392919061445b565b60405180910390a1505060018055505050565b60ca546001600160a01b031633146127d05760405162461bcd60e51b8152600401610b7290614aad565b600260015414156127f35760405162461bcd60e51b8152600401610b7290614f1c565b600260015560cd546001600160a01b0316806128215760405162461bcd60e51b8152600401610b7290615018565b60cd80546001600160a01b031990811690915560cb80549091169055600060ce8190556128767f00000000000000000000000000000000000000000000000000000000000000006001600160a01b0316613900565b9050816001600160a01b03167f7e830f7c1771deb1bdb35c4a7e6051bbac32b376f7f4e4976b8618b0b11997f782336040516128b392919061528b565b60405180910390a2505060018055565b3390565b6001600160a01b0383166128ed5760405162461bcd60e51b8152600401610b7290614d45565b6001600160a01b0382166129135760405162461bcd60e51b8152600401610b72906146d4565b6001600160a01b0380841660008181526098602090815260408083209487168084529490915290819020849055517f8c5be1e5ebec7d5bd14f71427d1e84f3dd0314c0f7b2291e5b200ac8c7c3b9259061296e908590615282565b60405180910390a3505050565b6001600160a01b0383166129a15760405162461bcd60e51b8152600401610b7290614c22565b6001600160a01b0382166129c75760405162461bcd60e51b8152600401610b729061453e565b6129d2838383611085565b612a0f81604051806060016040528060268152602001615357602691396001600160a01b0386166000908152609760205260409020549190612a90565b6001600160a01b038085166000908152609760205260408082209390935590841681522054612a3e9082612bcc565b6001600160a01b0380841660008181526097602052604090819020939093559151908516907fddf252ad1be2c89b69c2b068fc378daa952ba7f163c4a11628f55a4df523b3ef9061296e908590615282565b60008184841115612ab45760405162461bcd60e51b8152600401610b7291906144e7565b505050900390565b6000806000612aca8561189f565b915091508315612ae557612ade8282612bcc565b9150600090505b336001600160a01b03167f02f25270a4d87bea75db541cdfe559334a275b4a233520ed6c0a2429667cca94838784604051612b22939291906152cf565b60405180910390a2612b343386612c62565b60d154612b6e906001600160a01b037f00000000000000000000000000000000000000000000000000000000000000008116911683612b76565b509392505050565b6110858363a9059cbb60e01b8484604051602401612b959291906144c3565b60408051601f198184030181529190526020810180516001600160e01b03166001600160e01b0319909316929092179091526139b2565b600082820183811015610b485760405162461bcd60e51b8152600401610b7290614744565b600080600080612c0c8560ce54612bcc90919063ffffffff16565b90506000612c18610ac1565b9050612c28816116ae8985612fb7565b9450612c3482866131b3565b9350612c4081886131b3565b925050509250925092565b600081831115612c5b5781610b48565b5090919050565b6001600160a01b038216612c885760405162461bcd60e51b8152600401610b7290614be1565b612c9482600083611085565b612cd181604051806060016040528060228152602001615335602291396001600160a01b0385166000908152609760205260409020549190612a90565b6001600160a01b038316600090815260976020526040902055609954612cf790826131b3565b6099556040516000906001600160a01b038416907fddf252ad1be2c89b69c2b068fc378daa952ba7f163c4a11628f55a4df523b3ef90612d38908590615282565b60405180910390a35050565b801580612dcc5750604051636eb1769f60e11b81526001600160a01b0384169063dd62ed3e90612d7a9030908690600401614485565b60206040518083038186803b158015612d9257600080fd5b505afa158015612da6573d6000803e3d6000fd5b505050506040513d601f19601f82011682018060405250810190612dca919061433f565b155b612de85760405162461bcd60e51b8152600401610b7290614f7f565b6110858363095ea7b360e01b8484604051602401612b959291906144c3565b6000612e1230613a41565b15905090565b600054610100900460ff1680612e315750612e31612e07565b80612e3f575060005460ff16155b612e5b5760405162461bcd60e51b8152600401610b72906149dd565b600054610100900460ff16158015612e86576000805460ff1961ff0019909116610100171660011790555b612e8e613a47565b8015612ea0576000805461ff00191690555b50565b600054610100900460ff1680612ebc5750612ebc612e07565b80612eca575060005460ff16155b612ee65760405162461bcd60e51b8152600401610b72906149dd565b600054610100900460ff16158015612f11576000805460ff1961ff0019909116610100171660011790555b612f19613acd565b612f238383613b4e565b8015611085576000805461ff0019169055505050565b600054610100900460ff1680612f525750612f52612e07565b80612f60575060005460ff16155b612f7c5760405162461bcd60e51b8152600401610b72906149dd565b600054610100900460ff16158015612fa7576000805460ff1961ff0019909116610100171660011790555b612faf613acd565b612e8e613c07565b600082612fc657506000610abb565b82820282848281612fd357fe5b0414610b485760405162461bcd60e51b8152600401610b7290614a4c565b60008082116130125760405162461bcd60e51b8152600401610b7290614903565b81838161301b57fe5b049392505050565b613044846323b872dd60e01b858585604051602401612b959392919061449f565b50505050565b600061305461178c565b905060cf5481106130775760405162461bcd60e51b8152600401610b7290614ef6565b7f00000000000000000000000000000000000000000000000000000000000000008110156130b75760405162461bcd60e51b8152600401610b7290614d89565b60006130c382846131b3565b905060006130cf610ac1565b9050600081156130ec576130e7836116ae8785612fb7565b6130ee565b845b90507f000000000000000000000000000000000000000000000000000000000000000061311b8383612bcc565b10156131395760405162461bcd60e51b8152600401610b72906145b6565b336001600160a01b03167f90890809c654f11d6e72a28fa60149770a0d11ec6c92319d6ceb2bb0a4ea1a1586836040516131749291906152a2565b60405180910390a2610eae3382613ce1565b6000670de0b6b3a76400006131ac61319e8585613d95565b6706f05b59d3b20000613dcc565b8161301b57fe5b6000828211156131d55760405162461bcd60e51b8152600401610b7290614886565b50900390565b6000806060856001600160a01b031685856040516024016131fd929190615136565b60408051601f198184030181529181526020820180516001600160e01b0316630d87f58b60e31b179052516132329190614402565b600060405180830381855af49150503d806000811461326d576040519150601f19603f3d011682016040523d82523d6000602084013e613272565b606091505b50915091506132818282613def565b80806020019051810190613295919061433f565b9695505050505050565b7f0000000000000000000000000000000000000000000000000000000000000000156133045760016132d760c0830160a08401614257565b60028111156132e257fe5b146132ff5760405162461bcd60e51b8152600401610b7290614624565b61333e565b600261331660c0830160a08401614257565b600281111561332157fe5b1461333e5760405162461bcd60e51b8152600401610b729061466f565b604051633716662960e11b81526000906001600160a01b037f00000000000000000000000000000000000000000000000000000000000000001690636e2ccc529061338d90859060040161509d565b60206040518083038186803b1580156133a557600080fd5b505afa1580156133b9573d6000803e3d6000fd5b505050506040513d601f19601f820116820180604052508101906133dd91906140dc565b90506001600160a01b0381166134055760405162461bcd60e51b8152600401610b7290614ed5565b60008190507f00000000000000000000000000000000000000000000000000000000000000001515816001600160a01b031663f3c274a66040518163ffffffff1660e01b815260040160206040518083038186803b15801561346657600080fd5b505afa15801561347a573d6000803e3d6000fd5b505050506040513d601f19601f8201168201806040525081019061349e9190614237565b1515146134bd5760405162461bcd60e51b8152600401610b729061477b565b7f00000000000000000000000000000000000000000000000000000000000000006001600160a01b0316816001600160a01b0316637158da7c6040518163ffffffff1660e01b815260040160206040518083038186803b15801561352057600080fd5b505afa158015613534573d6000803e3d6000fd5b505050506040513d601f19601f8201168201806040525081019061355891906140dc565b6001600160a01b03161461357e5760405162461bcd60e51b8152600401610b729061493a565b7f00000000000000000000000000000000000000000000000000000000000000006001600160a01b0316816001600160a01b031663aabaecd66040518163ffffffff1660e01b815260040160206040518083038186803b1580156135e157600080fd5b505afa1580156135f5573d6000803e3d6000fd5b505050506040513d601f19601f8201168201806040525081019061361991906140dc565b6001600160a01b03161461363f5760405162461bcd60e51b8152600401610b7290614ea6565b7f00000000000000000000000000000000000000000000000000000000000000006001600160a01b0316816001600160a01b03166317d69bc86040518163ffffffff1660e01b815260040160206040518083038186803b1580156136a257600080fd5b505afa1580156136b6573d6000803e3d6000fd5b505050506040513d601f19601f820116820180604052508101906136da91906140dc565b6001600160a01b0316146137005760405162461bcd60e51b8152600401610b7290614642565b600061370e42610e10612bcc565b905080826001600160a01b031663ade6e2aa6040518163ffffffff1660e01b815260040160206040518083038186803b15801561374a57600080fd5b505afa15801561375e573d6000803e3d6000fd5b505050506040513d601f19601f82011682018060405250810190613782919061433f565b10156137a05760405162461bcd60e51b8152600401610b7290614c8f565b60cb80546001600160a01b0319166001600160a01b0394909416939093179092555060cc5550565b60cd80546001600160a01b03198116909155600060ce556001600160a01b03168015612ea0576000819050806001600160a01b031663ade6e2aa6040518163ffffffff1660e01b815260040160206040518083038186803b15801561382c57600080fd5b505afa158015613840573d6000803e3d6000fd5b505050506040513d601f19601f82011682018060405250810190613864919061433f565b42116138825760405162461bcd60e51b8152600401610b7290614581565b60006138b67f00000000000000000000000000000000000000000000000000000000000000006001600160a01b0316613900565b9050826001600160a01b03167f7e830f7c1771deb1bdb35c4a7e6051bbac32b376f7f4e4976b8618b0b11997f782336040516138f392919061528b565b60405180910390a2505050565b60408051600481526024810182526020810180516001600160e01b031663f8432a1b60e01b179052905160009182916060916001600160a01b038616916139479190614402565b600060405180830381855af49150503d8060008114613982576040519150601f19603f3d011682016040523d82523d6000602084013e613987565b606091505b50915091506139968282613def565b808060200190518101906139aa919061433f565b949350505050565b6060613a07826040518060400160405280602081526020017f5361666545524332303a206c6f772d6c6576656c2063616c6c206661696c6564815250856001600160a01b0316613e209092919063ffffffff16565b8051909150156110855780806020019051810190613a259190614237565b6110855760405162461bcd60e51b8152600401610b7290614e5c565b3b151590565b600054610100900460ff1680613a605750613a60612e07565b80613a6e575060005460ff16155b613a8a5760405162461bcd60e51b8152600401610b72906149dd565b600054610100900460ff16158015613ab5576000805460ff1961ff0019909116610100171660011790555b600180558015612ea0576000805461ff001916905550565b600054610100900460ff1680613ae65750613ae6612e07565b80613af4575060005460ff16155b613b105760405162461bcd60e51b8152600401610b72906149dd565b600054610100900460ff16158015612e8e576000805460ff1961ff0019909116610100171660011790558015612ea0576000805461ff001916905550565b600054610100900460ff1680613b675750613b67612e07565b80613b75575060005460ff16155b613b915760405162461bcd60e51b8152600401610b72906149dd565b600054610100900460ff16158015613bbc576000805460ff1961ff0019909116610100171660011790555b8251613bcf90609a906020860190613fc6565b508151613be390609b906020850190613fc6565b50609c805460ff191660121790558015611085576000805461ff0019169055505050565b600054610100900460ff1680613c205750613c20612e07565b80613c2e575060005460ff16155b613c4a5760405162461bcd60e51b8152600401610b72906149dd565b600054610100900460ff16158015613c75576000805460ff1961ff0019909116610100171660011790555b6000613c7f6128c3565b606580546001600160a01b0319166001600160a01b038316908117909155604051919250906000907f8be0079c531659141344cd1fd0a4f28419497f9722a3daafe3b4186f6b6457e0908290a3508015612ea0576000805461ff001916905550565b6001600160a01b038216613d075760405162461bcd60e51b8152600401610b7290615040565b613d1360008383611085565b609954613d209082612bcc565b6099556001600160a01b038216600090815260976020526040902054613d469082612bcc565b6001600160a01b0383166000818152609760205260408082209390935591519091907fddf252ad1be2c89b69c2b068fc378daa952ba7f163c4a11628f55a4df523b3ef90612d38908590615282565b6000811580613db057505080820282828281613dad57fe5b04145b610abb5760405162461bcd60e51b8152600401610b7290614716565b80820182811015610abb5760405162461bcd60e51b8152600401610b72906147b2565b8115613dfa57613e1c565b613e0381613e2f565b60405162461bcd60e51b8152600401610b7291906144e7565b5050565b60606139aa8484600085613e8f565b6060604482511015613e75575060408051808201909152601981527f50726f746f636f6c416461707465723a207265766572746564000000000000006020820152610c98565b60048201915081806020019051810190610abb9190614271565b606082471015613eb15760405162461bcd60e51b8152600401610b72906148bd565b613eba85613a41565b613ed65760405162461bcd60e51b8152600401610b7290614dc0565b60006060866001600160a01b03168587604051613ef39190614402565b60006040518083038185875af1925050503d8060008114613f30576040519150601f19603f3d011682016040523d82523d6000602084013e613f35565b606091505b5091509150613f45828286613f50565b979650505050505050565b60608315613f5f575081610b48565b825115613f6f5782518084602001fd5b8160405162461bcd60e51b8152600401610b7291906144e7565b6040805160e08101825260008082526020820181905291810182905260608101829052608081018290529060a08201908152600060209091015290565b828054600181600116156101000203166002900490600052602060002090601f016020900481019282601f1061400757805160ff1916838001178555614034565b82800160010185558215614034579182015b82811115614034578251825591602001919060010190614019565b50614040929150614044565b5090565b5b808211156140405760008155600101614045565b803560038110610c9857600080fd5b60008083601f840112614079578182fd5b50813567ffffffffffffffff811115614090578182fd5b6020830191508360208285010111156140a857600080fd5b9250929050565b803560ff81168114610c9857600080fd5b6000602082840312156140d1578081fd5b8135610b488161531f565b6000602082840312156140ed578081fd5b8151610b488161531f565b6000806040838503121561410a578081fd5b82356141158161531f565b915060208301356141258161531f565b809150509250929050565b600080600060608486031215614144578081fd5b833561414f8161531f565b9250602084013561415f8161531f565b929592945050506040919091013590565b600080600080600080600060a0888a03121561418a578283fd5b87356141958161531f565b965060208801356141a58161531f565b955060408801359450606088013567ffffffffffffffff808211156141c8578485fd5b6141d48b838c01614068565b909650945060808a01359150808211156141ec578384fd5b506141f98a828b01614068565b989b979a50959850939692959293505050565b6000806040838503121561421e578182fd5b82356142298161531f565b946020939093013593505050565b600060208284031215614248578081fd5b81518015158114610b48578182fd5b600060208284031215614268578081fd5b610b4882614059565b600060208284031215614282578081fd5b815167ffffffffffffffff80821115614299578283fd5b818401915084601f8301126142ac578283fd5b8151818111156142b857fe5b604051601f8201601f1916810160200183811182821017156142d657fe5b6040528181528382016020018710156142ed578485fd5b6132958260208301602087016152f3565b600060e0828403121561430f578081fd5b50919050565b60006102e0828403121561430f578081fd5b600060208284031215614338578081fd5b5035919050565b600060208284031215614350578081fd5b5051919050565b60008060408385031215614369578182fd5b8235915060208301356141258161531f565b6001600160f81b0319169052565b6003811061439357fe5b9052565b80356001600160e01b031981168082146143b057600080fd5b83525060208101356143c18161531f565b6001600160a01b0390811660208401526040820135906143e08261531f565b16604083015260608181013590830152608090810135910152565b60ff169052565b600082516144148184602087016152f3565b9190910192915050565b6001600160a01b0391909116815260200190565b6001600160a01b0394851681529290931660208301526040820152606081019190915260800190565b6001600160a01b039485168152602081019390935292166040820152606081019190915260800190565b6001600160a01b0392831681529116602082015260400190565b6001600160a01b039384168152919092166020820152604081019190915260600190565b6001600160a01b03929092168252602082015260400190565b901515815260200190565b60006020825282518060208401526145068160408501602087016152f3565b601f01601f19169190910160400192915050565b6020808252600a90820152692175706772616465546f60b01b604082015260600190565b60208082526023908201527f45524332303a207472616e7366657220746f20746865207a65726f206164647260408201526265737360e81b606082015260800190565b6020808252818101527f43616e6e6f7420636c6f73652073686f7274206265666f726520657870697279604082015260600190565b60208082526019908201527f496e73756666696369656e7420736861726520737570706c7900000000000000604082015260600190565b60208082526018908201527f53656e6465722063616e206f6e6c79206265207661756c740000000000000000604082015260600190565b602080825260049082015263085c1d5d60e21b604082015260600190565b602080825260139082015272737472696b65417373657420213d205553444360681b604082015260600190565b6020808252600590820152640858d85b1b60da1b604082015260600190565b60208082526026908201527f4f776e61626c653a206e6577206f776e657220697320746865207a65726f206160408201526564647265737360d01b606082015260800190565b60208082526022908201527f45524332303a20617070726f766520746f20746865207a65726f206164647265604082015261737360f01b606082015260800190565b60208082526014908201527364732d6d6174682d6d756c2d6f766572666c6f7760601b604082015260600190565b6020808252601b908201527f536166654d6174683a206164646974696f6e206f766572666c6f770000000000604082015260600190565b6020808252601a908201527f4f7074696f6e207479706520646f6573206e6f74206d61746368000000000000604082015260600190565b60208082526014908201527364732d6d6174682d6164642d6f766572666c6f7760601b604082015260600190565b60208082526010908201526f0bee8ded6cadc9cc2daca40427a4060f60831b604082015260600190565b6020808252601b908201527f43616e206f6e6c792073656c6c2063757272656e744f7074696f6e0000000000604082015260600190565b60208082526006908201526521736861726560d01b604082015260600190565b6020808252600b908201526a10b732bba6b0b730b3b2b960a91b604082015260600190565b6020808252601e908201527f536166654d6174683a207375627472616374696f6e206f766572666c6f770000604082015260600190565b60208082526026908201527f416464726573733a20696e73756666696369656e742062616c616e636520666f6040820152651c8818d85b1b60d21b606082015260800190565b6020808252601a908201527f536166654d6174683a206469766973696f6e206279207a65726f000000000000604082015260600190565b60208082526015908201527415dc9bdb99c81d5b99195c9b1e5a5b99d05cdcd95d605a1b604082015260600190565b6020808252601190820152700c2e6e6cae840d2e640dcdee840ae8aa89607b1b604082015260600190565b60208082526010908201526f085b995dd19959549958da5c1a595b9d60821b604082015260600190565b602080825260059082015264042ae8aa8960db1b604082015260600190565b6020808252602e908201527f496e697469616c697a61626c653a20636f6e747261637420697320616c72656160408201526d191e481a5b9a5d1a585b1a5e995960921b606082015260800190565b60208082526007908201526610afb7bbb732b960c91b604082015260600190565b60208082526021908201527f536166654d6174683a206d756c7469706c69636174696f6e206f766572666c6f6040820152607760f81b606082015260800190565b602080825260069082015265085d985d5b1d60d21b604082015260600190565b6020808252600c908201526b27b7363c9036b0b730b3b2b960a11b604082015260600190565b6020808252818101527f4f776e61626c653a2063616c6c6572206973206e6f7420746865206f776e6572604082015260600190565b60208082526018908201527f43616e6e6f7420726f6c6c206265666f72652064656c61790000000000000000604082015260600190565b6020808252600a9082015269139bdd081cdd5b9cd95d60b21b604082015260600190565b6020808252600f908201526e2737903337bab7321037b83a34b7b760891b604082015260600190565b60208082526012908201527107769746864726177616c46656520213d20360741b604082015260600190565b6020808252600f908201526e139bc81d985b1d59481c185cdcd959608a1b604082015260600190565b60208082526021908201527f45524332303a206275726e2066726f6d20746865207a65726f206164647265736040820152607360f81b606082015260800190565b60208082526025908201527f45524332303a207472616e736665722066726f6d20746865207a65726f206164604082015264647265737360d81b606082015260800190565b6020808252600e908201526d0857d99959549958da5c1a595b9d60921b604082015260600190565b60208082526024908201527f4f7074696f6e206578706972792063616e6e6f74206265206265666f72652064604082015263656c617960e01b606082015260800190565b60208082526025908201527f4665656c65737320776974686472617720746f207661756c74206e6f7420616c6040820152641b1bddd95960da1b606082015260800190565b602080825260139082015272115512081d1c985b9cd9995c8819985a5b1959606a1b604082015260600190565b60208082526024908201527f45524332303a20617070726f76652066726f6d20746865207a65726f206164646040820152637265737360e01b606082015260800190565b6020808252601a908201527f496e73756666696369656e742061737365742062616c616e6365000000000000604082015260600190565b6020808252601d908201527f416464726573733a2063616c6c20746f206e6f6e2d636f6e7472616374000000604082015260600190565b6020808252601d908201527f43616e206f6e6c7920627579207769746820617373657420746f6b656e000000604082015260600190565b6020808252601490820152737769746864726177616c466565203e3d2033302560601b604082015260600190565b6020808252602a908201527f5361666545524332303a204552433230206f7065726174696f6e20646964206e6040820152691bdd081cdd58d8d9595960b21b606082015260800190565b60208082526015908201527415dc9bdb99c818dbdb1b185d195c985b105cdcd95d605a1b604082015260600190565b60208082526007908201526610b7b83a34b7b760c91b604082015260600190565b6020808252600c908201526b10d85c08195e18d95959195960a21b604082015260600190565b6020808252601f908201527f5265656e7472616e637947756172643a207265656e7472616e742063616c6c00604082015260600190565b6020808252601290820152710bee8ded6cadca6f2dac4ded840427a4060f60731b604082015260600190565b60208082526036908201527f5361666545524332303a20617070726f76652066726f6d206e6f6e2d7a65726f60408201527520746f206e6f6e2d7a65726f20616c6c6f77616e636560501b606082015260800190565b60208082526023908201527f43616e6e6f74207769746864726177206d6f7265207468616e20617661696c61604082015262626c6560e81b606082015260800190565b6020808252600e908201526d10b1bab93932b73a27b83a34b7b760911b604082015260600190565b6020808252601f908201527f45524332303a206d696e7420746f20746865207a65726f206164647265737300604082015260600190565b6020808252600c908201526b05f696e6974436170203e20360a41b604082015260600190565b60e0810182356150ac8161531f565b6001600160a01b0390811683526020840135906150c88261531f565b90811660208401526040840135906150df8261531f565b8082166040850152606085013560608501526080850135608085015261510760a08601614059565b915061511660a0850183614389565b60c085013591506151268261531f565b80821660c0850152505092915050565b60006101008201905060018060a01b03808551168352806020860151166020840152806040860151166040840152606085015160608401526080850151608084015260a085015161518a60a0850182614389565b5060c094850151169382019390935260e0015290565b81358152602080830135908201526102e081016151c36040808401908501614397565b6151d360e0830160e08501614397565b6101806151e4818401828601614397565b50610220808401356151f58161531f565b6001600160a01b03908116918401919091526102409084820135906152198261531f565b1690830152610260838101356001600160f81b03198116811461523b57600080fd5b6152478285018261437b565b50506102806152578185016140af565b615263828501826143fb565b50506102a083810135908301526102c092830135929091019190915290565b90815260200190565b9182526001600160a01b0316602082015260400190565b918252602082015260400190565b92835260208301919091526001600160a01b0316604082015260600190565b9283526020830191909152604082015260600190565b60ff91909116815260200190565b60005b8381101561530e5781810151838201526020016152f6565b838111156130445750506000910152565b6001600160a01b0381168114612ea057600080fdfe45524332303a206275726e20616d6f756e7420657863656564732062616c616e636545524332303a207472616e7366657220616d6f756e7420657863656564732062616c616e636545524332303a207472616e7366657220616d6f756e74206578636565647320616c6c6f77616e636545524332303a2064656372656173656420616c6c6f77616e63652062656c6f77207a65726fa2646970667358221220c912023e1498ba4cb8bf261cce324445db1c4a6274526f4329eb73f8260fcca064736f6c63430007020033",
  "devdoc": {
    "kind": "dev",
    "methods": {
      "accountVaultBalance(address)": {
        "params": {
          "account": "is the address of the user"
        },
        "returns": {
          "_0": "vault balance of the user"
        }
      },
      "allowance(address,address)": {
        "details": "See {IERC20-allowance}."
      },
      "approve(address,uint256)": {
        "details": "See {IERC20-approve}. Requirements: - `spender` cannot be the zero address."
      },
      "assetAmountToShares(uint256)": {
        "params": {
          "assetAmount": "is the asset amount to be withdrawn"
        },
        "returns": {
          "_0": "share amount"
        }
      },
      "balanceOf(address)": {
        "details": "See {IERC20-balanceOf}."
      },
      "constructor": {
        "params": {
          "_asset": "is the asset used for collateral and premiums",
          "_minimumSupply": "is the minimum supply for the asset balance and the share supply. It's important to bake the _factory variable into the contract with the constructor If we do it in the `initialize` function, users get to set the factory variable and subsequently the adapter, which allows them to make a delegatecall, then selfdestruct the contract.",
          "_swapContract": "is the Airswap Swap contract",
          "_tokenDecimals": "is the decimals for the vault shares. Must match the decimals for _asset.",
          "_usdc": "is the USDC contract",
          "_weth": "is the Wrapped Ether contract"
        }
      },
      "decreaseAllowance(address,uint256)": {
        "details": "Atomically decreases the allowance granted to `spender` by the caller. This is an alternative to {approve} that can be used as a mitigation for problems described in {IERC20-approve}. Emits an {Approval} event indicating the updated allowance. Requirements: - `spender` cannot be the zero address. - `spender` must have allowance for the caller of at least `subtractedValue`."
      },
      "deposit(uint256)": {
        "params": {
          "amount": "is the amount of `asset` to deposit"
        }
      },
      "increaseAllowance(address,uint256)": {
        "details": "Atomically increases the allowance granted to `spender` by the caller. This is an alternative to {approve} that can be used as a mitigation for problems described in {IERC20-approve}. Emits an {Approval} event indicating the updated allowance. Requirements: - `spender` cannot be the zero address."
      },
      "initialize(address,address,uint256,string,string)": {
        "params": {
          "_feeRecipient": "is the recipient address for withdrawal fees.",
          "_initCap": "is the initial vault's cap on deposits, the manager can increase this as necessary.",
          "_owner": "is the owner of the contract who can set the manager",
          "_tokenName": "is the name of the vault share token",
          "_tokenSymbol": "is the symbol of the vault share token"
        }
      },
      "maxWithdrawAmount(address)": {
        "params": {
          "account": "is the address of the vault share holder"
        },
        "returns": {
          "_0": "amount of `asset` withdrawable from vault, with fees accounted"
        }
      },
      "name()": {
        "details": "Returns the name of the token."
      },
      "owner()": {
        "details": "Returns the address of the current owner."
      },
      "renounceOwnership()": {
        "details": "Leaves the contract without owner. It will not be possible to call `onlyOwner` functions anymore. Can only be called by the current owner. NOTE: Renouncing ownership will leave the contract without an owner, thereby removing any functionality that is only available to the owner."
      },
      "sellOptions((uint256,uint256,(bytes4,address,address,uint256,uint256),(bytes4,address,address,uint256,uint256),(bytes4,address,address,uint256,uint256),(address,address,bytes1,uint8,bytes32,bytes32)))": {
        "params": {
          "order": "is an Airswap order"
        }
      },
      "setCap(uint256)": {
        "params": {
          "newCap": "is the new cap for deposits"
        }
      },
      "setFeeRecipient(address)": {
        "params": {
          "newFeeRecipient": "is the address of the new fee recipient"
        }
      },
      "setManager(address)": {
        "params": {
          "newManager": "is the new manager of the vault"
        }
      },
      "setWithdrawalFee(uint256)": {
        "params": {
          "newWithdrawalFee": "is the fee paid in tokens when withdrawing"
        }
      },
      "symbol()": {
        "details": "Returns the symbol of the token, usually a shorter version of the name."
      },
      "totalBalance()": {
        "returns": {
          "_0": "total balance of the vault, including the amounts locked in third party protocols"
        }
      },
      "totalSupply()": {
        "details": "See {IERC20-totalSupply}."
      },
      "transfer(address,uint256)": {
        "details": "See {IERC20-transfer}. Requirements: - `recipient` cannot be the zero address. - the caller must have a balance of at least `amount`."
      },
      "transferFrom(address,address,uint256)": {
        "details": "See {IERC20-transferFrom}. Emits an {Approval} event indicating the updated allowance. This is not required by the EIP. See the note at the beginning of {ERC20}. Requirements: - `sender` and `recipient` cannot be the zero address. - `sender` must have a balance of at least `amount`. - the caller must have allowance for ``sender``'s tokens of at least `amount`."
      },
      "transferOwnership(address)": {
        "details": "Transfers ownership of the contract to a new account (`newOwner`). Can only be called by the current owner."
      },
      "withdraw(uint256)": {
        "params": {
          "share": "is the number of vault shares to be burned"
        }
      },
      "withdrawAmountWithShares(uint256)": {
        "params": {
          "share": "is the number of shares burned to withdraw asset from the vault"
        },
        "returns": {
          "amountAfterFee": "is the amount of asset tokens withdrawable from the vault",
          "feeAmount": "is the fee amount (in asset tokens) sent to the feeRecipient"
        }
      },
      "withdrawETH(uint256)": {
        "params": {
          "share": "is the number of vault shares to be burned"
        }
      },
      "withdrawToV1Vault(uint256,address)": {
        "params": {
          "share": "is the number of vault shares to be burned",
          "vault": "is the address of destination V1 vault"
        }
      }
    },
    "version": 1
  },
  "userdoc": {
    "kind": "user",
    "methods": {
      "accountVaultBalance(address)": {
        "notice": "Returns an account's balance on the vault"
      },
      "assetAmountToShares(uint256)": {
        "notice": "Returns the number of shares for a given `assetAmount`.         Used by the frontend to calculate withdraw amounts."
      },
      "assetBalance()": {
        "notice": "Returns the asset balance on the vault. This balance is freely withdrawable by users."
      },
      "commitAndClose((address,address,address,uint256,uint256,uint8,address))": {
        "notice": "Sets the next option the vault will be shorting, and closes the existing short.         This allows all the users to withdraw if the next option is malicious."
      },
      "constructor": {
        "notice": "Initializes the contract with immutable variables"
      },
      "currentOptionExpiry()": {
        "notice": "Returns the expiry of the current option the vault is shorting"
      },
      "decimals()": {
        "notice": "Returns the token decimals"
      },
      "deposit(uint256)": {
        "notice": "Deposits the `asset` into the contract and mint vault shares."
      },
      "depositETH()": {
        "notice": "Deposits ETH into the contract and mint vault shares. Reverts if the underlying is not WETH."
      },
      "emergencyWithdrawFromShort()": {
        "notice": "Withdraw from the options protocol by closing short in an event of a emergency"
      },
      "initialize(address,address,uint256,string,string)": {
        "notice": "Initializes the OptionVault contract with storage variables."
      },
      "maxWithdrawAmount(address)": {
        "notice": "Returns the max amount withdrawable by an account using the account's vault share balance"
      },
      "maxWithdrawableShares()": {
        "notice": "Returns the max withdrawable shares for all users in the vault"
      },
      "sellOptions((uint256,uint256,(bytes4,address,address,uint256,uint256),(bytes4,address,address,uint256,uint256),(bytes4,address,address,uint256,uint256),(address,address,bytes1,uint8,bytes32,bytes32)))": {
        "notice": "Performs a swap of `currentOption` token to `asset` token with a counterparty"
      },
      "setCap(uint256)": {
        "notice": "Sets a new cap for deposits"
      },
      "setFeeRecipient(address)": {
        "notice": "Sets the new fee recipient"
      },
      "setManager(address)": {
        "notice": "Sets the new manager of the vault."
      },
      "setWithdrawalFee(uint256)": {
        "notice": "Sets the new withdrawal fee"
      },
      "sunset(address)": {
        "notice": "Closes the vault and makes it withdraw only."
      },
      "totalBalance()": {
        "notice": "Returns the vault's total balance, including the amounts locked into a short position"
      },
      "withdraw(uint256)": {
        "notice": "Withdraws WETH from vault using vault shares"
      },
      "withdrawAmountWithShares(uint256)": {
        "notice": "Returns the amount withdrawable (in `asset` tokens) using the `share` amount"
      },
      "withdrawETH(uint256)": {
        "notice": "Withdraws ETH from vault using vault shares"
      },
      "withdrawToV1Vault(uint256,address)": {
        "notice": "Withdraw from V1 vault to V1 vaultWaive fee if registered in vault registry"
      }
    },
    "version": 1
  },
  "storageLayout": {
    "storage": [
      {
        "astId": 538,
        "contract": "contracts/instruments/RibbonThetaVault.sol:RibbonThetaVault",
        "label": "_initialized",
        "offset": 0,
        "slot": "0",
        "type": "t_bool"
      },
      {
        "astId": 541,
        "contract": "contracts/instruments/RibbonThetaVault.sol:RibbonThetaVault",
        "label": "_initializing",
        "offset": 1,
        "slot": "0",
        "type": "t_bool"
      },
      {
        "astId": 1508,
        "contract": "contracts/instruments/RibbonThetaVault.sol:RibbonThetaVault",
        "label": "_status",
        "offset": 0,
        "slot": "1",
        "type": "t_uint256"
      },
      {
        "astId": 1551,
        "contract": "contracts/instruments/RibbonThetaVault.sol:RibbonThetaVault",
        "label": "__gap",
        "offset": 0,
        "slot": "2",
        "type": "t_array(t_uint256)49_storage"
      },
      {
        "astId": 1493,
        "contract": "contracts/instruments/RibbonThetaVault.sol:RibbonThetaVault",
        "label": "__gap",
        "offset": 0,
        "slot": "51",
        "type": "t_array(t_uint256)50_storage"
      },
      {
        "astId": 56,
        "contract": "contracts/instruments/RibbonThetaVault.sol:RibbonThetaVault",
        "label": "_owner",
        "offset": 0,
        "slot": "101",
        "type": "t_address"
      },
      {
        "astId": 175,
        "contract": "contracts/instruments/RibbonThetaVault.sol:RibbonThetaVault",
        "label": "__gap",
        "offset": 0,
        "slot": "102",
        "type": "t_array(t_uint256)49_storage"
      },
      {
        "astId": 617,
        "contract": "contracts/instruments/RibbonThetaVault.sol:RibbonThetaVault",
        "label": "_balances",
        "offset": 0,
        "slot": "151",
        "type": "t_mapping(t_address,t_uint256)"
      },
      {
        "astId": 623,
        "contract": "contracts/instruments/RibbonThetaVault.sol:RibbonThetaVault",
        "label": "_allowances",
        "offset": 0,
        "slot": "152",
        "type": "t_mapping(t_address,t_mapping(t_address,t_uint256))"
      },
      {
        "astId": 625,
        "contract": "contracts/instruments/RibbonThetaVault.sol:RibbonThetaVault",
        "label": "_totalSupply",
        "offset": 0,
        "slot": "153",
        "type": "t_uint256"
      },
      {
        "astId": 627,
        "contract": "contracts/instruments/RibbonThetaVault.sol:RibbonThetaVault",
        "label": "_name",
        "offset": 0,
        "slot": "154",
        "type": "t_string_storage"
      },
      {
        "astId": 629,
        "contract": "contracts/instruments/RibbonThetaVault.sol:RibbonThetaVault",
        "label": "_symbol",
        "offset": 0,
        "slot": "155",
        "type": "t_string_storage"
      },
      {
        "astId": 631,
        "contract": "contracts/instruments/RibbonThetaVault.sol:RibbonThetaVault",
        "label": "_decimals",
        "offset": 0,
        "slot": "156",
        "type": "t_uint8"
      },
      {
        "astId": 1126,
        "contract": "contracts/instruments/RibbonThetaVault.sol:RibbonThetaVault",
        "label": "__gap",
        "offset": 0,
        "slot": "157",
        "type": "t_array(t_uint256)44_storage"
      },
      {
        "astId": 18400,
        "contract": "contracts/instruments/RibbonThetaVault.sol:RibbonThetaVault",
        "label": "_oldAsset",
        "offset": 0,
        "slot": "201",
        "type": "t_address"
      },
      {
        "astId": 18402,
        "contract": "contracts/instruments/RibbonThetaVault.sol:RibbonThetaVault",
        "label": "manager",
        "offset": 0,
        "slot": "202",
        "type": "t_address"
      },
      {
        "astId": 18404,
        "contract": "contracts/instruments/RibbonThetaVault.sol:RibbonThetaVault",
        "label": "nextOption",
        "offset": 0,
        "slot": "203",
        "type": "t_address"
      },
      {
        "astId": 18406,
        "contract": "contracts/instruments/RibbonThetaVault.sol:RibbonThetaVault",
        "label": "nextOptionReadyAt",
        "offset": 0,
        "slot": "204",
        "type": "t_uint256"
      },
      {
        "astId": 18408,
        "contract": "contracts/instruments/RibbonThetaVault.sol:RibbonThetaVault",
        "label": "currentOption",
        "offset": 0,
        "slot": "205",
        "type": "t_address"
      },
      {
        "astId": 18410,
        "contract": "contracts/instruments/RibbonThetaVault.sol:RibbonThetaVault",
        "label": "lockedAmount",
        "offset": 0,
        "slot": "206",
        "type": "t_uint256"
      },
      {
        "astId": 18412,
        "contract": "contracts/instruments/RibbonThetaVault.sol:RibbonThetaVault",
        "label": "cap",
        "offset": 0,
        "slot": "207",
        "type": "t_uint256"
      },
      {
        "astId": 18414,
        "contract": "contracts/instruments/RibbonThetaVault.sol:RibbonThetaVault",
        "label": "instantWithdrawalFee",
        "offset": 0,
        "slot": "208",
        "type": "t_uint256"
      },
      {
        "astId": 18416,
        "contract": "contracts/instruments/RibbonThetaVault.sol:RibbonThetaVault",
        "label": "feeRecipient",
        "offset": 0,
        "slot": "209",
        "type": "t_address"
      },
      {
        "astId": 18419,
        "contract": "contracts/instruments/RibbonThetaVault.sol:RibbonThetaVault",
        "label": "queuedWithdrawShares",
        "offset": 0,
        "slot": "210",
        "type": "t_uint256"
      },
      {
        "astId": 18423,
        "contract": "contracts/instruments/RibbonThetaVault.sol:RibbonThetaVault",
        "label": "scheduledWithdrawals",
        "offset": 0,
        "slot": "211",
        "type": "t_mapping(t_address,t_uint256)"
      },
      {
        "astId": 18426,
        "contract": "contracts/instruments/RibbonThetaVault.sol:RibbonThetaVault",
        "label": "replacementVault",
        "offset": 0,
        "slot": "212",
        "type": "t_contract(IRibbonV2Vault)15603"
      }
    ],
    "types": {
      "t_address": {
        "encoding": "inplace",
        "label": "address",
        "numberOfBytes": "20"
      },
      "t_array(t_uint256)44_storage": {
        "base": "t_uint256",
        "encoding": "inplace",
        "label": "uint256[44]",
        "numberOfBytes": "1408"
      },
      "t_array(t_uint256)49_storage": {
        "base": "t_uint256",
        "encoding": "inplace",
        "label": "uint256[49]",
        "numberOfBytes": "1568"
      },
      "t_array(t_uint256)50_storage": {
        "base": "t_uint256",
        "encoding": "inplace",
        "label": "uint256[50]",
        "numberOfBytes": "1600"
      },
      "t_bool": {
        "encoding": "inplace",
        "label": "bool",
        "numberOfBytes": "1"
      },
      "t_contract(IRibbonV2Vault)15603": {
        "encoding": "inplace",
        "label": "contract IRibbonV2Vault",
        "numberOfBytes": "20"
      },
      "t_mapping(t_address,t_mapping(t_address,t_uint256))": {
        "encoding": "mapping",
        "key": "t_address",
        "label": "mapping(address => mapping(address => uint256))",
        "numberOfBytes": "32",
        "value": "t_mapping(t_address,t_uint256)"
      },
      "t_mapping(t_address,t_uint256)": {
        "encoding": "mapping",
        "key": "t_address",
        "label": "mapping(address => uint256)",
        "numberOfBytes": "32",
        "value": "t_uint256"
      },
      "t_string_storage": {
        "encoding": "bytes",
        "label": "string",
        "numberOfBytes": "32"
      },
      "t_uint256": {
        "encoding": "inplace",
        "label": "uint256",
        "numberOfBytes": "32"
      },
      "t_uint8": {
        "encoding": "inplace",
        "label": "uint8",
        "numberOfBytes": "1"
      }
    }
  }
}