{
  "address": "0x0aEfbD361294a10e902f80EdB5c2bE7DE6D02Fe9",
  "abi": [
    {
      "anonymous": false,
      "inputs": [
        {
          "indexed": true,
          "internalType": "string",
          "name": "protocolName",
          "type": "string"
        },
        {
          "indexed": true,
          "internalType": "address",
          "name": "adapterAddress",
          "type": "address"
        }
      ],
      "name": "AdapterSet",
      "type": "event"
    },
    {
      "anonymous": false,
      "inputs": [
        {
          "indexed": false,
          "internalType": "string",
          "name": "symbol",
          "type": "string"
        },
        {
          "indexed": true,
          "internalType": "address",
          "name": "instrumentAddress",
          "type": "address"
        }
      ],
      "name": "InstrumentCreated",
      "type": "event"
    },
    {
      "anonymous": false,
      "inputs": [
        {
          "indexed": true,
          "internalType": "address",
          "name": "previousOwner",
          "type": "address"
        },
        {
          "indexed": true,
          "internalType": "address",
          "name": "newOwner",
          "type": "address"
        }
      ],
      "name": "OwnershipTransferred",
      "type": "event"
    },
    {
      "anonymous": false,
      "inputs": [
        {
          "indexed": true,
          "internalType": "address",
          "name": "logic",
          "type": "address"
        },
        {
          "indexed": true,
          "internalType": "address",
          "name": "proxyAddress",
          "type": "address"
        },
        {
          "indexed": false,
          "internalType": "bytes",
          "name": "initData",
          "type": "bytes"
        }
      ],
      "name": "ProxyCreated",
      "type": "event"
    },
    {
      "inputs": [
        {
          "internalType": "uint256",
          "name": "",
          "type": "uint256"
        }
      ],
      "name": "adapters",
      "outputs": [
        {
          "internalType": "address",
          "name": "",
          "type": "address"
        }
      ],
      "stateMutability": "view",
      "type": "function"
    },
    {
      "inputs": [],
      "name": "burnGasTokens",
      "outputs": [],
      "stateMutability": "nonpayable",
      "type": "function"
    },
    {
      "inputs": [
        {
          "internalType": "string",
          "name": "",
          "type": "string"
        }
      ],
      "name": "getAdapter",
      "outputs": [
        {
          "internalType": "address",
          "name": "",
          "type": "address"
        }
      ],
      "stateMutability": "view",
      "type": "function"
    },
    {
      "inputs": [],
      "name": "getAdapters",
      "outputs": [
        {
          "internalType": "address[]",
          "name": "_adapters",
          "type": "address[]"
        }
      ],
      "stateMutability": "view",
      "type": "function"
    },
    {
      "inputs": [
        {
          "internalType": "string",
          "name": "_name",
          "type": "string"
        }
      ],
      "name": "getInstrument",
      "outputs": [
        {
          "internalType": "address",
          "name": "instrumentAddress",
          "type": "address"
        }
      ],
      "stateMutability": "view",
      "type": "function"
    },
    {
      "inputs": [
        {
          "internalType": "address",
          "name": "_owner",
          "type": "address"
        },
        {
          "internalType": "address",
          "name": "_instrumentAdmin",
          "type": "address"
        }
      ],
      "name": "initialize",
      "outputs": [],
      "stateMutability": "nonpayable",
      "type": "function"
    },
    {
      "inputs": [],
      "name": "instrumentAdmin",
      "outputs": [
        {
          "internalType": "address",
          "name": "",
          "type": "address"
        }
      ],
      "stateMutability": "view",
      "type": "function"
    },
    {
      "inputs": [
        {
          "internalType": "string",
          "name": "",
          "type": "string"
        }
      ],
      "name": "instruments",
      "outputs": [
        {
          "internalType": "address",
          "name": "",
          "type": "address"
        }
      ],
      "stateMutability": "view",
      "type": "function"
    },
    {
      "inputs": [
        {
          "internalType": "address",
          "name": "",
          "type": "address"
        }
      ],
      "name": "isInstrument",
      "outputs": [
        {
          "internalType": "bool",
          "name": "",
          "type": "bool"
        }
      ],
      "stateMutability": "view",
      "type": "function"
    },
    {
      "inputs": [
        {
          "internalType": "address",
          "name": "_logic",
          "type": "address"
        },
        {
          "internalType": "bytes",
          "name": "_initData",
          "type": "bytes"
        }
      ],
      "name": "newInstrument",
      "outputs": [
        {
          "internalType": "address",
          "name": "instrumentAddress",
          "type": "address"
        }
      ],
      "stateMutability": "nonpayable",
      "type": "function"
    },
    {
      "inputs": [],
      "name": "owner",
      "outputs": [
        {
          "internalType": "address",
          "name": "",
          "type": "address"
        }
      ],
      "stateMutability": "view",
      "type": "function"
    },
    {
      "inputs": [],
      "name": "renounceOwnership",
      "outputs": [],
      "stateMutability": "nonpayable",
      "type": "function"
    },
    {
      "inputs": [
        {
          "internalType": "string",
          "name": "protocolName",
          "type": "string"
        },
        {
          "internalType": "address",
          "name": "adapter",
          "type": "address"
        }
      ],
      "name": "setAdapter",
      "outputs": [],
      "stateMutability": "nonpayable",
      "type": "function"
    },
    {
      "inputs": [
        {
          "internalType": "address",
          "name": "newOwner",
          "type": "address"
        }
      ],
      "name": "transferOwnership",
      "outputs": [],
      "stateMutability": "nonpayable",
      "type": "function"
    }
  ],
  "transactionHash": "0x578a92dd3743eb9eb9ad0257c1eeb5b531d3693f4592fd2842f8a0c875918fcb",
  "args": [],
  "numDeployments": 1,
  "solcInputHash": "89c1bc99502a29a3af79d1a01c9fc601",
  "bytecode": "0x608060405234801561001057600080fd5b50611b18806100206000396000f3fe60806040523480156200001157600080fd5b5060043610620001005760003560e01c8063a91b9f4d1162000099578063c14a4eae116200006f578063c14a4eae1462000434578063cb294d8b14620004ee578063e913147b1462000598578063f2fde38b14620005a25762000100565b8063a91b9f4d1462000284578063b82e16e3146200032e578063bc4c2212146200038a5762000100565b80636dc39e0711620000db5780636dc39e071462000229578063715018a614620002335780638a20f73c146200023d5780638da5cb5b146200027a5762000100565b8063391224611462000105578063485cc95514620001bc5780634ef501ac14620001ed575b600080fd5b620001ba600480360360408110156200011d57600080fd5b810190602081018135600160201b8111156200013857600080fd5b8201836020820111156200014b57600080fd5b803590602001918460018302840111600160201b831117156200016d57600080fd5b91908080601f016020809104026020016040519081016040528093929190818152602001838380828437600092019190915250929550505090356001600160a01b03169150620005cb9050565b005b620001ba60048036036040811015620001d457600080fd5b506001600160a01b03813581169160200135166200075f565b6200020d600480360360208110156200020557600080fd5b503562000831565b604080516001600160a01b039092168252519081900360200190f35b620001ba62000859565b620001ba6200093c565b62000266600480360360208110156200025557600080fd5b50356001600160a01b0316620009d5565b604080519115158252519081900360200190f35b6200020d620009ea565b6200020d600480360360208110156200029c57600080fd5b810190602081018135600160201b811115620002b757600080fd5b820183602082011115620002ca57600080fd5b803590602001918460018302840111600160201b83111715620002ec57600080fd5b91908080601f016020809104026020016040519081016040528093929190818152602001838380828437600092019190915250929550620009f9945050505050565b6200033862000a6c565b60408051602080825283518183015283519192839290830191858101910280838360005b83811015620003765781810151838201526020016200035c565b505050509050019250505060405180910390f35b6200020d60048036036020811015620003a257600080fd5b810190602081018135600160201b811115620003bd57600080fd5b820183602082011115620003d057600080fd5b803590602001918460018302840111600160201b83111715620003f257600080fd5b91908080601f01602080910402602001604051908101604052809392919081815260200183838082843760009201919091525092955062000ad0945050505050565b6200020d600480360360408110156200044c57600080fd5b6001600160a01b038235169190810190604081016020820135600160201b8111156200047757600080fd5b8201836020820111156200048a57600080fd5b803590602001918460018302840111600160201b83111715620004ac57600080fd5b91908080601f01602080910402602001604051908101604052809392919081815260200183838082843760009201919091525092955062000af6945050505050565b6200020d600480360360208110156200050657600080fd5b810190602081018135600160201b8111156200052157600080fd5b8201836020820111156200053457600080fd5b803590602001918460018302840111600160201b831117156200055657600080fd5b91908080601f01602080910402602001604051908101604052809392919081815260200183838082843760009201919091525092955062000e91945050505050565b6200020d62000eb7565b620001ba60048036036020811015620005ba57600080fd5b50356001600160a01b031662000ec6565b6033546001600160a01b031633146200061a576040805162461bcd60e51b8152602060048201819052602482015260008051602062001a95833981519152604482015290519081900360640190fd5b806037836040518082805190602001908083835b602083106200064f5780518252601f1990920191602091820191016200062e565b51815160209384036101000a6000190180199092169116179052920194855250604051938490038101842080546001600160a01b03199081166001600160a01b0397881617909155603880546001810182556000919091527f38395c5dceade9603479b177b68959049485df8aa97b39f3533039af5f4561990180549091169587169586179055865187949350839250908401908083835b60208310620007085780518252601f199092019160209182019101620006e7565b5181516020939093036101000a60001901801990911692169190911790526040519201829003822093507ff9648cbc19f288e0f271f7e95311238912bf1ea8225e636a13bb1d259126002192506000919050a35050565b600054610100900460ff16806200077b57506200077b62000fb8565b806200078a575060005460ff16155b620007c75760405162461bcd60e51b815260040180806020018281038252602e81526020018062001ab5602e913960400191505060405180910390fd5b600054610100900460ff16158015620007f3576000805460ff1961ff0019909116610100171660011790555b620007fe8362000fbe565b603480546001600160a01b0319166001600160a01b03841617905580156200082c576000805461ff00191690555b505050565b603881815481106200083f57fe5b6000918252602090912001546001600160a01b0316905081565b3360009081526036602052604090205460ff16620008be576040805162461bcd60e51b815260206004820152601860248201527f43616c6c6572206973206e6f7420696e737472756d656e740000000000000000604482015290519081900360640190fd5b604080516331b35c9b60e11b8152601e600482015290516d4946c0e9f43f4dee607b0ef1fa1c918291636366b936916024808201926020929091908290030181600087803b1580156200091057600080fd5b505af115801562000925573d6000803e3d6000fd5b505050506040513d60208110156200082c57600080fd5b6033546001600160a01b031633146200098b576040805162461bcd60e51b8152602060048201819052602482015260008051602062001a95833981519152604482015290519081900360640190fd5b6033546040516000916001600160a01b0316907f8be0079c531659141344cd1fd0a4f28419497f9722a3daafe3b4186f6b6457e0908390a3603380546001600160a01b0319169055565b60366020526000908152604090205460ff1681565b6033546001600160a01b031690565b60006035826040518082805190602001908083835b6020831062000a2f5780518252601f19909201916020918201910162000a0e565b51815160209384036101000a60001901801990921691161790529201948552506040519384900301909220546001600160a01b0316949350505050565b6060603880548060200260200160405190810160405280929190818152602001828054801562000ac657602002820191906000526020600020905b81546001600160a01b0316815260019091019060200180831162000aa7575b5050505050905090565b80516020818301810180516037825292820191909301209152546001600160a01b031681565b6033546000906001600160a01b0316331462000b48576040805162461bcd60e51b8152602060048201819052602482015260008051602062001a95833981519152604482015290519081900360640190fd5b62000b5483836200100a565b905060008190506060816001600160a01b03166395d89b416040518163ffffffff1660e01b815260040160006040518083038186803b15801562000b9757600080fd5b505afa15801562000bac573d6000803e3d6000fd5b505050506040513d6000823e601f3d908101601f19168201604052602081101562000bd657600080fd5b8101908080516040519392919084600160201b82111562000bf657600080fd5b90830190602082018581111562000c0c57600080fd5b8251600160201b81118282018810171562000c2657600080fd5b82525081516020918201929091019080838360005b8381101562000c5557818101518382015260200162000c3b565b50505050905090810190601f16801562000c835780820380516001836020036101000a031916815260200191505b50604052505050905060006001600160a01b03166035826040518082805190602001908083835b6020831062000ccb5780518252601f19909201916020918201910162000caa565b51815160209384036101000a60001901801990921691161790529201948552506040519384900301909220546001600160a01b031692909214915062000d5a9050576040805162461bcd60e51b815260206004820152601960248201527f496e737472756d656e7420616c72656164792065786973747300000000000000604482015290519081900360640190fd5b826035826040518082805190602001908083835b6020831062000d8f5780518252601f19909201916020918201910162000d6e565b51815160209384036101000a600019018019909216911617905292019485525060408051948590038201852080546001600160a01b0319166001600160a01b03978816179055948816600081815260368352868120805460ff19166001179055828652875186840152875191967f23306111e504e897dccd0f136d837ea37bdcedfb1d93ccd0369715605b7374eb968996509450849390840192908601918190849084905b8381101562000e4e57818101518382015260200162000e34565b50505050905090810190601f16801562000e7c5780820380516001836020036101000a031916815260200191505b509250505060405180910390a2505092915050565b80516020818301810180516035825292820191909301209152546001600160a01b031681565b6034546001600160a01b031681565b6033546001600160a01b0316331462000f15576040805162461bcd60e51b8152602060048201819052602482015260008051602062001a95833981519152604482015290519081900360640190fd5b6001600160a01b03811662000f5c5760405162461bcd60e51b815260040180806020018281038252602681526020018062001a6f6026913960400191505060405180910390fd5b6033546040516001600160a01b038084169216907f8be0079c531659141344cd1fd0a4f28419497f9722a3daafe3b4186f6b6457e090600090a3603380546001600160a01b0319166001600160a01b0392909216919091179055565b303b1590565b603380546001600160a01b0319166001600160a01b0383169081179091556040516000907f8be0079c531659141344cd1fd0a4f28419497f9722a3daafe3b4186f6b6457e0908290a350565b603454604051600091829185916001600160a01b03169085906200102e9062001194565b80846001600160a01b03168152602001836001600160a01b0316815260200180602001828103825283818151815260200191508051906020019080838360005b83811015620010885781810151838201526020016200106e565b50505050905090810190601f168015620010b65780820380516001836020036101000a031916815260200191505b50945050505050604051809103906000f080158015620010da573d6000803e3d6000fd5b509050806001600160a01b0316846001600160a01b03167fbcad9175e6b3bb320ae62bf5d0564e759b8d2218bd438edeab649c1911c52adc856040518080602001828103825283818151815260200191508051906020019080838360005b838110156200115257818101518382015260200162001138565b50505050905090810190601f168015620011805780820380516001836020036101000a031916815260200191505b509250505060405180910390a39392505050565b6108cc80620011a38339019056fe60806040526040516108cc3803806108cc8339818101604052606081101561002657600080fd5b8151602083015160408085018051915193959294830192918464010000000082111561005157600080fd5b90830190602082018581111561006657600080fd5b825164010000000081118282018810171561008057600080fd5b82525081516020918201929091019080838360005b838110156100ad578181015183820152602001610095565b50505050905090810190601f1680156100da5780820380516001836020036101000a031916815260200191505b50604052508491508290506100ee826101bf565b8051156101a6576000826001600160a01b0316826040518082805190602001908083835b602083106101315780518252601f199092019160209182019101610112565b6001836020036101000a038019825116818451168082178552505050505050905001915050600060405180830381855af49150503d8060008114610191576040519150601f19603f3d011682016040523d82523d6000602084013e610196565b606091505b50509050806101a457600080fd5b505b506101ae9050565b6101b782610231565b50505061025b565b6101d28161025560201b6103ae1760201c565b61020d5760405162461bcd60e51b815260040180806020018281038252603b815260200180610891603b913960400191505060405180910390fd5b7f360894a13ba1a3210667c828492db98dca3e2076cc3735a920a3ca505d382bbc55565b7fb53127684a568b3173ae13b9f8a6016e243e63b6e8ee1178d6a717850b5d610355565b3b151590565b6106278061026a6000396000f3fe60806040526004361061004e5760003560e01c80633659cfe61461005f5780634f1ef286146100925780635c60da1b146101125780638f28397014610143578063f851a4401461017657610055565b3661005557005b61005d61018b565b005b34801561006b57600080fd5b5061005d6004803603602081101561008257600080fd5b50356001600160a01b03166101a5565b61005d600480360360408110156100a857600080fd5b6001600160a01b0382351691908101906040810160208201356401000000008111156100d357600080fd5b8201836020820111156100e557600080fd5b8035906020019184600183028401116401000000008311171561010757600080fd5b5090925090506101df565b34801561011e57600080fd5b5061012761028c565b604080516001600160a01b039092168252519081900360200190f35b34801561014f57600080fd5b5061005d6004803603602081101561016657600080fd5b50356001600160a01b03166102c9565b34801561018257600080fd5b50610127610383565b6101936103b4565b6101a361019e610414565b610439565b565b6101ad61045d565b6001600160a01b0316336001600160a01b031614156101d4576101cf81610482565b6101dc565b6101dc61018b565b50565b6101e761045d565b6001600160a01b0316336001600160a01b0316141561027f5761020983610482565b6000836001600160a01b031683836040518083838082843760405192019450600093509091505080830381855af49150503d8060008114610266576040519150601f19603f3d011682016040523d82523d6000602084013e61026b565b606091505b505090508061027957600080fd5b50610287565b61028761018b565b505050565b600061029661045d565b6001600160a01b0316336001600160a01b031614156102be576102b7610414565b90506102c6565b6102c661018b565b90565b6102d161045d565b6001600160a01b0316336001600160a01b031614156101d4576001600160a01b03811661032f5760405162461bcd60e51b81526004018080602001828103825260368152602001806105816036913960400191505060405180910390fd5b7f7e644d79422f17c01e4894b5f4f588d331ebfa28653d42ae832dc59e38c9798f61035861045d565b604080516001600160a01b03928316815291841660208301528051918290030190a16101cf816104c2565b600061038d61045d565b6001600160a01b0316336001600160a01b031614156102be576102b761045d565b3b151590565b6103bc61045d565b6001600160a01b0316336001600160a01b0316141561040c5760405162461bcd60e51b815260040180806020018281038252603281526020018061054f6032913960400191505060405180910390fd5b6101a36101a3565b7f360894a13ba1a3210667c828492db98dca3e2076cc3735a920a3ca505d382bbc5490565b3660008037600080366000845af43d6000803e808015610458573d6000f35b3d6000fd5b7fb53127684a568b3173ae13b9f8a6016e243e63b6e8ee1178d6a717850b5d61035490565b61048b816104e6565b6040516001600160a01b038216907fbc7cd75a20ee27fd9adebab32041f755214dbc6bffa90cc0225b39da2e5c2d3b90600090a250565b7fb53127684a568b3173ae13b9f8a6016e243e63b6e8ee1178d6a717850b5d610355565b6104ef816103ae565b61052a5760405162461bcd60e51b815260040180806020018281038252603b8152602001806105b7603b913960400191505060405180910390fd5b7f360894a13ba1a3210667c828492db98dca3e2076cc3735a920a3ca505d382bbc5556fe43616e6e6f742063616c6c2066616c6c6261636b2066756e6374696f6e2066726f6d207468652070726f78792061646d696e43616e6e6f74206368616e6765207468652061646d696e206f6620612070726f787920746f20746865207a65726f206164647265737343616e6e6f742073657420612070726f787920696d706c656d656e746174696f6e20746f2061206e6f6e2d636f6e74726163742061646472657373a2646970667358221220c9ffa26f8601009ecced8630088458f705ccccc0e5307c0c46edc0eabaedc6aa64736f6c6343000702003343616e6e6f742073657420612070726f787920696d706c656d656e746174696f6e20746f2061206e6f6e2d636f6e747261637420616464726573734f776e61626c653a206e6577206f776e657220697320746865207a65726f20616464726573734f776e61626c653a2063616c6c6572206973206e6f7420746865206f776e6572436f6e747261637420696e7374616e63652068617320616c7265616479206265656e20696e697469616c697a6564a2646970667358221220d109883dfcc7e0a0830e14ac54c4bb812f34a83c37bd51ec20d6b8f79f8f770964736f6c63430007020033",
  "devdoc": {
    "kind": "dev",
    "methods": {
      "owner()": {
        "details": "Returns the address of the current owner."
      },
      "renounceOwnership()": {
        "details": "Leaves the contract without owner. It will not be possible to call `onlyOwner` functions anymore. Can only be called by the current owner. NOTE: Renouncing ownership will leave the contract without an owner, thereby removing any functionality that is only available to the owner."
      },
      "transferOwnership(address)": {
        "details": "Transfers ownership of the contract to a new account (`newOwner`). Can only be called by the current owner."
      }
    },
    "version": 1
  },
  "userdoc": {
    "events": {
      "InstrumentCreated(string,address)": {
        "notice": "Emitted when a new instrument is created"
      },
      "ProxyCreated(address,address,bytes)": {
        "notice": "Emitted when a new instrument is created"
      }
    },
    "kind": "user",
    "methods": {
      "getInstrument(string)": {
        "notice": "Getter for getting contract address by instrument name"
      },
      "initialize(address,address)": {
        "notice": "Constructor takes a DataProvider contract address"
      },
      "instrumentAdmin()": {
        "notice": "Address of the admin of all instruments"
      },
      "instruments(string)": {
        "notice": "Mapping of created instruments"
      },
      "isInstrument(address)": {
        "notice": "Boolean check for if an address is an instrument"
      }
    },
    "version": 1
  },
  "storageLayout": {
    "storage": [
      {
        "astId": 17870,
        "contract": "contracts/RibbonFactory.sol:RibbonFactory",
        "label": "initialized",
        "offset": 0,
        "slot": "0",
        "type": "t_bool"
      },
      {
        "astId": 17873,
        "contract": "contracts/RibbonFactory.sol:RibbonFactory",
        "label": "initializing",
        "offset": 1,
        "slot": "0",
        "type": "t_bool"
      },
      {
        "astId": 17938,
        "contract": "contracts/RibbonFactory.sol:RibbonFactory",
        "label": "______gap",
        "offset": 0,
        "slot": "1",
        "type": "t_array(t_uint256)50_storage"
      },
      {
        "astId": 17085,
        "contract": "contracts/RibbonFactory.sol:RibbonFactory",
        "label": "_owner",
        "offset": 0,
        "slot": "51",
        "type": "t_address"
      },
      {
        "astId": 3185,
        "contract": "contracts/RibbonFactory.sol:RibbonFactory",
        "label": "instrumentAdmin",
        "offset": 0,
        "slot": "52",
        "type": "t_address"
      },
      {
        "astId": 3190,
        "contract": "contracts/RibbonFactory.sol:RibbonFactory",
        "label": "instruments",
        "offset": 0,
        "slot": "53",
        "type": "t_mapping(t_string_memory_ptr,t_address)"
      },
      {
        "astId": 3195,
        "contract": "contracts/RibbonFactory.sol:RibbonFactory",
        "label": "isInstrument",
        "offset": 0,
        "slot": "54",
        "type": "t_mapping(t_address,t_bool)"
      },
      {
        "astId": 3199,
        "contract": "contracts/RibbonFactory.sol:RibbonFactory",
        "label": "getAdapter",
        "offset": 0,
        "slot": "55",
        "type": "t_mapping(t_string_memory_ptr,t_address)"
      },
      {
        "astId": 3202,
        "contract": "contracts/RibbonFactory.sol:RibbonFactory",
        "label": "adapters",
        "offset": 0,
        "slot": "56",
        "type": "t_array(t_address)dyn_storage"
      }
    ],
    "types": {
      "t_address": {
        "encoding": "inplace",
        "label": "address",
        "numberOfBytes": "20"
      },
      "t_array(t_address)dyn_storage": {
        "base": "t_address",
        "encoding": "dynamic_array",
        "label": "address[]",
        "numberOfBytes": "32"
      },
      "t_array(t_uint256)50_storage": {
        "base": "t_uint256",
        "encoding": "inplace",
        "label": "uint256[50]",
        "numberOfBytes": "1600"
      },
      "t_bool": {
        "encoding": "inplace",
        "label": "bool",
        "numberOfBytes": "1"
      },
      "t_mapping(t_address,t_bool)": {
        "encoding": "mapping",
        "key": "t_address",
        "label": "mapping(address => bool)",
        "numberOfBytes": "32",
        "value": "t_bool"
      },
      "t_mapping(t_string_memory_ptr,t_address)": {
        "encoding": "mapping",
        "key": "t_string_memory_ptr",
        "label": "mapping(string => address)",
        "numberOfBytes": "32",
        "value": "t_address"
      },
      "t_string_memory_ptr": {
        "encoding": "bytes",
        "label": "string",
        "numberOfBytes": "32"
      },
      "t_uint256": {
        "encoding": "inplace",
        "label": "uint256",
        "numberOfBytes": "32"
      }
    }
  }
}